:020000040802F0
:1000000000000000000000000000000000000000F0
:1000100000000000000000000000000000000000E0
:1000200000000000000000000000000000000000D0
:1000300000000000000000000000000000000000C0
:10040000801E0024712702081B8702085D2702084E
:100410005D2702085D2702085D2702080000000032
:100420000000000000000000000000001129020888
:100430005D27020800000000752802081D50020810
:100440005D2B02085D2B02085D2B02085D2B020864
:100450005D2B02085D2B02085D2B02085D2B020854
:100460005D2B02085D2B02085D2B02085D2B020844
:100470005D2B02085D2B02085D2B02085D2B020834
:1006CC0053B94AB9002908BF00281CBF4FF0FF31AD
:1006DC004FF0FF3000F00CB8ADF1080C6DE904CE12
:1006EC0000F010F8DDF804E0DDE9022304B07047F7
:1006FC00704700BF034613F8012B002AFBD1181AD0
:10070C00013870472DE9F04786468C460846089E0E
:10071C00154674461946002B40F0C2808542B2FA49
:10072C0082F245D94AB1C2F1200300FA02FC2EFA3A
:10073C0003F3954043EA0C0C94404FEA154EA8B2D3
:10074C00BCFBFEF8230C0EFB18CC08FB00F943EAAB
:10075C000C43994528D9EB1808F1FF3704D2994579
:10076C0002D9A8F102072B44A3EB0903A4B2B3FBF3
:10077C00FEFC0EFB1C330CFB00F044EA0344A042CD
:10078C0014D92C190CF1FF3304D2A04202D9ACF1CC
:10079C0002032C44241A43EA07401EB1D440002320
:1007AC0034607360BDE8F0874746DDE76346F1E7E8
:1007BC0092BB431B01214FEA154EAFB2B3FBFEFCBB
:1007CC00200C0EFB1C330CFB07F840EA0343984546
:1007DC0062D9EB180CF1FF3004D2984502D9ACF178
:1007EC0002002B44A3EB0803A4B2B3FBFEFC0EFBEC
:1007FC001C330CFB07F744EA0344A7424ED92C19CF
:10080C000CF1FF3304D2A74202D9ACF102032C4401
:10081C00E41B43EA0040C0E7C2F1200320FA03F1D5
:10082C00954090402EFA03F303434FEA154EAFB2B6
:10083C00B1FBFEFC0EFB1C10190C0CFB07F841EA7B
:10084C000041884504FA02F422D969180CF1FF30F2
:10085C0004D2884502D9ACF102002944A1EB08016D
:10086C009BB2B1FBFEFC0EFB1C110CFB07F743EA21
:10087C0001439F420ED9EB180CF1FF3104D29F4279
:10088C0002D9ACF102012B44DB1B41EA004192E797
:10089C006046E3E76146F7E76046A3E76346B7E7E0
:1008AC00834206D916B9002108467BE7C6E900E069
:1008BC00F9E7B3FA83F78FB9834201D3724508D8AD
:1008CC00BEEB020460EB030301209C461EB9002121
:1008DC0068E73846FAE7C6E9004CF8E7C7F1200CA0
:1008EC00BB4022FA0CF41C432EFA0CF120FA0CF348
:1008FC00B84001434FEA14490EFA07F5B3FBF9F877
:10090C001FFA84FE09FB18300B0C08FB0EFA43EAA5
:10091C0000439A4502FA07F240D9E31808F1FF3078
:10092C0004D29A4502D9A8F102002344A3EB0A038E
:10093C0089B2B3FBF9F809FB183308FB0EFE41EA48
:10094C0003418E452CD9611808F1FF3304D28E4532
:10095C0002D9A8F10203214443EA0040A0FB02980B
:10096C00A1EB0E014145CE46434602D306D14D457F
:10097C0004D2B9EB020E68EB04030138002EA6D0AA
:10098C00B5EB0E0261EB030101FA0CFC22FA07F342
:10099C004CEA0303F940C6E9003198E74046C5E745
:1009AC004346D9E700220023014808F0E5BC00BF0C
:1009BC00EC0000242DE9F04395B0431EDFED336AC3
:1009CC00073004AC224613F8011F07EE901A83423D
:1009DC00F8EE677A87EEA67AA2EC017AF3D12C4D69
:1009EC0068462C4A0023F5EC017A1646274600216E
:1009FC00B4460131F7EC016A10369CED007A0829F7
:100A0C0046EE877AF4D1F5EEC07A01330432F1EE7A
:100A1C0010FAD8BFDFED207A042BE0EC017AE2D19A
:100A2C000CADDFF87C901D4F0026A846B9EC010AEE
:100A3C003A466946002310460133B1EC017A203264
:100A4C00D0ED007A042B07EE270AF4D1013607F01B
:100A5C0022F90437A8EC010A082EE7D100239FEDF8
:100A6C000E7A0133F4EC017AF5EC016A082B77EE7F
:100A7C00E67AF0EEE77A37EE277AF2D1B4EE000A96
:100A8C0027EE000A15B0BDE8F08300BF00007F43DD
:100A9C00E8A60208F8A602080000000068A60208F2
:100AAC0048A602082DE9F04FB44EB7B002AF30683B
:100ABC0008F01CFC50B9B24AB248012107F051FDB4
:100ACC004FF0FF30D437BD46BDE8F08FDFF8E4823D
:100ADC00D8F8000008F00AFC08B9AB4AECE7AB4DBB
:100AEC00284608F003FC08B9A94AE5E7A94B07F129
:100AFC0030040FCB84E80F00D8F80000214683683F
:100B0C009B689847B0F1000B07DAA34A5B469D48F7
:100B1C00012107F02FFD0020D4E72A692846A96897
:100B2C00136823F4005313604FF480320B680D21CB
:100B3C009847D8F80000836800211B689847031E6B
:100B4C0001DA964AE3E733686C4688B01B6802AA60
:100B5C009349C2E905134FF400739383914B42F808
:100B6C00103F00234FF4E651864801F039F8A546B2
:100B7C003068836800244FF001085B68984707F1E0
:100B8C00180322468849306887F82080C7E9064454
:100B9C0002F004FC07F1240322468349306887F8ED
:100BAC002C40C7E9094402F0F9FB804A032175483F
:100BBC00A14607F0D6FC44222146DFF820A2B81843
:100BCC0008F044FD40F2DF7387F84A803B64082349
:100BDC0087F84430022387F84830102387F84930CF
:100BEC000022002307F18801714804F04FFE0646ED
:100BFC0000284BD02E69AB6807F1140163485B6881
:100C0C00984720B9336878695840C0F340300128C0
:100C1C0000F0A780674B186883685946DB689847D3
:100C2C00654A0321574807F09CFC08F0CEFC0A22C9
:100C3C000023FFF745FD031B0E46804661EB0902BE
:100C4C0041F288318B4272F1000219DB5B4A0321BD
:100C5C004C4807F086FC494B18680023002207F12A
:100C6C004001CDE90033002302F02AFB03460028A3
:100C7C007DD1534A0321434807F073FC4446B146E7
:100C8C0000214FF47A7008F035FCA9E7D7F88830CA
:100C9C00B3F5FD6F19D1E8468AB097F8900097F834
:100CAC00911002AA97F89230DFF834C1C2E9071309
:100CBC000523C2E905C042F8103F4FF423513346D7
:100CCC00304800F08DFFC5468AE7534588D107F1BF
:100CDC009000FFF76FFEDFED3B7AB4EEE70AF1EE22
:100CEC0010FA0DDDDFED387A0121384A20EE270AA3
:100CFC002448FDEEC07A17EE903A07F03BFC6FE704
:100D0C0097F89030C7F800D090B0FB6097F891300E
:100D1C0002AA97F89280BB6097F8973097F893E007
:100D2C0097F894C097F8950097F896107B60284B2D
:100D3C00C2E9053AFB68D361BB68C2E908387B6835
:100D4C0093630B23C2E90AECC2E90C0142F8103F91
:100D5C0045F6C00133460B4800F042FFD7F800D0EF
:100D6C003EE71C4A0221074807F0FBFB58E71A4AEA
:100D7C000121044807F0FEFB80E700BF04000024BB
:100D8C0028AC020848A302083DAC0208409C0208AB
:100D9C005AAC0208A8A3020872AC02088EAC020876
:100DAC00A8AC020803000001B1090208BDAC02089E
:100DBC00EC00002400000024A1AD0208D9AD02080B
:100DCC00FEAD0208CDCC4C3D00007A4404AD0208C7
:100DDC0027AD020865AD02081CAE02080004F0182D
:100DEC00E6AC02082DE9F04F91B0840705460E469B
:100DFC00009302F00403DDF868800293C2F3C2038F
:100E0C00039203F10103059340F0BA81041D30B144
:100E1C00072909D86FF01B0011B0BDE8F08F01F065
:100E2C0007063444C6F10806009B4FF000094FF04A
:100E3C00040A591E4FF0FF334F46CB4601935346DD
:100E4C00CDF810900DB1009820600598002800F3A3
:100E5C00E8809848009A824203D397488242C0F0B7
:100E6C00E080039AA4EB050E92074FEA9E0000F176
:100E7C0003810F2F00F2B180002D00F0058107F1E6
:100E8C0040020DEB020C019A0CF8200C0CF8102C03
:100E9C00049801300490E7E07A285DD84B280ED8EE
:100EAC00472859D829282DD8252852D054D820285D
:100EBC007AD02338D0F1000B4BEB000B74E04C389C
:100ECC002E2849D8DFE800F0704848484848484880
:100EDC00484848484B484848484848484859484B6F
:100EEC004B595959704B6D487048184B18484882EB
:100EFC007F4B48484B487F0000204FF0000B4FF0D1
:100F0C00040A38E02A380122C0B202FA00F010EAD2
:100F1C000E0F49D110F0625C2FD110EA020B43D0B6
:100F2C006046013C5444B4FBFAF40AFB04F4002D73
:100F3C0061D0A3EB050CA444B4453FF66BAF00287D
:100F4C0068D1042B47D158F8043B236004340423A4
:100F5C002AE0019A013A01924FF0000B24E011F8BB
:100F6C00010C6C2834D111F8023C00206C2B834608
:100F7C00C5D14FF0080A5346D3E708F107080734E8
:100F8C0028F0070824F00704F8E802AB35B10698FE
:100F9C002044B0423FF63EAFC4E900AB08344FF0FA
:100FAC00000B4FF0080A534611F8010F002878D0B7
:100FBC00BBF1000F7FF470AF2528F5D1019B4FF0EA
:100FCC00010B013301934FF0040AECE7584694E708
:100FDC0000208346A5E7082B02D06FF015001BE715
:100FEC0008F1070828F00708B8EC027B84ED007BB9
:100FFC0008340823D8E768B9042B02D108F1040897
:10100C00A4E7082BE9D108F1070828F0070808F134
:10101C000808EDE705980138059058F8040B009086
:10102C0010E7039A900720D5A4EB050E4FF0010CA6
:10103C004FEA9E00BEF5007FCFD20F2FCDD8F5B171
:10104C0007F14002C0B20DEB020E019A0EF8200C13
:10105C000EF8102CBCF1000F3FF41AAF60F07F00BB
:10106C0009F101090EF8200C0137C5F1080204340E
:10107C004FF6DA7E069297E74FF0000CDAE7BCF1F8
:10108C00000F01D00136EFE7029A0236002AEBD1AD
:10109C000098CDE90631FFF72DFB0644DDE906315A
:1010AC00E2E7631BB3F5806F97D23DB9A6F1080454
:1010BC00E018B1E6109A020810BF02089B08029AC9
:1010CC0028602B709DF81030C2B1EB7085F802903F
:1010DC00B9F1000F05D008A80022C5F1010C974208
:1010EC000ED1C5F101030DF120084FF0000A0DF1EE
:1010FC00300B0193574512D1601B8DE66B70E5E701
:10110C0010F8013B190608D50CEB040E03F07F0315
:10111C00B6453FF67FAE04F8013B0132DFE7B9F18B
:10112C00000F03D098F90020002A17DB029BD3B1E3
:10113C001AF80B2004F8012B0022019B18191044FB
:10114C00B0423FF667AE98F80000009904F8010B26
:10115C002046039208F06CFA039A14440AF1010A2F
:10116C0008F10108C6E798F8002055F822300093E2
:10117C00029B009845F82230FFF7BCFA421CDCE7D2
:10118C006FF00D0048E600BF2DE9F04F97B0044614
:10119C00894600AF90F802A0D7F880B03B62CBF341
:1011AC00C003FA62BB6141B9457800780AEB800054
:1011BC0020444D4517D8A0EB0409E378FB61BAF144
:1011CC00000F02D01BF0010F16D1FB6953BBFB6A59
:1011DC001BB13A6A4946204698474D4628465C372B
:1011EC00BD46BDE8F08F461C09F101093046FFF7FA
:1011FC0081FA01303044DCE72378626899007A6226
:10120C00FA6A796104EB8301002A40F000814D46B3
:10121C000E4601EB0A094FF000084E454CD101EB8C
:10122C000A0610E01BF0020FD1D023789A0004EBD1
:10123C0083017A6162687A62FA6A002A77D14D4634
:10124C0001EB0A0690461BF0050F0CBF022301238D
:10125C00FB62FB6906EB430A0BF00203BB625645CB
:10126C00BCD016F8021B16F8013C54F82390994B8D
:10127C00994502D3984B994536D3BB69002B40D086
:10128C00786A06F026FE00283BD0E9468AB06A460A
:10129C00924B53617B6AC2E906314FF4007313849D
:1012AC008F4B42F8103F00234FF412518D48023DF2
:1012BC0000F096FCCD46D2E716F8013BF96254F8E3
:1012CC002300FFF717FAD7F884300130F96A4BB1D5
:1012DC00D7F8883098453EBFD7F8843023F81800EB
:1012EC0008F10108054498E7BB6923B1786A06F058
:1012FC00F0FD0028C9D11BF0010F05D1FB6AED1AD6
:10130C00ADE7BB6A002BAAD04846FFF7F3F9D7F834
:10131C00843053B1D7F8883098453FBF431CD7F879
:10132C00842022F8183008F10108054497E7BAF137
:10133C00000F72D01BF0040672D0D046002607F1C5
:10134C00480052463B61B96208F072F9B96A3B69D0
:10135C0001EB0A02F969BA62FA695200FA60BA6AD8
:10136C0002EB41023A610BF00202BA603A69B96AC7
:10137C008A4257D11BF0020F62780CBF4FEA58011A
:10138C0000217A621BF0010F3244D2B240F09F80F0
:10139C001BF0040F14BF40460020BB616270A070AC
:1013AC002046E1703A6A7969FB6A9847051EFFF698
:1013BC0015AFBB6941463A6A07F1480023707B6A56
:1013CC0084F802A06370FB69E370FB6A9847B0F184
:1013DC000008C0F2BB807B69A9EB0A013A6AC91A02
:1013EC00FB68C91AD7E90A0398470028C0F2B080F5
:1013FC00A8444FF0000B07F1380A08EB0005B34581
:10140C0072D300213A6AFB6A08469847E6E65646CC
:10141C004FF0000807F1380093E75646D04697E79F
:10142C00B04695E7BA6A12F8021B12F8015CBA6270
:10143C0054F82500274A904202D3274A90421ED3E3
:10144C00BA6932B1786A7B6006F043FD7B6800288C
:10145C008CD1BA6802BB08F1280207F1300C08F1F4
:10146C00010008F10208944407F158025FFA88F869
:10147C0052FA80F00CF8101C00F8105C76E7BA6990
:10148C003AB1786A7B6006F024FD7B6800287FF413
:10149C006DAF1BF0010F09D006F1280207F13000E7
:1014AC00711C161806F8205CCEB25FE71BF0040F17
:1014BC003FF45CAF08F1280207F1300008F101019C
:1014CC0002EB000808F8105C5FFA81F84EE7002088
:1014DC0063E700BF109A020810BF020843AE02086F
:1014EC000400000140A302081BF80A3054F82390B2
:1014FC0087F83730D7F884302BB3D7F888309B4532
:10150C0021D2D7F8843033F81B803A6A012107F1D5
:10151C003700FB6A984700281ADB0544B8F1000F26
:10152C0006D14846FFF7E6F800F101081FFA88F8E3
:10153C003A6A41464846FB6A9847002808DB05444E
:10154C000BF1010B5BE74FF00008DEE7454645E683
:10155C00054643E6014B1860704700BF08000024A5
:10156C0080B505460E461746984604F021FEDFF876
:10157C002090034608F03CFA0446424649F80030F5
:10158C0039463046A84754F8090001F057F900BF16
:10159C0008000000054B00205A6822F002025A6035
:1015AC005A6822F001025A60704700BF0010005CBC
:1015BC00EFF31180102383F31288BFF36F8F094B65
:1015CC001A683AB9084A116841F4807111601168BF
:1015DC00C905FCD51A6801321A6080F31188BFF373
:1015EC006F8F70479C0800240048025810B5EFF329
:1015FC001184102383F31288BFF36F8F134B1A6877
:10160C00C2B9134B0122BFF35B8F53E8001F0029B3
:10161C0003D143E800200028F7D1BFF35B8F04D13E
:10162C000C4A02210C4806F09CFF84F31188BFF38E
:10163C006F8F10BD012A04D108490A6822F4807208
:10164C000A601A68013A1A60EFE700BF9C08002490
:10165C0098080024F7AE020888A302080048025834
:10166C000C4B0D4A1A600D4AD36823F0070343F064
:10167C000203D3600A4B1A6841F20303B3EB124F17
:10168C0006D1084AD2F8083143F00103C2F80831F8
:10169C00704700BF580000240090D0030048025847
:1016AC000010005C008000512DE9F047044607460D
:1016BC004FF00109DFF8508014B93846BDE8F087C7
:1016CC0094FAA4F5B5FA85F509FA05F32E0108EBA1
:1016DC0005156FEA030A24EA03042B7B002BEBD0DD
:1016EC0058F806301B694BB946440422284607EAD1
:1016FC000A077368196806F0C4FEDDE728469847A8
:10170C000028D9D1F0E700BF98A3020830B5002219
:10171C0089B00F490F4807F05AFF0022002300241C
:10172C000D4D0E4928460094CDE906230E234FF4A7
:10173C004072CDE90334CDE90144094B04F078FA49
:10174C000849284607F040FE204609B030BD00BFCE
:10175C0075170208F005002428010024800C0024D1
:10176C00911A020861AF0208014804F0B9B900BF30
:10177C00140100242DE9F047804620480F4606F05E
:10178C0058FE0646002832D000252846BDE8F087D2
:10179C00237B83B12368DB680BB1204698476368D1
:1017AC0083F8069023681B69CBB963680422204632
:1017BC00196806F066FE013610345445E8D3B8F1CA
:1017CC00000FE2D0002DDFD02846FFF76DFF054655
:1017DC00002FF7D00021642007F08CFEF2E72046A2
:1017EC0098470028E1D009FA06F31D43E3E7044CBF
:1017FC000546DFF810A04FF00109DEE7B008002421
:10180C0098A30208A8A30208014B53F820007047C4
:10181C00D0A7020808B5034608462BB1044A13604A
:10182C0000F076FC002008BD6FF01500FBE700BF50
:10183C000C00002410B5044C237813B9034804F0B1
:10184C004FF90123237010BD200C00241401002437
:10185C0010B504460B4806F0ECFD5CB10A4BBFF327
:10186C005B8F53E8001F013943E80012002AF8D1BE
:10187C00BFF35B8F054807F0B6FE0548BDE8104086
:10188C0004F02EB9A8080024AC080024F0050024AC
:10189C00140100240020064BBFF35B8F014653E874
:1018AC00000F43E80012002AF9D1BFF35B8F704799
:1018BC00A808002470B5FFF7EDFF084C0546084E4C
:1018CC00B44200D370BD63685B792BB123685B684D
:1018DC0013B12946204698471034F1E798A3020823
:1018EC00A8A3020810B5044C0449204606F027FCB6
:1018FC00034B1C6010BD00BFB0000024BCA7020845
:10190C00A008002400230D4A4FF47A710C4810B53E
:10191C0013700C4A13600C4A1360FFF77BFFFFF740
:10192C00E1FF0A4B0A4918468B4200D310BD1A1A24
:10193C005C681033121101322271F5E7210C00247E
:10194C0059840208A8080024AC08002498A30208B3
:10195C00A8A30208014600220023014806F010BC8F
:10196C00B0000024014806F0A9BC00BFB000002460
:10197C00024B0146186806F0F5BC00BFA008002415
:10198C00014806F02ABD00BFB0000024264B70B5FC
:10199C001878002846D0FFF7E5FF054600283ED111
:1019AC00224B234C1B68002B12DD07F00EFE0A2283
:1019BC000023FEF785FED4E90032C01A40F2E93369
:1019CC0061EB0201984271F1000101D3FFF772FF44
:1019DC00D4E9003213F57A7342F10002C4E9003203
:1019EC00BDE87040FFF7CCBF63685B7923B1236817
:1019FC00294620461B6898471034B442F4D3284635
:101A0C00FFF7B6FF0B4BBFF35B8F53E8001F013999
:101A1C0043E80012002AF8D1BFF35B8FC0E7064CF5
:101A2C00064EEAE770BD00BF200C0024A808002475
:101A3C00E8050024AC08002498A30208A8A3020817
:101A4C0070B50D4D297861B90C4C01200C4EFFF787
:101A5C0091FEB44206D3FFF799FF0028FBD1012376
:101A6C002B7070BD63685B791BB1236820469B6843
:101A7C0098471034EDE700BF210C002498A302080E
:101A8C00A8A3020800212DE9F0470846FFF772FED3
:101A9C00044658B34FF4FA784FF000091C4B07F08A
:101AAC00A7FF1C4A1B58136033B11B4B1B68092B37
:101ABC0002DD1A4804F014F80025194FDFF85CA079
:101ACC0044B12046FFF7F0FD044618B94FF0FF383B
:101ADC004FF0FF39FFF75AFF064628B9B5B9424611
:101AEC004B46504604F030F83546E9E74FF0FF38E6
:101AFC004FF0FF39D2E72B689B691BB100222846B7
:101B0C00114698471035BD42F5D3E8E7054DFAE785
:101B1C0008000000A4080024AC08002414010024D0
:101B2C00A8A3020898A3020813B5184806F081FC74
:101B3C00174B1B7873B1EFF31184102383F31288C6
:101B4C00BFF36F8FFFF722FF84F31188BFF36F8F02
:101B5C0002B010BD0F4B1B68002BF9D050B90022FE
:101B6C0000230D48CDE9002342F21072002304F04B
:101B7C002BFEEDE70928EBD1074807F034FD0748A9
:101B8C0002B0BDE8104003F0ABBF00BFAC080024AE
:101B9C00210C0024A4080024F005002414010024C6
:101BAC00064B10B504461B6898472146A0600448B4
:101BBC0006F065FBBDE81040FFF7B6BF0C00002433
:101BCC00B0000024044A054B9B1AB1EBD30F34BF71
:101BDC0052F831000020704728A3020898A302088D
:101BEC002DE9F04F8FB0C1F34A280D46914604AF52
:101BFC000C0DB8607B60B8F1000F63D0002607F1C4
:101C0C0014034FF0040B4FF00A0AC7F80C8032464D
:101C1C007E624846C7E90766019307F11C03CDF8BD
:101C2C0008B0CDF800A0F968FFF7AEFAB0F5006F78
:101C3C0003461CD36C468AB0D9F8041004AB264872
:101C4C001A46C3E9050140F2FF71D9614FF40071E6
:101C5C001984224B42F8103F4FF41251334620485E
:101C6C00FFF7BEFFA5462C37BD46BDE8F08FC0F38D
:101C7C000A0804F117003B60184468F3532520F060
:101C8C0007008008FFF766FE044690B13B6800F140
:101C9C001001144A4846F961C7E9083607F11403E4
:101CAC00CDF808B0CDE900A307F11C03F968FFF7E4
:101CBC006BFA68F353257B68B96820462A4606F010
:101CCC0000FCD0E704F1170020F007008008FFF7B4
:101CDC0041FE0446EDE700BF76AF020804000001A8
:101CEC0058A30208A18402082DE9F04F87B00446DE
:101CFC00934698460391DDE91279DDE9105ABFB19C
:101D0C003B46524610210020CDF80090CDF814909F
:101D1C00FFF768F8B0F5006F06460AD340F2FF7380
:101D2C00174A0221174807B0BDE8F04F06F022BC55
:101D3C003E4604F0070405F117000BF0070BE40016
:101D4C00304444EA8B1420F0070044EA462480080F
:101D5C0044EA0554FFF7FEFD054640B13FB13B4652
:101D6C00524631461030CDF80090FFF73BF8434611
:101D7C0022460399284607B0BDE8F04F06F0A1BBF8
:101D8C00B5AF020858A30208406820B1034BC01A33
:101D9C0040F3CF0070474FF0FF30704728A3020884
:101DAC000EB403B503AB0146054853F8042B01935D
:101DBC0001F05AF802B05DF804EB03B0704700BFB5
:101DCC00E3850208CA0605D48B064CBF02490349B9
:101DDC00FFF7E6BF704700BFEEAF0208EDAF020899
:101DEC002DE9F04F8BB09B4604460D46169B904652
:101DFC009DF854A00693179B199E0593189B04936A
:101E0C00BAF1000F00F09E8006F0010306F0020903
:101E1C00089306F00803079306F48073099306F001
:101E2C002EFB024600283BD08F492046FFF7B8FF17
:101E3C000746B9F1000F08D016F0440F32D12A46EC
:101E4C008A492046FFF7ACFF0744089B53B1884BE7
:101E5C002046884953F82A20874B002A08BF1A4687
:101E6C00FFF79EFF099B002B48D0079B002B62D1EC
:101E7C00B8F1000F64D0424680492046FFF790FF2E
:101E8C000546069B3D44002B6BD1049B002B71D166
:101E9C00F30700F1E28031462046FFF793FFD6E0CE
:101EAC000746C6E7764B18680028CDD0754B4FF423
:101EBC007A794FF03C0C1B68B5FBF3F5B5FBF0F1F0
:101ECC0000FB11554FF4616309FB05F5B1FBF3F20F
:101EDC00B5FBF0FE03FB121100FB1E55B1FBFCF32E
:101EEC0009FB05F50CFB1311B5FBF0F50091204631
:101EFC006549CDE901E5FFF753FFA5E7079BEBB17A
:101F0C00624B2046624953F82A20FFF749FF0546E9
:101F1C00B8F1000F05D0424658492046FFF740FF64
:101F2C000544BBF1000FACD05A465A492046FFF786
:101F3C0037FF0544A5E74FF0000BE1E7079DE7E706
:101F4C0045469EE7BBF1010F069B06D1002B64D1E1
:101F5C00049B002B7BD000250CE0002BF8D04E48C6
:101F6C005CE04E48069B22464D4905F081FF049BE0
:101F7C00002B68D0DFF83881DFF83891049F4FF0E0
:101F8C00000B31462046102F28BF1027FFF71AFFF1
:101F9C005D4545DC059B4FF0010B494620461A7800
:101FAC00FFF7FEFE1BF0070F03D141462046FFF75B
:101FBC00F7FE5F453BD9059B4946204613F80B209D
:101FCC00FFF7EEFE0BF1010BBBF1100FEAD14FF056
:101FDC00000B34492046FFF7E3FE5A46059B20468A
:101FEC009A5CA2F120015F292F4928BF2E22FFF70E
:101FFC00D7FE0BF1010BBBF1100F1DD01BF0070F1F
:10200C0003D141462046FFF7CBFE5F455A46E5D843
:10201C0041462046FFF7C4FEEBE720485546A1E7B2
:10202C00414620460BF1010BFFF7BAFEB0E71F4902
:10203C002046FFF7B5FEC5E7059B3B440593049B83
:10204C00DB1B04939AD1BAF1000F7FF421AF204629
:10205C000BB0BDE8F04F06F0B1BA074A204605496F
:10206C00FFF79EFE17E700BFF5AF0208F9AF0208B5
:10207C00E0A70208BAAC0208F0AF02081EB00208D2
:10208C00B8080024B408002402B00208F4A702081F
:10209C0022B0020828B0020819860208E38502085B
:1020AC00752E020837B0020839B0020833B00208A6
:1020BC0035B002082DB0020842F20F73114A8B4260
:1020CC0073B5044628BF0B4605680521684604F025
:1020DC00CBFB636806460B2228465B680A4906F070
:1020EC005FFA63683246694628465B6806F058FA20
:1020FC0063681B2205495B68284606F051FA02B05A
:10210C0070BD00BF8BAC020858B002083CB002088E
:10211C0000210123064A904206D8064A01B9012340
:10212C001360054B18607047400801215B00F2E713
:10213C0040420F00B4080024B8080024F8B50D463E
:10214C0004464618054FB44201D12846F8BD14F890
:10215C00011BBB6801485B689847F4E7C09C020808
:10216C00014B0360012070473CA802082DE9F84F91
:10217C00804600AF0C46002965D0E9468AB0A368BA
:10218C006D46D1E9001239484FF0050A2E46C5E9D3
:10219C000501C5E9072346F810AF002332464FF47A
:1021AC0021513348FFF71CFDCD466369AD46D4E998
:1021BC0003123048C5F810A0C5E90501C5E907238D
:1021CC00002332464FF421512948FFF709FDCD4633
:1021DC00E36900252646DFF8B0B04FF00A0A264A1C
:1021EC000121234806F0C6F9E9468EB0D6E908E08D
:1021FC00D6E90A136A46C2F81CE005F1010EC2E9E1
:10220C0008E0A81CC2E90A01E91CC2E905B5C2E94B
:10221C000C1342F810AF0435002345F2400114486A
:10222C00FFF7DEFC102D06F11006CD46DCD1236E37
:10223C00124A01210E4806F09DF9A369104A0121AA
:10224C000B4806F097F9B8F1010F07D1EFF30583AE
:10225C000C4A103B4146064806F08CF92146404694
:10226C0003F00EF9BD46BDE8F88F00BFAEB0020812
:10227C0078A30208DDB002080CB102085EB10208B6
:10228C006DB102089BB102081BB1020830BFFFF709
:10229C00FDBF00BF2DE9F0410B4E0546DFF8308045
:1022AC00324606EB0807CC1B0849204607F0C0F95C
:1022BC00A019083C4246002107F0C8F907F10800B4
:1022CC002C67BDE8F08100BF00000000A8A3020845
:1022DC0004000000054B9A699B689A4204D0044A9A
:1022EC00536843F080535360704700BFF00B0024D9
:1022FC0000ED00E070B5294C06460D4628482949EA
:10230C0006F00CFAA36AD9043CD52548264906F0F8
:10231C0005FA1720A36A1A0504D52148234906F0AB
:10232C00FDF918201D4CA36A9B0512D51C482049A9
:10233C0006F0F4F9A36BA26A100409D51D4A012119
:10234C00174806F017F91EB1A36A23F40043A362E1
:10235C001920124CA36A590504D51148164906F0E8
:10236C00DDF91A20A36ADA050ED50D48134906F0DB
:10237C00D5F91B20094A936A43F47F4393620023E7
:10238C002B7070BD1620C5E7A36A9B04F2D50448D8
:10239C000B4906F0C3F91C20ECE700BF00ED00E090
:1023AC0078A30208AEB10208C4B10208D5B1020884
:1023BC00E8B1020801B2020816B2020831B20208F2
:1023CC0049B2020810B5204C2049214806F0A6F964
:1023DC00A36A990136D51E481E4906F09FF91E20A6
:1023EC00A36ADA0104D51A481B4906F097F91F2095
:1023FC00154CA36A1B0304D51548184906F08EF931
:10240C002120A36A590304D51148154906F086F911
:10241C0022200D4CA36A9A0304D50D48114906F0ED
:10242C007DF92320A36ADB0304D509480E4906F085
:10243C0075F92420044A936A6FEA03436FEA134345
:10244C00936210BD1D20CBE700ED00E078B20208CE
:10245C0078A3020890B20208A3B20208BDB2020827
:10246C00DBB2020800B302081AB302082DE9F843E4
:10247C00364D8046894636483649174606F04EF9A1
:10248C00AB6ADE0627D511243349314806F046F9EC
:10249C00AB6A1D0704D5122430492D4806F03EF9CD
:1024AC002A4DAB6A980718D52D49294806F036F9FC
:1024BC006E6BAB6A190646D52A4A3346012124486D
:1024CC0006F058F8B9F1000F03D0AB6A23F0800383
:1024DC00AB62132403E01024DAE76FF015061B4DF2
:1024EC00AB6ADA0704D514241F49194806F016F90B
:1024FC00AB6A9B0604D515241C49154806F00EF949
:10250C00124B9A6AD50602D49A6A90070AD55B6870
:10251C00190507D54146304600F0A2FA10B180F3F8
:10252C0009880224094B9A6A920603D55A6A22F446
:10253C0000525A629A6A204642F0FF029A620023C5
:10254C003B70BDE8F8836FF01506C2E700ED00E0C4
:10255C0078A3020845B302085BB30208D5B10208A0
:10256C008EB30208A6B30208BCB3020849B2020833
:10257C002DE9F041634B9CB005460026D3F804804E
:10258C0000AFC8F3080486F31188BFF36F8F02F015
:10259C007F43B3F17F4F07D102F00C03082B12D10C
:1025AC0059495A4806F0BAF8002635460023FB7103
:1025BC00E31E092B00F28480DFE803F00A7A7D76B3
:1025CC0082828282828010074CBF0D460126EDE785
:1025DC004F494E4806F0A2F84A4C0023FB71E36ABF
:1025EC009A0705D54B49494806F098F8002432E083
:1025FC00E36A002B01DA4849F5E7E36A5B00F5D59D
:10260C004649424806F08AF86369AA6943F4807324
:10261C006361BFF34F8FBFF36F8F636932F8022C86
:10262C0023F480736361BFF34F8FBFF36F8F4DF64D
:10263C0002739A4208D0A36ADBB243B3FA1D01219C
:10264C002846FFF713FF31E02B68354A01212F484C
:10265C0005F090FF2C68FB79ABB96822294607F18D
:10266C00080006F0E5FF7B6A002E45D0C3F3080294
:10267C0022B96FEA53236FEA43237B6207F1080107
:10268C002046FFF773FD7037BD46BDE8F081A36AA5
:10269C0013F47F4F04D0F91D0120FFF72BFE05E04A
:1026AC00A36AB3F5803FA1D3FFF78CFE0446D2E7B3
:1026BC00FA1D0021C4E7F91D0020EEE7194992E745
:1026CC0018F4F87F184AE8468AB0184B18BF13461E
:1026DC006A461749103CC2E905134FF40073D461E4
:1026EC001384144B42F8103F00234FF41151074848
:1026FC00FFF776FAC54679E723F4FF7323F001035D
:10270C00BBE700BF00ED00E009B4020878A30208A3
:10271C0034B402084BB402086CB402087AB4020850
:10272C0099B40208B5B40208F0B30208DBB302088E
:10273C00D9B4020804000001044B5A6942F010029B
:10274C005A615A6922F008025A61704700ED00E0A4
:10275C00EFF30880EFF3098101B57246FFF708FF2C
:10276C0001BD00BF002080F31488BFF36F8F0E48AB
:10277C0080F3088800200D490860BFF34F8F00F0EC
:10278C002BF8102080F3118809484FF40861401889
:10279C0080F30988EFF314800221084380F3148836
:1027AC00BFF36F8F00F0F2F8801E002494ED00E070
:1027BC000010002407490023D1F890201846C2F3DA
:1027CC000722934200DB7047C1F898300133C1F8FF
:1027DC00A000F6E700ED00E008B572B6002383F325
:1027EC001388FFF7E7FF144B4FF0FF32C3F880203C
:1027FC00C3F88420C3F88820C3F88C20C3F8902039
:10280C00C3F89420C3F89820C3F89C20C3F8802107
:10281C00C3F88421C3F88821C3F88C21C3F8902114
:10282C00C3F89421C3F89821C3F89C2162B6BFF376
:10283C004F8FBFF36F8F08BD00E100E0084B9B6822
:10284C0083420BD1EFF3058343B1064B5A6842F038
:10285C0080525A605A6A22F400425A6203F0AEBCAB
:10286C00F00B002400ED00E023498A6882F8BDE0FB
:10287C004FF030001044EFF3098C80E8F01F1EF08D
:10288C00100F03D102F17C0080EC108A102080F331
:10289C001288BFF36F8F194F4FF000668A698A60F8
:1028AC003E60106F164C206092F9BDE0506F002313
:1028BC00536780F311881EF0100F03D00023E1EE54
:1028CC00103A03E002F17C0090EC108AEFF31483D1
:1028DC0023F0040383F31488BFF36F8F04B5104601
:1028EC0000F054F9BDE8044002F1300090E8F01F0C
:1028FC008CF3098870470000F00B002404ED00E015
:10290C00E00800241EF0040F0CBFEFF30880EFF377
:10291C000980816911F8021C0229FFD001B57246A9
:10292C0005F0F1FE01BD00BF00B2002807DB01235A
:10293C00410900F01F00024A834042F821307047E1
:10294C0000E100E000B2013100284FEA0111C9B2E8
:10295C0006DB00F1604000F5614080F80013704721
:10296C0000F00F00014B1954704700BF14ED00E04C
:10297C00044B054A23F07F039360BFF34F8FBFF3E3
:10298C006F8F70470004020800ED00E008B5FFF7F8
:10299C00EFFF104BD3F8882022F47002C3F8882084
:1029AC00D3F8882042F4A002C3F888204FF04042AC
:1029BC00C3F83422BFF34F8FBFF36F8F0023E1EEC8
:1029CC00103A02F049FE03F01FFD00F0B5F802F0DA
:1029DC008FFE00BF00ED00E042F8203C203A009B47
:1029EC0009495360019B21F001019360029B9161A5
:1029FC00D3604FF08073D3610023026543674FF4BB
:102A0C007D43C0F8BC3070476D150208037B13F092
:102A1C00020F124B03D190F8BD20D20611D45A6B81
:102A2C0042F080425A63D0F8BC3019075CBF43F0C7
:102A3C000803C0F8BC30037B43F00203037380200F
:102A4C0070475A6B22F080425A63D0F8BC301A0798
:102A5C0044BF23F00803C0F8BC30F0E700EF00E0FF
:102A6C00094A0346906870B113F1160F006E05D039
:102A7C00A0F180029A4205D8834203D2814228BF3A
:102A8C000020704700207047F00B0024104B9B680F
:102A9C0083421AD1EFF30580B8B9EFF311811022FC
:102AAC0082F31288BFF36F8F1A7B22F002021A7323
:102ABC00EFF3148323F0040383F31488BFF36F8FB5
:102ACC0081F31188BFF36F8F70476FF0150070475B
:102ADC00F00B002415460E46002208B5E1EE102A34
:102AEC00EFF3148222F0040282F31488BFF36F8F89
:102AFC00BFF36F8F0B4A0C4B9060026F1A6000F0A3
:102B0C0045F82C4686F309880020044B984720464C
:102B1C00002100220023024C204700003D870208C0
:102B2C006D150208F00B0024E0080024014B102264
:102B3C001A61704700ED00E0002304481021C21810
:102B4C000133A32B82F80013F9D1704700E100E0A8
:102B5C0008B5EFF30583064A103B02EBC30152F8AC
:102B6C00330049688847BDE80840FFF7B3BB00BF96
:102B7C00409D0208024B0121024A034800F090B824
:102B8C0000000524000000244CA8020810B50446DF
:102B9C00FFF73CFF03460648226E0121D21AC0E91A
:102BAC000023044B8360BDE8104000F083B800BFE5
:102BBC00E408002400000B1508B503461048D0F8B3
:102BCC009020C2F30722013A934207D90D48012104
:102BDC000D4A05F0CFFC6FF0150008BDC0F8983019
:102BEC000A6822F01F021A4342F01002C0F89C201F
:102BFC008A6842F00102C0F8A0201846EDE700BF39
:102C0C0000ED00E070A30208F0B40208F0B50E4627
:102C1C0085B01F4604460025B5420DDA606810B336
:102C2C0097B1431E18420AD0104A2B460121104876
:102C3C0005F0A0FC6FF01502104605B0F0BD7F2822
:102C4C00F2D921680B42EFD1236801A9019305F059
:102C5C0083FDA3680343D0B20393FFF7ADFF10F1DC
:102C6C00160FE7D0421C01350C34D5E716B5020817
:102C7C0070A30208044B0522C3F89420BFF34F8FB6
:102C8C00BFF36F8F704700BF00ED00E0BFF35F8FA5
:102C9C00024B0022C3F89420704700BF00ED00E007
:102CAC0010B5034C01232278FFF7B0FF207010BD44
:102CBC00230C00240B4A08B500231278FFF7A6FF5B
:102CCC0010F1160F07D0084A0021D2F89030C3F348
:102CDC000723984200DB08BDC2F898000130C2F807
:102CEC00A010F2E7230C002400ED00E058485949ED
:102CFC002DE9F043D0F8903085B00D68C3F307236D
:102D0C009D4200F2A180FFF7C1FF49680022954265
:102D1C0001F10C011AD1504C6846504F2570FFF749
:102D2C001FFA00250646DFF83881DFF83891AE42ED
:102D3C001FD1237800204649D1F89020C2F30722F6
:102D4C0093427BDB0020FFF795FF4CE0C0F8982006
:102D5C0051F80C3C23F01F031343013243F01003D2
:102D6C00C0F89C3051F8043C43F00103C0F8A0308B
:102D7C00CDE700984FEA051C00EB0511CB683B40F2
:102D8C00B3F5000F44D00AD8B3F5001F2ED0B3F51D
:102D9C00800F34D0B3F5801F10D00135C7E7B3F1E5
:102DAC00807F3ED0B3F1007FF7D150F80C308868AB
:102DBC0005F0D2FC4A6840F4802009E050F80C3051
:102DCC00886805F0C9FC40F088504A6840F430200F
:102DDC00039001A92078CDE90123FFF7EDFE00282F
:102DEC0028DA6FF0150005B0BDE8F08350F80C3010
:102DFC00886805F0B1FC4A6840EA0800E8E750F83A
:102E0C000C30886805F0A8FC4A6840EA0900DFE746
:102E1C0050F80C30886805F09FFC4A6840F08270CE
:102E2C00D6E750F80C30886805F096FC4A6840F0FC
:102E3C008870CDE7237801332370AEE7C1F8983062
:102E4C000133C1F8A00077E74FF0FF30CBE700BFAC
:102E5C0000ED00E078A70208230C00240000F0FF2E
:102E6C000000081100000206F0B587B007460E46B8
:102E7C0014460021102268461D4606F0E7FB02238B
:102E8C002A4621468DF802306846044BCDE904767B
:102E9C00019303F0AFFD07B0F0BD00BF85870208BA
:102EAC0008B5024B1B689847002008BDF0080024A9
:102EBC00034B044A1860937843F0020393707047F5
:102ECC00F0080024180000240649074821F00701E7
:102EDC00C1F1105208B502F5A02204F071FF0020D8
:102EEC0008BD00BFD7210024F4080024044B03EBD9
:102EFC0040000023013320F8022B9942FADC704782
:102F0C00680000242DE9F84306464FF00009114FE4
:102F1C004FF00108347854FA89F5284600F0A6F8E9
:102F2C0070B1284600F0C8F857F8353043B14C441E
:102F3C0007EBC50504F01F04696808FA04F098470C
:102F4C0009F1010972785FFA89F39A42E2D2BDE87D
:102F5C00F88300BF00090024034680B1B0FA80F268
:102F6C00C2F11F02D2B2074931F912004FF0B04240
:102F7C00D2F880100B43C2F88030FFF7D5BCFF228B
:102F8C00F1E700BF6800002430B5B0B1B0FA80F3AF
:102F9C00C3F11F03DBB20B4850F833408C4204D111
:102FAC0000EBC3056D68954205D044B940F8331069
:102FBC0000EBC3004260002030BDFF23EBE76FF055
:102FCC000F00F9E70009002460B1B0FA80F3C3F1F7
:102FDC001F03DBB2044A002142F8331002EBC30298
:102FEC0051607047FF23F5E70009002400F003024D
:102FFC000F23043292009340094A43EA900000F0F8
:10300C000303023352F82320030C93FAA3F3B3FA0D
:10301C0083F302EA104003F01F03D840704700BF4F
:10302C000004005813B50E4C204606F05FF940B969
:10303C000C4801210C4A05F094FA6FF0120002B012
:10304C0010BD0223F422CDE90023A3681B681BB139
:10305C00694620469847F2E76FF05700EFE700BF4C
:10306C00E09A020850A3020847B5020800F01F02BC
:10307C0001215F2801FA02F208B5034605D90C4874
:10308C000C4A05F077FA002008BD1F284FF0B0411C
:10309C0006D8D1F888309A430CBF01200020F3E702
:1030AC003F2802D8D1F89830F5E7D1F8A830F2E7EC
:1030BC0050A3020866B5020800F01F0201215F2828
:1030CC0001FA02F208B5034606D90B480B4A05F083
:1030DC0051FA6FF0150008BD1F284FF0B04103D80E
:1030EC00C1F888200020F6E73F2802D8C1F89820C4
:1030FC00F8E7C1F8A820F5E750A3020866B5020866
:10310C002DE9F04F5D881F469B8887B001358846B6
:10311C009246BDF844901D44FB881D44109B002B27
:10312C0000F0C480B9F57A7F80F0C080836805A96F
:10313C009B6A9847002840F0BC80B9F1000F0AD177
:10314C005D4B109A9A4239D85C4B40F26B399A42DB
:10315C0088BF4FF44879059B0093109B5D43009BFF
:10316C00B3FBF5F5BAF808309D4238BF1D46109BED
:10317C0003FB05FB6FF0004301933B89AB4220DA64
:10318C000198B8F80630B8F804205B08934228BFC1
:10319C001346A8F80030BAF80020934203D93A88B5
:1031AC009A4228BF1A466FF00043A8F800209842B4
:1031BC0008BF6FF0850007B0BDE8F08F40F2EE2934
:1031CC00C9E7009BB3FBFBF00BFB10333BBB4FF48D
:1031DC007A7600FB09F281B27B88B7F804E003939E
:1031EC000EEB0304BAF804C0BAF80230A4B2B2FB76
:1031FC00F6F28A1ABAF8066092B20296B24212D964
:10320C00FE88964228BF16464A1E921B92B29442E2
:10321C000BD20E1BFA88013EB6B2B24210D2109BF2
:10322C0001359B44A9E7029EEEE70CEB0304A4B224
:10323C00944232D9091B029A01398EB2B242EED8AD
:10324C00B3EB540F4FEA540203D2039B934228BFB3
:10325C001346E21A92B2964521D2A4EB0E037246A3
:10326C009BB24FF47A7104FB01140199B4FBF0F496
:10327C00A14534BFA4EB0900A9EB04008842CED2CF
:10328C00A8F80230A8F80420A8F80660A8F808509E
:10329C0000283FF476AF0190C1E71446D0E794457F
:1032AC0082BFA4EB0C0362469BB2DAE76FF0150009
:1032BC0081E76FF004007EE700350C0020A10700C9
:1032CC002DE9F04788B01E460546904602AFD0F86F
:1032DC0008A00C46BB6B31B362790968D20706D5DE
:1032EC00B1F1005F25D3274C1D20082305E0B1F573
:1032FC00006F1ED3244C0B2003236D468CB002AA06
:10330C00C2E907034FF40073204E51621385204B22
:10331C00C2E9056442F8103F00234FF451511D4897
:10332C00FEF75EFCAD466FF015001837BD46BDE8E4
:10333C00F087E3B907F1040919460122484606F063
:10334C0031F8154BCDF80490424600932146DAF83B
:10335C0014A033462846D0470028E6D14FF0FF3260
:10336C004FF0FF33484602F0EFFB7869DDE7FA6B6C
:10337C0021462846CDE900324246DAF8149033460D
:10338C00C847D2E7A6B50208AFB50208B8B502081F
:10339C000600000128A3020835890208F8B500AF21
:1033AC00856841B33BB31C7A1E6814F0010F5C684E
:1033BC0025D0B6F1005F02D2B4F1005F29D31D21F4
:1033CC00154808236D468EB06A46C2E90713C2E958
:1033DC0009634FF40073DFF850C0D46213860F4BAF
:1033EC00C2E905C042F8103F002344F240410C48AA
:1033FC00FEF7F6FBAD466FF01500BD46F8BDB6F511
:10340C00006F02D2B4F5006F03D30B2105480323E0
:10341C00D8E7AC69A047F0E7A6B5020808000001A0
:10342C0028A30208AFB50208E5B5020873B5144627
:10343C001E4682683032074D8368AC4203F13A0372
:10344C0005D8CDE90046FFF75BFE02B070BD6FF00A
:10345C001500FAE740420F0073B514461E46826809
:10346C004832074D8368AC4203F1520305D8CDE9CD
:10347C000046FFF745FE02B070BD6FF01500FAE78D
:10348C0000127A0037B543680D469B691B68984754
:10349C00044630B1044A2B4600900121034805F044
:1034AC0073F8204603B030BD32B6020830A30208D0
:1034BC0037B543680D469B695B689847044630B145
:1034CC00044A2B4600900121034805F05DF8204684
:1034DC0003B030BD55B6020830A302082DE9F04FF9
:1034EC0099B0054617469B4643684822884606A86D
:1034FC000021D3F81C9006F0A9F803AA39462846F7
:10350C00FFF7C0FFC0B9DFF844A1039E730613D0C8
:10351C00C6F3052604AA0823284606EBC60108EBC9
:10352C00C10189B2019105F02DFA0199024630B121
:10353C004249434805F03CFA19B0BDE8F08F9DF8BC
:10354C001630C3F3030003F00F028DF81C009DF836
:10355C001300840642BF9DF81D4044F002048DF810
:10356C001D409C0642BF9DF81D4044F004048DF89C
:10357C001D40DB0642BF9DF81D3043F008038DF85B
:10358C001D3004069DF8174048BF9DF81D3004F00F
:10359C007F0444BF43F010038DF81D3043061FD544
:1035AC00049BC3F31C0306939DF81D3043F00103E9
:1035BC008DF81D301AF80230402B39D89DF81D209B
:1035CC00900713D493B10333083108AA284603F4A7
:1035DC00FE7389B205F0D6F9024638B11949A8E74D
:1035EC00BDF81230C3F38A030693E3E79DF81D3050
:1035FC0022B2E400D9074CBFD9F80830D9F804300E
:10360C001C4453F83230626813B106A92846984717
:10361C00324659462846FFF74BFF00288CD103AAA7
:10362C0039462846FFF72EFF00283FF46EAF83E79C
:10363C00054A0121024805F0B9F9E9E779B6020813
:10364C0030A30208A0B60208C5B60208FEBA0208EA
:10365C002DE9F341066905464FF0FF324FF0FF3379
:10366C001036304605F0A9F901AA18212846FFF7B3
:10367C0009FF044648BB019A1821284622F0100283
:10368C000192FFF715FF0446F8B901F08DFD01AA70
:10369C00074618212846FFF7F5FE0446A8B9DFF8BF
:1036AC004C80019B1B0710D501F07EFDC01B4045D3
:1036BC0012D9019A1821284642F010020192FFF704
:1036CC00F7FE041E08BF6FF00A04304605F077F9C8
:1036DC00204602B0BDE8F08101AA18212846FFF768
:1036EC00D1FE0028DDD00446EFE700BFC03B470306
:1036FC0070B5046905460E4623792BBB10344FF088
:10370C00FF324FF0FF33204605F057F9F38832882B
:10371C002846013B3189013A03F07F03013943EA22
:10372C004263B288013A120202F47F421343084A00
:10373C0002EA01421C211A43FFF7BAFE0546204655
:10374C0005F03DF9284670BD6FF00F05FAE700BF94
:10375C000000FF012DE9F74FD0F810800546D0F896
:10376C0004A098F80430002B6CD1DAF8000078B182
:10377C008368D8F800101B689847044640B102468D
:10378C003249334805F014F9204603B0BDE8F08FF8
:10379C002E694FF0FF324FF0FF331036304605F0F4
:1037AC000CF901AA18212846FFF76CFE044678B1E3
:1037BC00304605F004F926482246264905F0F8F86B
:1037CC00DAF800000028DFD083685B689847DBE7F5
:1037DC00019A1821284622F001020192FFF768FE97
:1037EC0004460028E4D105F0F0FE01AA07468946FC
:1037FC0028461821FFF746FE04460028D8D140F28F
:10380C00E93B019BDB0708D4304605F0D8F8002CC7
:10381C00D1D1012388F80430B6E705F0D6FEC01BE1
:10382C0061EB0901584571F1000108DA01AA182170
:10383C002846FFF727FE0028E3D00446E4E76FF0A4
:10384C000A04E1E76FF077049EE700BFD6B60208E2
:10385C0030A3020800B7020807292DE9F34180467E
:10386C000D4606690AD96FF085040A462A482B4989
:10387C0005F09EF8204602B0BDE8F0813379002BAC
:10388C0047D106F110074FF0FF324FF0FF333846A7
:10389C0005F093F86A4618214046FFF7F3FD0446FD
:1038AC00002832D101AA10214046FFF7EBFD044657
:1038BC0058BB009BE807404649BF43F0800323F008
:1038CC0080030093019B54BF009343F01003009AB4
:1038DC0048BF0193A9074FF018014CBF42F02002DA
:1038EC0022F020026B074CBF42F4407222F440726B
:1038FC000092FFF7DDFD044638B9019A10214046CD
:10390C00FFF7D6FD044600B93560384605F057F888
:10391C00B0E76FF00F04ADE730A3020823B702083D
:10392C002DE9F341502101AA04464568FFF7AAFD91
:10393C00002835D11C4F1D4EDFF87480019A12F00F
:10394C0099022DD050212046FFF7B2FD40BB019BC0
:10395C00D80705D5A823A422E98E2046FFF7BEFD83
:10396C00019BD90605D5B823B422298F2046FFF731
:10397C00B5FD019B1A0704D53A460121304605F0E6
:10398C0015F8019B1B0604D542460121304605F073
:10399C000DF801AA50212046FFF774FD0028CDD068
:1039AC0002B0BDE8F08100BF3CB7020830A30208AA
:1039BC0052B702082DE9F04F89B05021044607692F
:1039CC0004AAFFF75FFD002840F09080644E049A33
:1039DC00324000F08B8050212046FFF769FD002813
:1039EC0040F08480049B13F0607F36D0D4F81080B4
:1039FC0005AA63680DF10F012046D3F81C90D8E995
:103A0C0002AB05F07BF840BB9DF80F50BAF1000FEC
:103A1C0004D05B46059A29462046D047032D1CD17D
:103A2C004FF0FF32D4212046FFF742FD0546A0B9E6
:103A3C00824608F1240899F80C309D4259D306AA05
:103A4C0018212046FFF71EFD38B9069A182120468A
:103A5C0022F001020692FFF72BFD049BDD0421D519
:103A6C00D4F80480D4F810A0D8F81C9005AAF4213E
:103A7C002046FFF707FDA8B9059DA80612D0B8F897
:103A8C003C10C5F3042506AA082301EBC50120460A
:103A9C0089B204F077FF0246002841D03149324800
:103AAC0004F086FF049B190408D5304A01212E48E6
:103ABC0004F07CFF07F1240002F012F8049B9A003A
:103ACC0004D52B4A0121284804F070FF049B9B036A
:103ADC0004D5284A0121244804F068FF04AA502187
:103AEC002046FFF7CFFC00283FF471AF09B0BDE8CA
:103AFC00F08FD9F80030EA0053F835B0BBF1000F65
:103B0C000CD043F835A06FF07101D9F80030204685
:103B1C0013445A68D847404601F0E2FF01358AE762
:103B2C002A46F82120469DF81FB0FFF7C1FC054638
:103B3C000028B7D1D9F800100FFA8BF001EBCB03AA
:103B4C0051F830B05A6841F8305001920AF1240013
:103B5C0001F0C6FF019A29462046D84786E700BFE8
:103B6C000090823B68B7020830A302088EB70208A7
:103B7C00A3B70208BEB702082DE9F04F15460A7923
:103B8C000F46D0F804A00F2A11460646046928BF38
:103B9C000F217B4889B0DAF81C9010F801800021C5
:103BAC00CDE9061179798801C1F3400C0F2900F099
:103BBC00400040EA4C10C1F3C00C8DF81B0002F021
:103BCC000F0060F07F0040EA0C10C1F3800C40EA5B
:103BDC004C108DF81E000AD90A466A486A4904F04E
:103BEC00E7FE6FF0850B584609B0BDE8F08F2068F2
:103BFC00400708D411F00C0F05D0644A012161482C
:103C0C0004F0D4FEEDE7B8F1400F0AD94023604A26
:103C1C0001215C480093434604F0B6FC6FF0150B91
:103C2C00E1E7490706D50F2A08D95A49554804F047
:103C3C00BFFEF3E7082A01D95749F7E72279039326
:103C4C00002A00F0948005AA44213046FFF71AFCA4
:103C5C0083460028C7D1059A100600F18B8004F129
:103C6C00240302932A46DDE9020301F06DFF83462B
:103C7C00002840F0828034344FF0FF334FF0FF3295
:103C8C00204604F09AFE99F80C305B452EDC4FF080
:103C9C00FF357B7930463A68D907BAF83E108DF873
:103CAC001F504BBF069BBDF81A3062F31C0362F326
:103CBC008C0306AA4CBF0693ADF81A3005EBC5036E
:103CCC00DB009BB219440393082389B204F062FE13
:103CDC008346A8B1024631492A4804F069FE2046C1
:103CEC0004F06DFE029801F0FBFE7CE7D9F8002091
:103CFC005D4652F83B20002ACBD00BF1010BC4E7F8
:103D0C007B799B0716D4B8F1000F13D0BAF83E207C
:103D1C0008F1030303993046083203F4FE7311448F
:103D2C0007F1080289B204F035FE834610B1024651
:103D3C001B49D1E7D9F80030D021129A304643F80C
:103D4C003520EA00D9F800301344139A5A60012246
:103D5C00AA40FFF7ADFB834628B1D9F8003000210B
:103D6C0043F83510BBE7204604F029FE3BE76FF023
:103D7C00720B38E76FF0710B35E76FF00A0B32E717
:103D8C00FEBA020830A30208D9B70208FCB7020831
:103D9C0027B8020857B8020879B802089BB802087D
:103DAC00C5B802082DE9F347884619685B68914647
:103DBC002C4A0546C3F30A03066902EA0142D0F80D
:103DCC0004A043F000431036DAF81C7000241343AF
:103DDC0030464FF0FF3201934FF0FF3304F0EDFD0E
:103DEC007B7BA3420ADC204A022120486FF01B0592
:103DFC0004F0DCFD304604F0E2FD2EE07A6852F867
:103E0C00342072B10134ECE73046254604F0D7FD7E
:103E1C007B6843F834807B6803EBC403C3F80490DD
:103E2C001BE004F001039DF807202846013363F3DF
:103E3C00C50204238DF807200DEB0302BAF83210EB
:103E4C0001EB840189B204F0A5FD05460028DBD006
:103E5C002A460749054804F0ABFD284602B0BDE8E8
:103E6C00F08700BF0000FF0719B9020830A3020851
:103E7C00EDB802082DE9F74F1C7A0546D0F804B0CE
:103E8C008846012C91469C46DBF81C600AD96FF0E1
:103E9C00850522463749384804F08AFD284603B088
:103EAC00BDE8F08F002C3DD000241B680769CDF8CD
:103EBC000340009A10378DF8074063F31C02DCF8BE
:103ECC0004303846009223F06043019A43F00043DB
:103EDC0002F0005213434FF0FF3201934FF0FF33C7
:103EEC0004F06BFDB37B9C420ADB244A022122487E
:103EFC006FF01B0504F05AFD384604F060FDCDE769
:103F0C00B26852F8342092B10134ECE738462546B9
:103F1C0004F055FDB36843F83480B3685344C3F8D8
:103F2C00049023E003B0BDE8F04FFFF73BBF04F073
:103F3C0001039DF80320BBF83410284601334FEAE7
:103F4C00C40A01EBC40163F34712082389B28DF84C
:103F5C0003206A4604F01EFD05460028D6D02A46EA
:103F6C000749054804F024FD002D97DB737B1D44A5
:103F7C0094E700BF39B9020830A302085DB9020802
:103F8C00EDB802082DE9F0410C1ED0F8048005466E
:103F9C000769D8F81C6006DA224625492548BDE891
:103FAC00F04104F005BD10374FF0FF324FF0FF33F6
:103FBC00384604F002FD727B944222DBA21AB37BDA
:103FCC00934208DC1A491B4804F0F2FC3846BDE861
:103FDC00F04104F0F4BCB3680021284643F83210D9
:103FEC00B36803EBC2035960B8F8341001EBC2019B
:103FFC00082289B204F0D6FC02460028E6D00E490D
:10400C00E1E773680022284643F83420736803EB19
:10401C00C4035A600422B8F8321001EB840189B24F
:10402C0004F0C0FC02460028D0D00449CBE700BF06
:10403C007DB9020830A3020898B90208C4B9020875
:10404C002DE9F0470769064644683B79D4F81C8093
:10405C00002B41D04FF47A72002304F0B2FC0546D9
:10406C0048B16FF004051E4A01211E4804F09EFC65
:10407C002846BDE8F087206858B183685B6898478C
:10408C00044630B1024618491648254604F090FC07
:10409C00EEE70024304604F06AFD2437A14607F809
:1040AC00204C98F80C309C42E2D2D8F80030E20058
:1040BC0053F834A0BAF1000F0CD043F834906FF0E1
:1040CC007201D8F80030304613445A68D04738464D
:1040DC0001F006FD0134E4E76FF07705C8E700BF97
:1040EC00F0B9020830A302080ABA0208F8B504466F
:1040FC000F4616464568FFF7ABFA38B1424A4348BB
:10410C00012104F053FC6FF00400F8BD4FF47A72F7
:10411C000023204604F055FC08B13D4AEFE7204649
:10412C00F61B04F024FD6A8E6B8C4FF6FC77324440
:10413C0084211B0420463A4003F47F031A43FFF703
:10414C00B7F90028E1D1AA8E8821AB8C20463244E5
:10415C001B043A4003F4FE031A43FFF7A9F90028A5
:10416C00D3D1EA8EA021EB8C204632441B043A407A
:10417C0003F4FE031A43FFF79BF90028C5D12A8FDD
:10418C00B0212B8D204632441B043A4003F4FE032D
:10419C001A43FFF78DF90028B7D16A8FAC2120465E
:1041AC0032443A40FFF784F90028AED1AA8FF021AF
:1041BC00AB8D204632441B043A4003F47C131A4363
:1041CC00FFF776F90028A0D1EA8FC021EB8D2046AD
:1041DC0032441B063A4003F07C531A4342F08042AF
:1041EC00FFF766F9002890D10722C8212046FFF777
:1041FC005FF9002889D1204640F27772BC21BDE8D6
:10420C00F840FFF755B900BF35BA020830A30208D1
:10421C00F0B90208F0B5002389B045680446066978
:10422C00EF69ADF81030ADF81C30CDE90233CDE9B3
:10423C00053306F1100005F0AEF806F1340005F078
:10424C00AAF83A7B114606F1240005F0ABF8286871
:10425C0050B105F04BF838B9514A0121514804F0DE
:10426C00A5FB6FF012000AE02046FFF7F1F940B110
:10427C004D4A4C48012104F099FB6FF0040009B041
:10428C00F0BD4FF47A720023204604F09AFB08B17B
:10429C00464AEEE7204604F06AFC01AA18212046A3
:1042AC00FFF7F0F80028EAD1019A1821204622F4F1
:1042BC0069720192FFF7FCF80028E0D101AA1021E5
:1042CC002046FFF7DFF80028D9D1019A10212046AB
:1042DC0022F010020192FFF7EBF80028CFD101AACF
:1042EC0080212046FFF7CEF80028C8D1019A802102
:1042FC00204642F02B020192FFF7DAF80028BED1DB
:10430C00EA682B8A02A92046FFF790F8163001D1F3
:10431C00274AAEE76A696B8A05A92046FFF79CF825
:10432C00163001D1234AA4E702A9204604F000FB71
:10433C00024620B120491B4804F03AFB91E705A93D
:10434C00204604F008FB024608B11C49F3E71C4A5E
:10435C00542120460192FFF7ABF800288FD1992207
:10436C00582120460192FFF7A3F8002887D1032299
:10437C005C2120460192FFF79BF800287FF47FAF69
:10438C004FF0FF32E02120460192FFF791F8002810
:10439C007FF475AF01462A6C204604F003FB6EE7F0
:1043AC004FBA020830A3020835BA0208F0B9020865
:1043BC0069BA02088BBA0208B7BA0208D5BA020861
:1043CC0099908203034608480A46816810B4CC6869
:1043DC0024B1194623465DF8044B18476FF057007B
:1043EC005DF8044B704700BFE09A020837B543688C
:1043FC000C465D6C194804F079FF40B9184801214E
:10440C00184A04F0AEF86FF0120003B030BDD5E9D5
:10441C00053001A9012B0CD90830FFF7D3FF002878
:10442C000DDA114A0E48012104F09BF86FF00400DC
:10443C00EBE7FFF7C7FF002801DA0C4AF2E70C4B59
:10444C00019A5B6803F47023B3F5803F02D200201D
:10445C002260DAE7DB0BB2FBF3F2F8E7E09A020832
:10446C0038A3020817BB020836BB020862BB02085D
:10447C0000A800402DE9F043436885B005460021B3
:10448C005F6C03AA386904F086FD041E07DB039BEE
:10449C0000221979186800F0EFFA044648B13A4A3C
:1044AC0023460121394804F065F8204605B0BDE8E3
:1044BC00F0836B685E6C4FF0FF330393DFF8E4809E
:1044CC00404604F013FF38B9314A01212F4804F05B
:1044DC0048F86FF01204E8E77369B169012BD8F85A
:1044EC00089025D9D9F81830083153B122464046E6
:1044FC009847041E08DA274A0121244804F031F8B1
:10450C00D3E76FF05704F6E7B06903A90830FFF75B
:10451C0059FF044608B1204AEEE7039B1F4A934219
:10452C0006D90121009219481D4A04F02DF8D0E754
:10453C00D9F80030B1692BB11A489847044620B11C
:10454C00194AD9E76FF05704FAE7337F53B128467D
:10455C0004F00DFB337F154ADB0303F4702343F0A7
:10456C00400353602846D7E90112FFF7BFFD04460C
:10457C0000289AD12846FFF74DFE0446002894D116
:10458C00FB68984791E700BF8EBB020838A302086E
:10459C0017BB0208ACBB0208D6BB02084059730714
:1045AC00F1BB0208E09A02081EBC020800A80040F9
:1045BC00064B1B6903F03803102B05D0182B04484D
:1045CC0018BF0020400870470248FBE7004402581F
:1045DC008055C82000127A00314B10B518680B8832
:1045EC00C3F30B030D2B2CD813B96FF0850027E008
:1045FC00013B0C2BF9D801A050F823F07B460208A4
:10460C003D460208814602089B460208874602087E
:10461C00F7450208F74502088B4602088F46020848
:10462C0093460208974602089746020897460208E6
:10463C004FF4004010600B68B3F5805F29D2002066
:10464C0010BDD42B0FD003F62873C3F30B031C2B14
:10465C00CBD8012404FA03F3124C234205D140F2C7
:10466C0011142342C1D04008E4E78008E2E7FFF7C9
:10467C009FFFDFE74FF4FA40DCE70B48DAE70B4823
:10468C00D8E70B48D6E70B48D4E70B48D2E70B48E2
:10469C00D0E7C3F313330133B0FBF3F01060CEE774
:1046AC005800002400101111006CDC028055C82049
:1046BC0060153208C02A641000B4C40400127A00D9
:1046CC00994B73B5D3F8E02042F00072C3F8E020A8
:1046DC00D3F8E02002F000720192019A1A6842F4B9
:1046EC0080221A601A6842F480321A601A689003A9
:1046FC00FCD55A6F8C4C42F001025A67636F9907D4
:10470C00FCD5FCF755FF236F23F018032367236FA9
:10471C0043F001032367236F9A07FCD5FCF766FF70
:10472C002368814A43F48053236013689B04FCD5AF
:10473C007E4B9A6922F440429A619A699604FCD5A0
:10474C00794B1A6902F03802182A16D11A685507E3
:10475C0006D41A6842F001021A601A685407FCD594
:10476C00714B1A6922F007021A611A6912F0380F9C
:10477C00FBD19A6922F00F029A616B4B1A6822F0F6
:10478C0080721A601A6822F080621A601A6822F02D
:10479C0080521A609A6A22F0030242F002029A6274
:1047AC009A6A22F47C7242F040029A62DA6A22F02F
:1047BC000C02DA62DA6A42F00202DA621A6B22F452
:1047CC00FF7222F0010242F489721A63DA6A22F053
:1047DC000102DA621A6B22F47E421A63DA6A42F43C
:1047EC008032DA621A6B22F4FE0242F440321A630F
:1047FC00DA6A42F40032DA621A6B22F0FE4242F0BC
:10480C0080721A63DA6A42F48022DA621A6842F021
:10481C0080721A601A689001FCD59A6A424C22F494
:10482C007C3242F480529A62DA6A22F0C00242F080
:10483C008002DA62DA6A22F02002DA629A6B22F4DF
:10484C00FF7222F0010242F009029A63DA6A22F046
:10485C001002DA629A6B22F47E429A63DA6A42F4AC
:10486C000022DA629A6B22F4FE029A63DA6A42F44C
:10487C008012DA629A6B22F0FE429A63DA6A42F490
:10488C000012DA621A6842F080621A602368190119
:10489C00FCD5274EFFF78CFE0546B04202D82548C2
:1048AC0000F012FDA369204A23F47063A361A3698D
:1048BC0023F00F0343F00803A361E36923F07003B3
:1048CC0043F04003E361E36923F4E06343F4806362
:1048DC00E361A36923F0700343F04003A361236AEF
:1048EC0023F0700343F040032362236923F0070392
:1048FC0043F003032361136903F03803182BFAD137
:10490C00B54202D90B4800F0DFFC084B9A6922F43F
:10491C0040429A619A699204FCD5074B0020074AE1
:10492C001A6002B070BD00BF004402580048025823
:10493C00BF2A6410C02A6410580000248055C82077
:10494C0008B5074804F0D2FC38B10648FEF7B0FAB7
:10495C000448FCF7FFFD002008BD6FF01200FBE7D8
:10496C00C09C0208754902080A2838B50446074D50
:10497C0004D1AB680D2128465B689847AB68E1B25F
:10498C0002485B689847204638BD00BFC09C0208AF
:10499C002DE9F843D0F804801746D0F810900D4656
:1049AC00D8F808001E4603F03BFFB7F5001F04467D
:1049BC0016D1D8F808402846FEF718FB84420CD1D3
:1049CC00294603F02DFF044603F02FFF2046FEF787
:1049DC00FBFA0021204603F031FF0020BDE8F883EC
:1049EC00B7F5800F20D0B6F1806F19D0B6F1C06F3B
:1049FC0018D0B6F1007F1AD102264A460F4920463C
:104A0C00FEF7C2FAB0B9D8F80810284603F03FFFF9
:104A1C002046314603F012FF2046FEF79DFADCE7F4
:104A2C000126EAE70326E8E76FF08500D6E76FF08A
:104A3C001500D3E76FF00F00D0E700BF478F0208D7
:104A4C0038B50369044658600A4D284604F04EFCFC
:104A5C0060B1AB6861681B680C3123B1284698477C
:104A6C0000EAE07038BD6FF05700F9E76FF0120004
:104A7C00F8E700BFE09A02082DE9F047044600EB86
:104A8C00C10600251C4FB44201D1002014E020685F
:104A9C00C30600F01F0911D4656845F02005C0F36A
:104AAC00481AC0F34420102823D857F82080B8F1B6
:104ABC00000F0DD16FF01200BDE8F087B9F1100FA7
:104ACC0004D0B9F1110FEAD16568E8E73025E6E7C3
:104ADC00404604F00BFC0028ECD04B462A460AF06A
:104AEC000F01404604F03FFA002804F10804CADA2A
:104AFC00E2E76FF01500DFE7F0A90208012912D0F8
:104B0C00022907D089B90068094BC01A18BF0120C7
:104B1C00000370470068064B984214BF4FF4405096
:104B2C004FF400507047002070474FF4005070470E
:104B3C00000C005870B51D460026094B6C0833F864
:104B4C0012203346FBF7BCFD2A460902334641EAE4
:104B5C0010610002201841F10001FBF7B1FD70BD9E
:104B6C0010AC02082DE9F04383B006460C460269EE
:104B7C00436800AF10681D68D9688368DB6843B967
:104B8C00334A0121334803F0ECFC0C37BD46BDE839
:104B9C00F0833A1D98470028F2DB2F4B9D4248D1F9
:104BAC00D7F804800025DFF8C0902346AAB240460F
:104BBC000021FFF7BFFFA0F54070484518D901351B
:104BCC000C2DF2D16D468AB033686A462349D46104
:104BDC00C2E905134FF400731384214B42F8103FC4
:104BEC0000234FF411511B48FCF7FAFFAD46CCE7FC
:104BFC00194EF36A23F00F032B43F362002CC4D03D
:104C0C00184B404633F8152000231946FBF758FD86
:104C1C0022460902630841EA10610002C0184FF0F5
:104C2C00000341F10001FBF74BFDC0F31300F060F2
:104C3C00ABE72B6823F400432B607B68002CA4D0DB
:104C4C0003EB5403B3FBF4F39BB2EB609DE700BFA3
:104C5C0006BD020890A30208000C005834BD0208DF
:104C6C000400000110AC0208FFFC0F002DE9F84312
:104C7C0006460A7940680D463369012A04685F6864
:104C8C006BD0931ED3F1000848EB03084FEA882839
:104C9C006979FFF733FF95F806900346B9F1020FD7
:104CAC005ED0B9F1040F5FD0002A67D0033A012A15
:104CBC005CD94FF48050B3F5805F61D0B3F5405FA1
:104CCC0060D0002B0CBF0123032399424ED14146E7
:104CDC0004F0ADF9814549D1EB795BB3012B53D18C
:104CEC002B4B9C4226D0A3F54C439C4222D003F57F
:104CFC0080639C421ED003F580639C421AD003F55E
:104D0C0080639C4216D003F544439C4212D0A3F519
:104D1C001C439C420ED003F580639C420AD003F5E1
:104D2C001C439C4206D003F580639C4202D0194B75
:104D3C009C421BD123682946304623F00103236093
:104D4C0004F02CFA236843F00103236095E8030078
:104D5C0087E803000020BDE8F8834FF4C06897E7AC
:104D6C003AB94FF08050A6E7002AA2D06FF0850028
:104D7C00F1E7033A012AF9D900209CE710469AE79B
:104D8C000023A2E70223A0E7032BA9D0EEE700BF84
:104D9C0000100140000C00582DE9F04182B006468D
:104DAC004568046900AF7048206004F09FFA38B978
:104DBC006E4A01216E486FF0120403F0D2FB0BE037
:104DCC002068E96883681B685BB96FF05704694A0F
:104DDC000121674803F0C5FB20460837BD46BDE8F6
:104DEC00F08198470446E8B93A1D0021286A04F07E
:104DFC00D2F8041EF0DB7B68002219791868FFF7E3
:104E0C003BFE041EE8DB756833692C68D3F804801C
:104E1C00236823F001032360686804F067FA48B93B
:104E2C00554AC6E7534A0121514803F09AFB002C1E
:104E3C00D2DBD9E7D5E901018368DB6803B1984778
:104E4C0054E8003F43F00C0344E80032002AF7D149
:104E5C004146304604F0A2F92B7D1BB1A36843F008
:104E6C000803A3606B7D1BB1636843F4004363606C
:104E7C00AB7D1BB1636843F480336360EB7D1BB186
:104E8C00636843F4003363602B7E002B5AD03B4B9A
:104E9C009C423DD0A3F54C439C4239D003F5806332
:104EAC009C4235D003F580639C4231D003F580637E
:104EBC009C422DD003F544439C4229D0A3F51C43BE
:104ECC009C4225D003F580639C4221D003F51C4302
:104EDC009C421DD003F580639C4219D0284B9C4208
:104EEC0016D06C4688B033686A462649C2E9051369
:104EFC004FF400739383244B42F8103F00234FF47C
:104F0C00E2511B48FCF76CFEA5466FF0150463E7F5
:104F1C0073681A68936843F48043936023686A7ECD
:104F2C0023F0787343EA425323602368AA7E23F468
:104F3C00F81343EA02432360EB7E1BB1A36843F4EE
:104F4C000043A3602B7F1BB1236843F00053236005
:104F5C00236843F001032360E3699A02FCD5E369FB
:104F6C005B02FCD5002437E7E09A020817BB020865
:104F7C0090A302084BBD02086BBD02080010014053
:104F8C00000C005886BD0208030000014FF0E0231E
:104F9C000F4910B59C691A6908689B6902F4803244
:104FAC000C4934B993B903464AB90A681044C01A7B
:104FBC0010BD002B08BF03460AB9A342F5D90A68F5
:104FCC0002440A604FF0E0221269EEE70446F3E770
:104FDC00E40B0024E00B00240A4B1022002083F881
:104FEC0023204DF2D862084B1A604DF2D762074B62
:104FFC0018604FF0E0235A6198611A6942F0070279
:10500C001A61704700ED00E0E40B0024E00B002473
:10501C00684620F007018D4619B5FFF7B7FF114917
:10502C00114B0868D3E90042001942F10002C3E9B0
:10503C0000020E4A00230B604DF2D863D2E9004106
:10504C00001BB0FBF3F043431B1941F10001C2E913
:10505C00003101F0BFFAFDF73DF9BDE81940854676
:10506C00704700BFE00B0024300600242806002403
:10507C002DE9F041DFF8F08099B1421C0BD14FF0D3
:10508C00E022136923F0010313614FF07F43C8F84A
:10509C000030BDE8F081D8F80060012807DC00275B
:1050AC000BE0431CD8F80060F7D14FF4987040F235
:1050BC0031139842A8BF1846471EEFF311851023F1
:1050CC0083F31288BFF36F8FFFF760FF224C4FF012
:1050DC00E0239969D4E9002380184FF0000243F1D2
:1050EC000003C4E900031D4B1A601D4B1A68831A98
:1050FC002ED44DF2D86C0CFB073303F55643D73343
:10510C00B3FBFCF7131A40F66D520CFB07339342BA
:10511C0038BF1346134A934228BF1346C8F80030D1
:10512C004FF0E022013B906953610023814293616F
:10513C00A1EB0003D4E9001238BF9B195B1842F1B4
:10514C000002C4E9003285F31188BFF36F8FA0E72A
:10515C0040F66D53E2E700BF30060024E00B00245C
:10516C00280600248020FF00E40B002438B5EFF360
:10517C001185102383F31288BFF36F8F084B1C68C3
:10518C00084B1B68E41AFFF701FF85F31188BFF386
:10519C006F8F4DF2D8632044B0FBF3F038BD00BFE5
:1051AC00300600242806002438B5EFF311851023AF
:1051BC0083F31288BFF36F8F044B1C68FFF7E6FE76
:1051CC0085F31188BFF36F8F204438BD300600245F
:1051DC0070B54FF47A734D6806695D438B6833BBC9
:1051EC0074683CBB4FF4FA400023154AA5FB000140
:1051FC00FBF766FA04231946621CB0FBF3F3B3F514
:10520C00805F0ED27D3D0F4AE4B2013B954214D82B
:10521C00062C12D8B3F5805F0FD20020C6E90043EC
:10522C0070BDD3B2144601FA03F39BB2E4E76FF0FE
:10523C008500F5E76FF00B00F2E76FF01500EFE774
:10524C0040420F0083FFF30138B5446802698807B8
:10525C0004D51C48436D43F480234365CB072DD400
:10526C0023684CF6CC41196045F2555123681960FE
:10527C001368216803F007034B6053682168C3F37C
:10528C000B038B6004F0A1F90A220023FBF718FA38
:10529C0005462268D06810F0070003D14AF6AA230D
:1052AC00136038BD04F091F900230A22FBF708FAC9
:1052BC00431B302BEDD96FF01200F2E76FF0850035
:1052CC00EFE700BF0010005C024610B578B14F4903
:1052DC008B6913F440433FD14D484E4C1044A042CF
:1052EC0007D28B6903F44043B3F5404F51D10120F1
:1052FC007CE04948494C1044A04246D948481044E7
:10530C00A04244D947488242886900F4404007D9FA
:10531C00B0F5404FEBD08969012001F440414CE0DD
:10532C00B0F5404F45D1404B1344404A93428CBF9B
:10533C00002301233E490A6822F00F021A430A6037
:10534C000A6802F00F029A425ED0086800F00F0063
:10535C00C01A18BF012049E000232C48816901F4D0
:10536C004041B1F5404F2BD1324933481144814271
:10537C0046D92D49A0F574201144A0F51070814236
:10538C0040D92E498A42D5D9B1E70223E5E701235A
:10539C00E3E78B69002003F44043B3F5004F4FF073
:1053AC00030319D02649274C1144A14226D926497A
:1053BC0018E08969184601F44041B1F5004FF0E757
:1053CC00816901F44041B1F5004F10D11F492048CB
:1053DC001144814214D900201E491D4C1144A14294
:1053EC000CD91D498A4282D80028A3D010BD0C4983
:1053FC001A481144814203D30020D3E70123F3E779
:10540C00022397E7012395E71846A1E700480258C5
:10541C007FA77BF340D2DF03FFC4A7F77F1D2C04CB
:10542C007FE2D3FB801D2C043FA901FC7F14EF030A
:10543C0000200052BF9412F8BF56FE03C056FE0364
:10544C003FF1E9FDBF0E1602C00E1602FF1E0AFA4E
:10545C007FF0FA027F0F05FD80F0FA02C0E1E40054
:10546C0010B50446FCF7ECFA03480121034A03F09B
:10547C0078F8204603F045FF78A30208F5BD020832
:10548C002DE9F843044600AF0D46EFF311881023C5
:10549C0083F31288BFF36F8F0428294AE9468AB038
:1054AC0098BF284B9668117C6A4694BF53F82030FD
:1054BC00254BC2E9073140F2013324489384244B35
:1054CC00C2E9050442F8103F00234FF43151214842
:1054DC00FCF786FBCD4645B1EB69C3F3080323B15A
:1054EC001D4A01211B4803F03CF82EB1304603F055
:1054FC006EFF08B1037803B91848E9468AB06A46CA
:10550C00174BD061C2E9053640F201331384154BB9
:10551C0042F8103F00234FF411510E48FCF760FB8A
:10552C0029462046CD46FFF79BFF88F31188BFF331
:10553C006F8F3046FDF782F9BD46BDE8F88300BF9A
:10554C00F00B002420AB020804BE02081ABE0208AD
:10555C000500000178A3020842BE020812BE020830
:10556C0063BE02080400000138B50A4B53F8204012
:10557C00013053F82050A54200D838BD606830B1D6
:10558C00037FDB0701D403F0C4FE0834F3E7236880
:10559C009847FAE734AB02082A4B0122032070B576
:1055AC00294C86B0294D1A70FFF7DEFF01F044F943
:1055BC000420FFF7D9FF26463034AE4210D3224CDC
:1055CC0000F002FD224EAC4226D300F011FDFBF799
:1055DC0069FA204A137B23F00103137306B070BDE4
:1055EC0054F80C3C059354F8103C049354F8143CB8
:1055FC00039354F8183C029354F81C3C019354F850
:10560C00203C009354E90A2354E90C0100F0C2FA3F
:10561C0054F8303C5E65CEE7D4E90A23B3F1FF3F82
:10562C0008BFB2F1FF3F05D052EA0301206803D155
:10563C0000F09AFD3034C6E73146183000F03AFFDE
:10564C00F8E700BF240C002458A2020858A2020854
:10565C00CD940208F806002406480021064A08B535
:10566C00121A03F06DFE0548054A0021121A03F0C8
:10567C0067FE08BD28010024280C0024000000202F
:10568C000000002070B5C023144E86B0012203FB2D
:10569C0000660023124D044601931249CDE9042300
:1056AC000F2201EB4021CDE9023218234FF4C072D6
:1056BC0003FB00550C4B3046009500F06BFA737BE6
:1056CC000A4A23F00403EE602C7473734FF40863DE
:1056DC0004FB033313446B6006B070BD3806002422
:1056EC00F00B0024801800245593020800100024AD
:1056FC00BFB50020FFF738FF284B83F30888284DEF
:10570C000024F023274F85F82230EC772C766C762A
:10571C00AC7685F820406B6A43F4E0236B62FDF7AE
:10572C000BF8FDF703FA4FF0FF33AB62EB62FDF7BA
:10573C00DDFA1D4DFDF71EFAFCF7E4F81B4800F0EE
:10574C00A3FA03F0D2FDFBF78BFF0120FFF70CFF50
:10575C000220FFF709FF00F07FFC154B15494FF4B1
:10576C0080629D612846144B009405930123CDE97A
:10577C000144CDE903433B4600F00CFA6A7B064634
:10578C00284622F004026A7303F05DFE2046FFF700
:10579C0079FF3A4631462846FDF79CF980180024DB
:1057AC0000ED00E0A5550208F8060024B807002417
:1057BC00F00B0024801A00242FAF02082DE9F341CE
:1057CC0004460E469DF8200004F10808EFF31187FB
:1057DC00102181F31288BFF36F8F256AE1688D4227
:1057EC0041D22568AC4219D0C5B1284603F0B7FDAB
:1057FC0005F1180003F0BDFEA268002431462869AB
:10580C0003F016FF2846AC6703F01DFE40463946F0
:10581C0000F0B4FB204602B0BDE8F081A268A8B14C
:10582C003146E06903F004FFE369A268134462693E
:10583C009342E36101D12369E361236A00200133C0
:10584C00236287F31188BFF36F8FE4E7A1692369A3
:10585C009942314604BF6369A361A069801AA061B3
:10586C0003F0E6FEE9E752EA03010AD00649404696
:10587C0089680E613946CDE90023224600F0EAFA28
:10588C00C9E76FF02200DCE7F00B0024F7B5044603
:10589C00084604F10807EFF31186102181F31288F2
:1058AC00BFF36F8F216A002939D0A268A16903F078
:1058BC00BFFEA369A2682568134462699342A36181
:1058CC0004BF2369A361AC42236A03F1FF33236253
:1058DC0033D02846002D31D003F041FD05F11800DE
:1058EC0003F047FEA2682969E06903F0A1FEE369B1
:1058FC00A2682846134462699342E36104BF23699A
:10590C00E361236A013323620024AC6703F09BFD3F
:10591C003846314600F032FB204603B0F0BD52EA67
:10592C00030110D009498968086131463846CDE930
:10593C000023224600F08EFAEFE7002086F3118850
:10594C00BFF36F8FE9E76FF02200F7E7F00B00244D
:10595C002DE9F341044617461E46EFF31188102338
:10596C0083F31288BFF36F8FC368334A7BB18068AF
:10597C009168884219D057EA060318D188F3118828
:10598C00BFF36F8F6FF00F0002B0BDE8F08191682C
:10599C0091F90E1001332161E3609368A36088F3E1
:1059AC001188BFF36F8F0020EEE72169F2E791F9C0
:1059BC000E106FF07E0290F90E309942A8BF194676
:1059CC009142B8BF11468B422DDD03F0DCFC05463D
:1059DC00224641461948CDE9007600F03BFA0028F2
:1059EC00E1D0EFF31186102383F31288BFF36F8F8E
:1059FC00A068D0B1236821699C420AD04BB193F9BD
:105A0C000E309942A8BF19466FF07E039942B8BF79
:105A1C00194603F0B8FC40B13146084800F0AEFA24
:105A2C006FF00A00B0E70025D2E7002DF4D186F321
:105A3C001188BFF36F8FF3E7F00B0024250C0024C3
:105A4C00F8B583680546002B3FD0234A92689342F1
:105A5C003ED1C368012B03D9013BC3600020F8BDC4
:105A6C00EFF31187102383F31288BFF36F8F016953
:105A7C00806803F088FC2C68AC4207D10023C5E990
:105A8C00023387F31188BFF36F8FE7E7002CF5D053
:105A9C00002604F11800D4E9003213605A60637BCD
:105AAC00A66023F00203C4E90066637303F061FD92
:105ABC00AC6094F90E3020462B61A66703F0C3FC52
:105ACC003946064800F05AFAC8E76FF01500C6E7E9
:105ADC004FF0FF30C3E700BFF00B0024250C00246F
:105AEC0070B5EFF31186102383F31288BFF36F8F19
:105AFC000468A0421AD0CCB1002504F11800D4E9F6
:105B0C00003213605A60637BA56023F00203C4E982
:105B1C000055637303F02DFD2046A56703F093FC3D
:105B2C0031460848BDE8704000F028BAD0E902328E
:105B3C009A4218BF0133836086F31188BFF36F8FCD
:105B4C0070BD00BF250C002413B5EFF31181102498
:105B5C0084F31288BFF36F8F846844B1013C846076
:105B6C0081F31188BFF36F8F002002B010BD52EA91
:105B7C00030406D181F31188BFF36F8F6FF00F0010
:105B8C00F3E7CDE900230246014800F063F9ECE7A6
:105B9C00250C002407322DE9F04322F0070285B0D2
:105BAC000E461F46109900F15803FF32044601734C
:105BBC00042122F07F0206F1800941737F2AA2F1B1
:105BCC008008C0E916334FF0000383600F98E3732D
:105BDC00A073C4E9063305D883F31188BFF36F8F24
:105BEC00084602DFB51820462946FCF753FB073060
:105BFC000E9B314620F00700C4E91898A0662D1AB8
:105C0C00029320460D9B2A4601930C9B00933B4626
:105C1C00FCF7E2FE00236365044B9B6803B1DB6E6B
:105C2C002846E36605B0BDE8F08300BFF00B002406
:105C3C00F0B5002587B004460595109D04950F9D81
:105C4C0003950E9D02950D9D01950C9DDDE9127637
:105C5C000095FFF79FFFB6F1FF3F08BFB7F1FF3F7D
:105C6C0005D056EA070305D1204600F07DFA204600
:105C7C0007B0F0BD3A46334604F11800014900F074
:105C8C0019FCF4E7CD94020840F201138381002340
:105C9C00C0E91833C366014B98607047F00B0024C1
:105CAC00094A6FF00A0193689967084958674B686D
:105CBC0043F080534B60002383F31188BFF36F8F45
:105CCC009368986F704700BFF00B002400ED00E064
:105CDC0070B590F90D20437B002A36DBD90634D100
:105CEC001B4C63F07F0322464373216A52F81C3F1E
:105CFC00934207D1C0E900210860206211E099426B
:105D0C00F8D01B68002BF5D090F90E5093F90E606B
:105D1C00B542F4D0AE42F2DD5968C0E900310860FA
:105D2C005860E569954200D005B9E568A3685A7BCF
:105D3C00D20604D1DA897F2A01D9AA6932B1AB42E1
:105D4C0002D0284600F008FBA56170BDA361FCE7FA
:105D5C00F00B002438B590F90D200146437B002A46
:105D6C0004DA03F07F03437303F033FB0D4D2A4633
:105D7C00AB6852F81C4F944200D004B9EC688B42CB
:105D8C0007D05A7BD20604D1DA897F2A01D9A269BD
:105D9C002AB1A34202D0204600F0DEFA2346AB61C2
:105DAC0038BD00BFF00B0024B3F1FF3F08BFB2F1C8
:105DBC00FF3F03D00249183000F07CBB704700BF96
:105DCC00CD94020870B590F90D200146437B002A52
:105DDC0004DA03F07F03437303F0FBFA4B7B1C4C98
:105DEC0063F07F0322464B7352F81C3F206A9342A8
:105DFC0007D1C1E900200160216211E09842F8D07E
:105E0C001B68002BF5D091F90E5093F90E60B5423A
:105E1C00F4D0AE42F2DD5868C1E90030016059603F
:105E2C00E569A368954200D005B9E5688B4207D0B7
:105E3C005A7BD20604D1DA897F2A01D9AA692AB100
:105E4C00AB4202D0284600F087FA2B46A36170BD06
:105E5C00F00B0024F8B50E4B0C4611460D4A986811
:105E6C00DDE906671060EFF31182102282F31288CD
:105E7C00BFF36F8F9D68284603F0BDFA2846324663
:105E8C003B46FFF791FF2046BDE8F840FFF708BFFF
:105E9C00F00B0024140C0024F8B50446EFF3118722
:105EAC00102383F31288BFF36F8F437B49B203F047
:105EBC001F02002A0CBF0126002639D103F07F03F4
:105ECC002D4D437303F085FA437B2A46817363F0AF
:105EDC007F03437352F81C3F934227D1286AC4E9CD
:105EEC00002004602C620FE09842F8D01B68002B55
:105EFC00F5D093F90EC06145F6D08C45F4DD5968A8
:105F0C00C4E900310C605C60EC69944200D004B9C7
:105F1C00EC68AB689C4202D0204600F01DFAAC61E4
:105F2C0087F31188BFF36F8F3046F8BD286ADEE720
:105F3C009B071ED5856803F04CFA81732B689D4234
:105F4C0009D16B68C4E900531C606C60E8E76A68AF
:105F5C009342F6D01B68002BF3D093F90E2091429C
:105F6C00F5D08A42F3DD5A68C4E9003214605C60F3
:105F7C00D6E78173D4E700BFF00B002449B9EFF3E7
:105F8C00058030B9054B9A699B689A4201D0FFF79E
:105F9C0087BE81F31188BFF36F8F7047F00B00241D
:105FAC00034648B9EFF3058232B9064A9169926803
:105FBC00914201D0FFF774BE83F31188BFF36F8F4A
:105FCC00704700BFF00B0024EFF31181102383F313
:105FDC001288BFF36F8F054B9A68D37B013BD37349
:105FEC0081F31188BFF36F8F704700BFF00B002453
:105FFC0070B5EFF31186102383F31288BFF36F8F04
:10600C00144DAB68DA7B0132DA732A4652F81C4F16
:10601C00944200D004B9EC685A7BD20604D1DA89D8
:10602C007F2A01D9A2692AB1A34202D0204600F0EE
:10603C0093F92346AB6186F31188BFF36F8FEFF3AF
:10604C001180102383F31288BFF36F8FBDE870406B
:10605C00FFF7A6BFF00B0024024B03F11C02C3E9AF
:10606C0007227047F00B002470B5EFF31186102354
:10607C0083F31288BFF36F8F1B4CA168206A0B68E7
:10608C00814214BF1A46002249680B605960A3680C
:10609C00216A2AB9154AC3E900210B6023620CE07E
:1060AC0093F90E0092F90E50A84218D0854216DDD5
:1060BC005168C3E900210B605360E5690B4B9D42AD
:1060CC0000D005B9E568A3689D4202D0284600F0CF
:1060DC0043F93046A561BDE87040FFF7E1BD8A4247
