:020000040800F2
:10000000801B002479230008556000086523000840
:100010006523000865230008652300080000000030
:100020000000000000000000000000006D24000837
:100030006523000800000000D9230008A54000083F
:10004000ED260008ED260008ED260008ED26000844
:10005000ED260008ED260008ED260008ED26000834
:10006000ED260008ED260008ED260008ED26000824
:10007000ED260008ED260008ED260008ED26000814
:1003000090F800F06DE9024520F007016FF0000C55
:1003100010F0070491F820F040F049804FF00004FD
:100320006FF00700D1E9002391F840F000F10800D8
:1003300082FA4CF2A4FA8CF283FA4CF3A2FA8CF310
:100340004BBBD1E9022382FA4CF200F10800A4FA77
:100350008CF283FA4CF3A2FA8CF3E3B9D1E90423CB
:1003600082FA4CF200F10800A4FA8CF283FA4CF302
:10037000A2FA8CF37BB9D1E9062301F1200182FABC
:100380004CF200F10800A4FA8CF283FA4CF3A2FAC2
:100390008CF3002BC6D0002A04BF04301A4612BAD0
:1003A000B2FA82F2FDE8024500EBD2007047D1E9D3
:1003B000002304F00305C4F100004FEAC50514F062
:1003C000040F91F840F00CFA05F562EA05021CBF33
:1003D00063EA050362464FF00004A9E7000000004D
:1003E000A2EB0300704700BF02780B78012A28BFF8
:1003F0009A42F5D16DE9044540EA0104CDE902676E
:100400006FF0000C4FEA447212B380EA010414F05A
:10041000070F6AD100F0070420F0070004F003057D
:1004200021F007014FEAC505F0E8042314F0040F9A
:10043000F1E804670CFA05F462EA040266EA0406CD
:100440000AD063EA0403624667EA0407664603E0EB
:10045000F0E80423F1E8046782FA4CF582EA060426
:10046000A4FA8CF46CBB83FA4CF583EA0705A5FA71
:100470008CF595B950E9022351E9026782FA4CF5EF
:1004800082EA0604A4FA8CF483FA4CF583EA0705A1
:10049000A5FA8CF52543DBD09CB92DBAB5FA85F4C5
:1004A00024F0070427FA04F1DDE9026723FA04F3D4
:1004B00003F0FF0001F0FF01FDE80445A0EB01009F
:1004C000704724BAB4FA84F424F0070426FA04F13D
:1004D000DDE9026722FA04F202F0FF0001F0FF01F9
:1004E000FDE80445A0EB0100704714F0030F3CD178
:1004F00010F0030428D150F8082B51F8083B82FA79
:100500004CF582EA0305A5FA8CF55DB950F8042C88
:1005100051F8043C82FA4CF582EA0305A5FA8CF501
:10052000002DE8D02DBAB5FA85F424F0070423FA9B
:1005300004F122FA04F202F0FF0001F0FF01FDE8ED
:100540000445A0EB010070474FEAC40420F003000B
:1005500050F8082B21F0030151F8083B0CFA04F481
:1005600062EA040263EA0403C9E710F003041AD044
:10057000A1EB040120F00300E40750F8042B06D09F
:100580000FD28B785FFAA2F4E41A06D12BB1CB78A4
:100590005FFAB2F4E41A00D11BB920465DF8104BA3
:1005A000704701F1040150F8042BCC0721F003013E
:1005B00051F8043B48D824D222F07F4482FA4CF50B
:1005C00094EA1325A5FA8CF50AD165B951F8043BD4
:1005D00084EA0204B4EB036F0ED150F8042BEBE76E
:1005E0004FEA132355E035F07F454DD10878FDE8FB
:1005F0000445C0F1000070474FEA126203F0FF03A8
:1006000047E002EA1C4482FA4CF594EA1345A5FA45
:100610008CF50AD165B951F8043B84EA0204B4EBC5
:10062000034F0CD150F8042BEBE74FEA134330E0B3
:1006300015EA1C4528D10B884FEA124229E04FEAFF
:10064000124203EA1C4324E002F0FF0482FA4CF554
:1006500094EA1365A5FA8CF50AD165B951F8043B03
:1006600084EA0204B4EB032F09D150F8042BEBE722
:100670004FEA13630DE015F0FF0F05D10B684FEA49
:10068000122223F07F4304E04FF00000FDE8044510
:10069000704712BA1BBA82FA4CF482EA0304A4FA35
:1006A0008CF5B5FA85F402FA04F203FA04F34FEA82
:1006B0001260FDE80445A0EB13607047844641EAF0
:1006C000000313F003036DD1403A41D351F8043BCA
:1006D00040F8043B51F8043B40F8043B51F8043B1C
:1006E00040F8043B51F8043B40F8043B51F8043B0C
:1006F00040F8043B51F8043B40F8043B51F8043BFC
:1007000040F8043B51F8043B40F8043B51F8043BEB
:1007100040F8043B51F8043B40F8043B51F8043BDB
:1007200040F8043B51F8043B40F8043B51F8043BCB
:1007300040F8043B51F8043B40F8043B51F8043BBB
:1007400040F8043B51F8043B40F8043B403ABDD22A
:10075000303211D351F8043B40F8043B51F8043BCC
:1007600040F8043B51F8043B40F8043B51F8043B8B
:1007700040F8043B103AEDD20C3205D351F8043B5B
:1007800040F8043B043AF9D2043208D0D2071CBF27
:1007900011F8013B00F8013B01D30B880380604650
:1007A000704700BF082A13D38B078DD010F00303C6
:1007B0008AD0C3F10403D21ADB071CBF11F8013B36
:1007C00000F8013B80D331F8023B20F8023B7BE785
:1007D000043AD9D3013A11F8013B00F8013BF9D2B0
:1007E0000B7803704B7843708B788370604670474A
:1007F00053B94AB9002908BF00281CBF4FF0FF3188
:100800004FF0FF3000F00CB8ADF1080C6DE904CEEC
:1008100000F008F8DDF804E0DDE9022304B07047D9
:10082000704700BF2DE9F04786468C460846089E73
:10083000154674461946002B40F0C2808542B2FA34
:1008400082F245D94AB1C2F1200300FA02FC2EFA25
:1008500003F3954043EA0C0C94404FEA154EA8B2BE
:10086000BCFBFEF8230C0EFB18CC08FB00F943EA96
:100870000C43994528D9EB1808F1FF3704D2994564
:1008800002D9A8F102072B44A3EB0903A4B2B3FBDE
:10089000FEFC0EFB1C330CFB00F044EA0344A042B8
:1008A00014D92C190CF1FF3304D2A04202D9ACF1B7
:1008B00002032C44241A43EA07401EB1D44000230B
:1008C00034607360BDE8F0874746DDE76346F1E7D3
:1008D00092BB431B01214FEA154EAFB2B3FBFEFCA6
:1008E000200C0EFB1C330CFB07F840EA0343984531
:1008F00062D9EB180CF1FF3004D2984502D9ACF163
:1009000002002B44A3EB0803A4B2B3FBFEFC0EFBD6
:100910001C330CFB07F744EA0344A7424ED92C19B9
:100920000CF1FF3304D2A74202D9ACF102032C44EC
:10093000E41B43EA0040C0E7C2F1200320FA03F1C0
:10094000954090402EFA03F303434FEA154EAFB2A1
:10095000B1FBFEFC0EFB1C10190C0CFB07F841EA66
:100960000041884504FA02F422D969180CF1FF30DD
:1009700004D2884502D9ACF102002944A1EB080158
:100980009BB2B1FBFEFC0EFB1C110CFB07F743EA0C
:1009900001439F420ED9EB180CF1FF3104D29F4264
:1009A00002D9ACF102012B44DB1B41EA004192E782
:1009B0006046E3E76146F7E76046A3E76346B7E7CB
:1009C000834206D916B9002108467BE7C6E900E054
:1009D000F9E7B3FA83F78FB9834201D3724508D898
:1009E000BEEB020460EB030301209C461EB900210C
:1009F00068E73846FAE7C6E9004CF8E7C7F1200C8B
:100A0000BB4022FA0CF41C432EFA0CF120FA0CF332
:100A1000B84001434FEA14490EFA07F5B3FBF9F861
:100A20001FFA84FE09FB18300B0C08FB0EFA43EA90
:100A300000439A4502FA07F240D9E31808F1FF3063
:100A400004D29A4502D9A8F102002344A3EB0A0379
:100A500089B2B3FBF9F809FB183308FB0EFE41EA33
:100A600003418E452CD9611808F1FF3304D28E451D
:100A700002D9A8F10203214443EA0040A0FB0298F6
:100A8000A1EB0E014145CE46434602D306D14D456A
:100A900004D2B9EB020E68EB04030138002EA6D095
:100AA000B5EB0E0261EB030101FA0CFC22FA07F32D
:100AB0004CEA0303F940C6E9003198E74046C5E730
:100AC0004346D9E7000000002DE9F04F82469FB071
:100AD00017461C4600250391387810B9284600F0C7
:100AE000A8BD252809D00399D0470028C0F2A185C8
:100AF0007B1C01350593059FEEE71822002110A805
:100B000005F088F97B78252B00F0BC800023791C48
:100B100098469E469C4618460E4611F8012B2B2AF5
:100B200000F0E38000F2DA80202A00F0E180232A3E
:100B300000F0E1802BB19DF8483043F040038DF880
:100B40004830B8F1000F05D09DF8483043F020033D
:100B50008DF84830BEF1000F05D09DF8483043F0C5
:100B600010038DF84830BCF1000F05D09DF84830D7
:100B700043F008038DF8483028B19DF8483043F021
:100B800004038DF848309DF8483003F044014429AF
:100B900003D16FF386138DF848309DF848302A2A28
:100BA0000E9643F080038DF8483040F0A9809DF800
:100BB000493043F001038DF84930731C1A782E2A0E
:100BC0009DF849200CBF0121002161F341028DF8FD
:100BD00049200CD15A1C0E925A782A2A40F0A08043
:100BE0009DF84920023342F004028DF849201A781A
:100BF0006C2A00F0C18000F2A380682A00F0A9806E
:100C00006A2A00F0C2804C2A00F0C78013F8012B3A
:100C1000782A05938DF84B2000F209816D2A00F2A5
:100C2000C980692A00F20381572A00F2E280412A32
:100C300004D0A2F14503022B00F2F98002F0DF029A
:100C40009DF84A300421A2F1410961F302039DF8A5
:100C50004910D9F100028DF84A3042EB090262F3E3
:100C6000C7110A06CBB28DF8491000F11F8103F0BD
:100C70007802182A40F009816FF3C6038DF84930D5
:100C80000023F8E08DF84B30BB1C05939DF84930EC
:100C90009DF84A20DE0702F0070040F1098154F870
:100CA000041B0029049108DA9DF8481041F0040162
:100CB0008DF84810049949420491590740F1008188
:100CC00054F8046B002E80F2FF809DF849306FF3DA
:100CD00041038DF849304FF0FF36F5E02D2A0DD055
:100CE000302A7FF427AF012316E74FF0010C13E7FA
:100CF0004FF0010E10E74FF001080DE701200BE760
:100D00000EA800F0FBFE0E9BB3423FF457AF9DF8D8
:100D100048201390C00F60F341028DF848204DE742
:100D20000EA800F0EBFE9DF848301490C3F340028B
:100D300042EAD07262F341038DF848300E9B56E7C9
:100D4000742A26D07A2A7FF461AF9DF849200621C3
:100D50000CE05A78682A9DF8492006D1012161F3F8
:100D6000C60202338DF8492050E7022161F3C60222
:100D70008DF84920013349E75A786C2A9DF84920BB
:100D800001D10421EBE70321F0E79DF8492005217B
:100D9000ECE79DF849200721E8E7BDF8482022F458
:100DA000F04222F0020242F4804242F00202ADF828
:100DB0004820DFE76E3AD3B201229A4040F28243E4
:100DC0001A429DF8493039D112F0240F61D1D10770
:100DD0002DD503F078039DF84A200321A3F14008A4
:100DE00061F30202D8F100038DF84A2043EB0803B7
:100DF00041E0A2F158010120C9B200FA01F111F459
:100E0000624F7FF41BAF40F6010319429DF8493051
:100E10001AD111F4043F0AD09DF84A2060F302026F
:100E200003F078038DF84A20402B7FF429AF9DF81A
:100E3000483043F001038DF8483021E79DF84A20FF
:100E4000022161F30202EBE79DF84A10022003F051
:100E5000780360F30201402B8DF84A1002BF9DF821
:100E6000481041F001018DF84810632A7FF408AF63
:100E7000003B18BF01239DF84820C2F340010B43FB
:100E800063F341028DF8482000E713F0380FCED10C
:100E9000F6E69DF84A20032113F0780F61F3020271
:100EA00014BF012300238DF84A20E4E70123E2E781
:100EB0009DF948100029B4BF13994FF0FF31FBE6AC
:100EC0009E077FF508AF149E00230428CDE9133355
:100ED0009DF8493007D1990705D49DF9491000299B
:100EE000ACBF06260D2602F00702C3F3C303012A96
:100EF00032D1DA1E042A04D8DFE802F0204545206A
:100F000020002268012B4FEAE271CDE910211BD1AC
:100F10009DF94020D117CDE9102104349DF84820D7
:100F2000069292074FD0059B3A460399504605F02A
:100F300052F80028C0F27D830544DCE554F8042B08
:100F4000D117CDE91021E9E7022BE6D111B242F326
:100F5000C032CDE91012E0E7022A24D1DA1E042AB9
:100F600004D8DFE802F0181010181800012B54F80C
:100F7000042B4FF0000114D0022BCDE91021CDD16C
:100F800092B21092CAE7073424F00704F4E8020191
:100F9000CDE91001C2E754F8042B109200221192FF
:100FA000BCE7D2B2CDE7042A08D1073424F0070405
:100FB000D4E900010834CDE91001AFE7032AADD12F
:100FC00054F8042BDDE79DF84B80B8F1780F3FF61D
:100FD00092ADB8F1570F5CD8B8F1250F00F0A4809E
:100FE000B8F1240F7FF687ADB8F1410F04D0A8F116
:100FF0004503022B3FF67FADDDE91023002BC0F245
:101000004D810699080700F14C81C1F300194FEAA0
:101010004919C3F30A51C3F31303002940F0448173
:1010200052EA030014BF4FF0010C4FF0000CD8023D
:10103000B8F1460F4FEAC22740EA525008BF4FF0BE
:101040006608CDE90C700F4340EAE170384300F0C8
:10105000B681BCF1000F10D01B034FF0000C17033A
:1010600043EA12533A461846002880F25681BCF1F2
:10107000000F40F05981CDE90C730D9BA1F2FE3BAE
:1010800043F000430D9300210520DDE90C230F46BA
:1010900060E1A8F15802202A3FF62DAD01A151F8D8
:1010A00022F000BF6F120008F70A0008F70A0008D4
:1010B000F70A0008F70A0008F70A0008F70A00080C
:1010C000F70A0008F70A0008F90F0008F70A0008F5
:1010D0001B1200082F120008F90F0008F90F000872
:1010E000F90F0008F70A00082F120008F70A000895
:1010F000F70A0008F70A0008F70A00087512000846
:101100006F120008BF110008F70A0008F70A00086C
:1011100039110008F70A00086F120008F70A0008E2
:10112000F70A00086F12000803994046D0470028CC
:10113000C0F27F820135DEE4002E109F3BDB31469A
:10114000384604F0EDFE002F3FF4D5AC3E184FF0CA
:101150000009F31B9DF84A2012F01001069100F0DF
:101160005D82023312F04002DDF84C800892434465
:1011700018BF149ACDF81C8018BF9B18049A002A37
:1011800040F36782D31A9DF848205007C2F3800BC2
:10119000049300F15E82510640F14E82B9F1000FD6
:1011A00007D003994846D0470028C0F24282013553
:1011B000D946302241E23846FFF7A2F8C6E7109838
:1011C000002800F026820DF1750312AA00214FF0CD
:1011D0000009009317AB00F0A7FCBDF84A300746A2
:1011E00003F0EF0343F4F04343F01003ADF84A304B
:1011F000002E0CDB0DF175039DF84820DB1B6FF30F
:1012000086129E428DF8482001D9F31A1393002FBD
:101210003FF471AC0DF175066DE0109B4FF00009C5
:101220000DF15D0617AF8DF85C30012392E7069B48
:101230001F0754BFC3F300194FF02B09DDE910233A
:1012400058BF4FEA4919002B06DA52424FF02D09D8
:1012500063EB4303CDE910230DF1750312AA00934C
:1012600017ABDDE9100100F05FFC0746C0E74FF067
:101270000009F1E7109A072B3FF63DACDFE803F0D9
:101280000C04060C08080C0C157034E4158032E4CC
:10129000EB17C2E900532EE415602CE44FF02D0942
:1012A000B7E64FF02B09B4E640F2FF70814231D12E
:1012B00008F10108A24913435FFA88F811F80810F1
:1012C00001F003011ED101290BBF492369234E21DF
:1012D0006E210CBF462266228DF85C300DF15F0650
:1012E0009DF848308DF85D106FF386138DF85E2001
:1012F0008DF8483017AFF31BB9F1000F3FF42AAF58
:10130000013327E7012915BF6E234E2361214121B7
:101310001A46E1E74FF0000C89E6921801F1FF311F
:101320004FF0010C40419FE6CDE90C20A5E65208A4
:1013300059460BF1010B42EAC3725B08B3F1333F2C
:10134000F5D200FB03FC01F1020BA2FB0023013FDD
:10135000012163441BF1020FE9DB09B1CDE90C2344
:10136000BBF1000FDDE90C322CDCCBF104010BF1F9
:101370001C0BA1F1200002FA0BFBCB4022FA00F07B
:10138000CA4043EA0B03079208F0DF020343472AEF
:101390007CD1F91C01DBBE422BDAA8F10208002E39
:1013A0005FFA88F87BDD9DF84820013E920676D4EE
:1013B000B6F1000B18BF4FF0010B721C27E04FF085
:1013C000000B60E602330CA80BF1FF3B07F10107AD
:1013D00042F10002CDE90C3204F0CEFDDDE90C3221
:1013E000DB180BF1FF3B5241002AF9DACDE90C3250
:1013F000B6E79DF84820F61B90064DD4B6F1000BD9
:1014000018BF4FF0010BF2194FF066084AD4102AAA
:10141000A8BF102210209FED487B0B908DED0E7B16
:10142000DDE90E01002A3FD11B18079A42EB0101AA
:10143000B1F1805F47D2CDE90C31069BB8F1660F60
:1014400003F0200240F0C580002F47DC30238DF8E8
:101450005C30002A76D1002E40F3BC812E238DF81B
:101460005D3087B17B429DF84A20B342A8BF334626
:10147000002BA6EB03061393D4BF0023012363F3D1
:1014800045128DF84A200DF15E0340E0B8F1660F79
:101490004FF0000BB7D090E74FF0000BB3E74FF0E1
:1014A000000B8AE70022B5E7400840EAC17049080E
:1014B000CDE90E010EA8CDE9082304F05DFD089AE0
:1014C000099B013AACE75B080CA8013743EAC173FA
:1014D0004908CDE90C3104F04FFDAEE717AB0B998D
:1014E00000290BDD0BA90CA8CDE9063204F05CFD48
:1014F000069B013F079A03F8010BF0D11397AAB995
:10150000002E40F365812E2103F8011B0027002ED9
:1015100021DD0B9A002A1EDD0BA90CA8069304F00E
:1015200043FD069B013E03F8010BF0E72E2203F872
:10153000012BEBE7AFF30080000000000000000883
:10154000007700082E238DF85D30002F9BD0002EF1
:1015500088DC0DF15E03BBF1000F4ED114961E46E0
:1015600008F0DF03452B23D1002F86F80080BABF97
:101570007F422D232B23632F7370C9BF6422023651
:10158000B7FBF2F302FB13774FF00A02C8BF03F177
:101590003001B7FBF2F3C8BFB17003F1300102FBB9
:1015A0001373C8BF033630333170023606F8013C7E
:1015B000139B002B2BDC149B002BD4BF0023012397
:1015C0009DF84A2063F3861200238DF84A20337079
:1015D00090E60BA90CA8069204F0E6FC069A3028C7
:1015E0008DF85C0018BF07F1FF3712B9002E40F3E9
:1015F000F1802E238DF85D3045E71E46013B16F83D
:10160000012C302AF9D02E2A08BF1E46A8E7012354
:10161000D6E7724E81460523771F9BE5110748BF29
:1016200001339FE5104609920399D0470028099A93
:1016300005DA1FB0BDE8F08F2022DDF810B0594662
:101640000BF1FF3B0029EDDC049BCDF810B02B44DF
:101650005D1AB9F1000F05D003994846D04700281C
:10166000E7DB0135089B002B77D09DF94930002B33
:1016700028DB3B46DFF8689118789B46013319F860
:10168000002052073FD49DF84A30EF1B98065F4474
:1016900007D4424608F1FF38002A3BDC079B3B4455
:1016A0009F1A9BF800002E280AD10399D0470028E2
:1016B000BFDBB8F1000F07F1010731DC0BF1010BC3
:1016C0005D4638E0B94699F80000C84609F10109BD
:1016D000702813D1EF1B4744149D3D44EB1B002B96
:1016E00033DC334642460399504604F074FC00282C
:1016F0009FDB3844049E0546064464E00399D047C6
:101700000028E0DA95E706930399D0470028069B66
:10171000B2DA8EE703993020D0470028B9DA88E79B
:101720000399302008F1FF38D047C0E70399D0472C
:101730000028FFF67EAF2878A846013519F800305A
:101740005907F3D4A7EB0B07C5E703993020D0471F
:101750000028FFF66EAF0137C0E79DF84A30DA0681
:1017600001D41B0706D503993020D0470028FFF687
:1017700060AF0135069B3BB103999DF84B00D04704
:101780000028FFF656AF0135A84406E00399302043
:10179000D0470028FFF64DAF0135A8EB0503002B1D
:1017A000F4DC33463A460399504604F014FC002812
:1017B000FFF63FAF28449DE703992020D04700283B
:1017C000FFF637AF0135731B002BF5DCFFF793B93C
:1017D0001746C0E60DF15D03BDE600BF557A00086F
:1017E000017700082DE9F0432DED028B95B0431EE3
:1017F000DFED386A073004AC224613F8011F07EE0C
:10180000901A8342F8EE677A87EEA67AA2EC017A04
:10181000F3D1314D6846314A0023F5EC017A164682
:1018200027460021B4460131F7EC016A10369CEDE1
:10183000007A082946EE877AF4D1F5EEC07A0133B2
:101840000432F1EE10FAD8BFDFED257A042BE0EC7C
:10185000017AE2D10CADB7EE008ADFF88C90002659
:10186000204FA846B9EC010A3A46694600231046C3
:101870000133B1EC017A2032D0ED007A042B07EE6F
:10188000270AF4D1B1EE400A013604F021FA30EE15
:10189000080A082E07F10407C8EE007AE8EC017A7E
:1018A000E0D100239FED0E7AF4EC017A0133F5ECE0
:1018B000016A082B77EEE67AF0EEE77A37EE277AC0
:1018C000F2D1B4EE000A27EE000A15B0BDEC028B8F
:1018D000BDE8F08300007F43A8730008B8730008D8
:1018E0000000000028730008087300087FB50E464A
:1018F0001D460446A0B90AAB0B48039304F0F4FB61
:10190000089B01462A460948009604F01EFB0399ED
:10191000099800F0E5F8064804F017FB01F05EF9BD
:10192000204604B070BD00BF1A7800086278000835
:10193000208F000800B5174A2DED028B85B0106886
:10194000516802AB03C302A8FFF74CFFDFED127A28
:10195000B0EE408A114860EE277AFDEEE77A17EE86
:10196000901A04F0F2FAB5EEC08A0D4B0D4AF1EE72
:1019700010FA01930C4B0D4900934FF01303ACBFC9
:1019800001200020FFF7B2FF05B0BDEC028B5DF82F
:1019900004FB00BFB071000800007A448A78000898
:1019A000BE7800081A78000830790008A578000889
:1019B00000B5184A2DED028B85B09068D16802AB56
:1019C00003C302A8FFF70EFFDFED137AB0EE408AE3
:1019D000124860EE277AFDEEE77A17EE901A04F0CF
:1019E000B4FADFED0F7A0F4BB4EEE78A0E4A01939B
:1019F0000E4BF1EE10FA0E4900934FF00A034CBF64
:101A000001200020FFF772FF05B0BDEC028B5DF8EE
:101A100004FB00BFB071000800007A44D5780008CC
:101A2000CDCC4C3D177900081A7800084F79000892
:101A3000F278000838B5EFF31185102484F312888A
:101A4000BFF36F8F184803F0DDFE68B98823174A8B
:101A50001749184804F0DFFA1349174804F0DBFA75
:101A60008821124804F0CEFA0F4803F0EFFE224618
:101A70000021124804F0CEF90B4803F0D1FE68B9FA
:101A80004FF49A73094A0E490A4804F0C4FA064909
:101A90000C4804F0C0FA4FF49A71E2E785F311881C
:101AA000BFF36F8F38BD00BF84040024AF790008F6
:101AB000DC790008F17900080E7A00089000002413
:101AC000247A00083B7A0008014B1B68184700BFC6
:101AD00000000024014B1860704700BF0000002484
:101AE00007B50B460021024603480091FEF7ECFFC4
:101AF00003B05DF804FB00BFC91A0008F0B5024648
:101B00000168084E00200A270B4601311C78355D1C
:101B10006D0701D41360F0BD07FB0043A3F1300053
:101B2000F2E700BF017700082DE9F84F15469A4605
:101B3000D3788146224A0F466F2B12F803B00BF080
:101B4000030B2BD026D8582B0CBF10260A26DDF805
:101B500028803246002348463946FEF749FE092AC6
:101B600008F1FF38D4B21ED83034B145E4B277F171
:101B7000000788F8004001D3D04511D82B789B0688
:101B800005D5082E15D1AB7843F00803AB7040465D
:101B9000BDE8F88F03F0F703702BD5E70826D6E7EA
:101BA00081460F46D5E7BBF1010F0CBF37345734E0
:101BB000DBE7102EEBD1AB7843F01003E6E700BF74
:101BC00001770008054B00205A6842F002025A6073
:101BD0005A6842F001025A60704700BF0010005C72
:101BE00010B5EFF31184102383F31288BFF36F8FC6
:101BF0001C4803F007FE68B988231B4A1B491C4890
:101C000004F009FA17491B4804F005FA8821164820
:101C100004F0F8F9134803F019FE174B1A683AB9A3
:101C2000164A116841F4807111601168C905FCD52C
:101C30001A680C4801321A6003F0F2FD68B94FF4DB
:101C40009A73094A0E490A4804F0E5F905490D4816
:101C500004F0E1F94FF49A71D9E784F31188BFF3E6
:101C60006F8F10BD90040024AF790008DC79000864
:101C7000F17900080E7A00088C040024004802580C
:101C8000247A00083B7A000810B5EFF31184102382
:101C900083F31288BFF36F8F264803F0B3FD68B952
:101CA0008823254A2549264804F0B5F921492548C5
:101CB00004F0B1F98821204804F0A4F91D4803F08C
:101CC000C5FD214B1A6822BB204B0122BFF35B8F5D
:101CD00053E8001F002903D143E800200028F7D172
:101CE000BFF35B8F03D15721194804F0A2F91148C3
:101CF00003F096FDC0B94FF49A730F4A1549104886
:101D000004F089F90B49144804F085F94FF49A71ED
:101D1000D1E7012A04D111490A6822F480720A60CD
:101D20001A68013A1A60E2E784F31188BFF36F8FF3
:101D300010BD00BF90040024AF790008DC790008D2
:101D4000F17900080E7A00088C040024880400242D
:101D5000567A0008247A00083B7A000800480258A6
:101D60000C4B0D4A1A600D4AD36823F0070343F069
:101D70000203D3600A4B1A6841F20303B3EB124F1C
:101D800006D1084AD2F8083143F00103C2F80831FD
:101D9000704700BF380000240090D003004802586C
:101DA0000010005C00800051014B0360012070476F
:101DB0007C7400082DE9F041074686B00C460029E6
:101DC00038D08B682646234800250093DFF89C8096
:101DD000D1E90023452104F02CF9636945211E480F
:101DE0000093D4E9032304F024F9E26945211B4858
:101DF00004F01FF9F36A2A46452140460593EB1C7F
:101E000010360493B3690393AB1C02937369019377
:101E10006B1C04350093336904F00BF9102DE9D1E4
:101E2000226E45210E4804F004F9A26945210D48AF
:101E300004F0FFF8012F06D1EFF305824521103A97
:101E4000094804F0F6F82146384606B0BDE8F041EE
:101E500002F0A6BBD57A0008097B00083D7B00088C
:101E6000997B0008AD7B0008E07B0008517B0008EF
:101E700030BFFFF7FDBF00BF054B9A699B689A42D0
:101E800004D0044A536843F080535360704700BF46
:101E90001006002400ED00E02DE9F8433F4D804698
:101EA00089463F484521174604F0C3F8AB6ADA0675
:101EB00026D5112445213B4804F0BBF8AB6A1B072B
:101EC00004D512244521384804F0B3F8334DAB6AE9
:101ED0009E0717D54521354804F0ABF86E6BAB6A09
:101EE0001C0645D532464521314804F0A2F8B9F127
:101EF000000F03D0AB6A23F08003AB62132403E02E
:101F00001024DBE76FF01506244DAB6AD80704D523
:101F100014244521274804F08CF8AB6A990604D5AF
:101F200015244521244804F084F81C4DAB6ADA06D8
:101F300002D4AB6A9B070AD56B68180507D54146E2
:101F4000304600F05FFBB0B180F309880224134BE8
:101F50009A6A920603D55A6A22F400525A629A6A21
:101F6000204642F0FF029A6200233B70BDE8F883EE
:101F70006FF01506C2E7AB6AD906E8D50F4940F203
:101F800027130F4A0F4804F046F80F4804F043F8AF
:101F900040F227110A4804F035F800BF00ED00E0D8
:101FA000F87B0008137C00084B7C0008637C000869
:101FB000807C00089B7C0008BF7C0008257D000811
:101FC000F37C0008F17900086F7D000810B5204C03
:101FD0004521204804F02DF8A36A990136D51E4802
:101FE000452104F026F81E20A36ADA0104D51B4817
:101FF000452104F01EF81F20154CA36A1B0304D5CD
:102000001748452104F015F82120A36A590304D587
:102010001448452104F00DF822200D4CA36A9A03C0
:1020200004D51148452104F004F82320A36ADB03FA
:1020300004D50E48452103F0FCFF2420044A936A8E
:102040006FEA03436FEA1343936210BD1D20CBE791
:1020500000ED00E0927D0008AF7D0008C77D00081C
:10206000E67D0008097E0008337E0008527E0008E5
:1020700070B5284C06460D462748452103F0D9FF88
:10208000A36AD9043BD52548452103F0D2FF172088
:10209000A36A1A0504D52248452103F0CAFF182077
:1020A0001C4CA36A9B0511D51E48452103F0C1FFB6
:1020B000A26BA36A180408D545211B4803F0B9FF99
:1020C0001EB1A36A23F40043A3621920114CA36A32
:1020D000590504D51548452103F0ABFF1A20A36A22
:1020E000DA050ED51248452103F0A3FF1B20094A4B
:1020F000936A43F47F43936200232B7070BD1620D4
:10210000C6E7A36A9B04F2D50A48452103F091FF74
:102110001C20ECE700ED00E0827E00089D7E0008B8
:102120004B7C0008B37E0008D17E0008EB7E0008DF
:102130000B7F0008BF7C0008724B70B505465868DD
:102140009CB00026C0F3080386F31188BFF36F8F9D
:1021500002F07F44B4F17F4F07D102F00C04082C49
:1021600012D14521684803F064FF684940F21443E6
:10217000674A684803F04FFF674803F04CFF40F29E
:102180001441634803F03EFF14074CBF0D4601267F
:10219000002DEAD00024DA1E8DF80740092A00F24B
:1021A0009E80DFE802F0059195749C9C9C9C9C9914
:1021B00045215A4803F03DFF8DF80740514CE36A32
:1021C0009A0705D54521564803F033FF002429E03E
:1021D000E36A002B02DA45215248F5E7E36A5B0027
:1021E00065D54521504803F024FF6369AA6943F48B
:1021F00080736361BFF34F8FBFF36F8F636932F8F2
:10220000022C23F480736361BFF34F8FBFF36F8F92
:102210004DF602739A4221D12A684521434803F0C2
:1022200008FF2C689DF80730B3B96822294602A838
:10223000FEF744FA099B002E5ED0C3F3080222B9D0
:102240006FEA53236FEA43230993102C02A934BF8A
:1022500020460020FFF7AEFD1CB070BDA36ADBB2C4
:102260003BB10DF1070201212846FFF715FE044698
:10227000D8E7A36A13F47F4F05D00DF107010120C1
:10228000FFF7F6FEF3E7A36AB3F5803F02D3FFF74B
:102290009DFEECE7264940F2ED231D4A1D4803F060
:1022A000BAFE244803F0B7FE40F2ED2169E7204969
:1022B0004FF43C73164A174803F0ADFE1E4803F076
:1022C000AAFE4FF43C715CE70DF107020021CBE759
:1022D0000DF107010020D3E74521184874E710F4F9
:1022E000F87F1749174AA3F1100308BF0A4616489A
:1022F000452103F09EFE69E723F4FF7323F00103F9
:10230000A2E700BF00ED00E0567F0008867F0008CE
:10231000F37C0008F1790008997F0008D77F000856
:10232000F37F0008198000082C8000085080000806
:102330007C8D00087180000895800008C580000829
:10234000287F00083D7F0008EE800008044B5A6992
:1023500042F010025A615A6922F008025A6170472D
:1023600000ED00E0EFF30880EFF3098101B572465C
:10237000FFF7E2FE01BD00BF0A4880F30888102085
:1023800080F3118808484FF40861401880F30988E9
:10239000EFF314800221084380F31488BFF36F8F9A
:1023A00000F0C4F8801B0024000D0024084B9B683B
:1023B00083420BD1EFF3058343B1064B5A6842F0D9
:1023C00080525A605A6A22F400425A6202F076BF82
:1023D0001006002400ED00E022498A6882F8DDE062
:1023E0004FF030001044EFF3098C80E8F01F1EF02E
:1023F000100F03D102F19C0080EC108A102080F3B2
:102400001288BFF36F8F184F4FF000668A698A6099
:102410003E6092F9DDE0D2F894000023C2F89430D7
:1024200080F311881EF0100F03D00023E1EE103A64
:1024300003E002F19C0090EC108AEFF3148323F088
:10244000040383F31488BFF36F8F04B5104600F0C4
:102450006BF9BDE8044002F1300090E8F01F8CF306
:10246000098870471006002404ED00E01EF0040FF8
:102470000CBFEFF30880EFF30980816911F8021CAB
:102480000229FFD001B5724603F0E0FD01BD00BF97
:1024900000B2002807DB0123410900F01F00024AB7
:1024A000834042F82130704700E100E038B54B1C12
:1024B00004460D460F2B0FD96B23104A10491148C3
:1024C00003F0A9FD294610480F23224603F0A3FD7F
:1024D0006B210A4803F096FD00B21B010028DBB215
:1024E00006DB00F1604000F5614080F8003338BD44
:1024F00000F00F00054A1354F9E700BF06810008F9
:102500003D810008F17900085881000814ED00E0D1
:10251000044B054A23F07F039360BFF34F8FBFF353
:102520006F8F70470000000800ED00E008B5FFF76E
:10253000EFFF104BD3F8882022F47002C3F88820F4
:10254000D3F8882042F4A002C3F888204FF040421C
:10255000C3F83422BFF34F8FBFF36F8F0023E1EE38
:10256000103A02F015F903F079F900F0B3F802F02F
:102570005FF900BF00ED00E042F8203C203A009BEC
:102580000A495360019B21F001019360029B916114
:10259000D3604FF08073D36100230265C0F894309C
:1025A0004FF47D43C0F8DC30704700BF655F000822
:1025B000037B13F0020F124B03D190F8DD20D206FB
:1025C00011D45A6B42F080425A63D0F8DC301907BC
:1025D0005CBF43F00803C0F8DC30037B43F0020328
:1025E0000373802070475A6B22F080425A63D0F800
:1025F000DC301A0744BF23F00803C0F8DC30F0E7F2
:1026000000EF00E00A4A0346906878B113F1160F14
:10261000D0F8840005D0A0F180029A4205D8834208
:1026200003D2814228BF002070470020704700BFBE
:1026300010060024104B9B6883421AD1EFF30580EB
:10264000B8B9EFF31181102282F31288BFF36F8FB4
:102650001A7B22F002021A73EFF3148323F00403AF
:1026600083F31488BFF36F8F81F31188BFF36F8FEB
:1026700070476FF0150070471006002415460E468F
:10268000002208B5E1EE102AEFF3148222F00402D2
:1026900082F31488BFF36F8FBFF36F8F094A906086
:1026A00000F042F82C4686F309880020034B984737
:1026B0002046002100220023014C20476F600008C3
:1026C000655F000810060024014B10221A61704754
:1026D00000ED00E0002304481021C2180133A32BB1
:1026E00082F80013F9D1704700E100E008B5EFF37C
:1026F0000583064A103B02EBC30152F833004968D8
:102700008847BDE80840FFF7B7BB00BFB06B0008C3
:10271000024B0121024A034800F08AB80000052458
:10272000000000248C74000810B50446FFF740FF39
:1027300003460648D4F884200121D21AC0E90023B8
:10274000034B8360BDE8104000F098B89404002467
:1027500000000B15104A08B5D2F89030C3F30723D8
:10276000013B984207D9024645210C4803F061FC21
:102770006FF0150008BDC2F898000B6823F01F0326
:10278000034343F01003C2F89C308B6843F001030D
:10279000C2F8A030EEE700BF00ED00E09C81000829
:1027A000F0B50F4685B01C4605460026BE420CDA41
:1027B000686808B38CB1431E184209D032464521DF
:1027C0000F4803F036FC6FF01502104605B0F0BD5F
:1027D0007F28F3D929680B42F0D12B6801A9019316
:1027E00003F059FCAB680343D0B20393FFF7B2FF89
:1027F00010F1160FE7D0421C01360C35D6E700BFAA
:10280000C7810008044B0522C3F89420BFF34F8F03
:10281000BFF36F8F704700BF00ED00E0BFF35F8F25
:10282000024B0022C3F89420704700BF00ED00E087
:1028300038B50D4D01230C462A78FFF7B1FF2870FB
:1028400016300FD14FF4BF73084A0949094803F005
:10285000E2FB2146084803F0DEFB4FF4BF7103485A
:1028600003F0D0FB38BD00BF48060024EF8100080C
:102870007C8D0008F17900081E820008144A0023AC
:1028800010B512780C46FFF78BFF10F1160F08D029
:10289000104A0021D2F89030C3F30723984210DB8E
:1028A00010BD40F29D130C4A0C490D4803F0B3FBD8
:1028B00021460C4803F0AFFB40F29D11064803F09F
:1028C000A1FBC2F898000130C2F8A010E2E700BFF7
:1028D0004806002400ED00E0EF8100087C8D000830
:1028E000F17900084A8200082DE9F04F714C85B05B
:1028F0007149D4F890300D68C3F307239D4213D972
:1029000040F2F7136D4A6E496E4803F084FBD4F829
:10291000902029466C48C2F3072203F07CFB40F26A
:10292000F711664803F06EFBFFF778FF4968002255
:10293000954201F10C011DD1644C6846644F25702D
:10294000FFF732FA00250646DFF89481DFF894910C
:10295000AE4222D1237800205649D1F89020C2F30C
:1029600007229342C0F29F800020FFF74BFF05B083
:10297000BDE8F08FC4F8982051F80C3C23F01F03F9
:102980001343013243F01003C4F89C3051F8043C67
:1029900043F00103C4F8A030CAE7009A290102EB12
:1029A0000513D3F80CA00AEA0700B0F5000F60D0B9
:1029B0000AD8B0F5001F38D0B0F5800F4ED0B0F572
:1029C000801F12D00135C3E7B0F1807F5CD0B0F139
:1029D000007FF7D1D3F804A05258986803F05BFB4E
:1029E00040F48020CDE901A20BE0986803F053FB8E
:1029F00040F08850D3F804A0525840F43020CDE97C
:102A000001A2039001A92078FFF7A4FE002846DA6E
:102A10002B4940F22123294A2A4803F0FCFA2D4889
:102A200003F0F9FA40F221217BE7986803F033FBC9
:102A3000D3F804B0525840EA08001AF0010F03908E
:102A4000CDE901B2DED0244983231C4A1D4803F09E
:102A5000E2FA224803F0DFFA832162E7D3F804A008
:102A60005258986803F017FB40EA0900CDE901A22B
:102A7000C7E7D3F804A05258986803F00CFB40F065
:102A80008270CDE901A2BCE7D3F804A0525898683F
:102A900003F001FB40F08870CDE901A2B1E7237893
:102AA000013323708EE7C1F898300133C1F8A000DC
:102AB00053E700BF00ED00E038740008EF81000824
:102AC0007C8D0008F1790008778200084806002410
:102AD0000000F0FF00830008AB820008D1820008EC
:102AE000000008110000020608B50B4BC3F110539B
:102AF00003F5A023B3F5005F0CD208499223084ADE
:102B0000084803F088FA084803F085FA922104483F
:102B100003F078FA002008BD001C00245A83000846
:102B20002A830008F1790008A3830008014B18608C
:102B3000704700BF0400002470B50546074C084EDE
:102B4000B44202D30024204670BD21682846FDF718
:102B50004BFC0028F7D01C34F2E700BF2C710008B2
:102B6000487100082DE9F84307460D461446DFF882
:102B7000488000230E4EDFF8449088F800304E4520
:102B80000ED3BB680BB1204698470222094B204662
:102B90001A70AB689847012388F80030BDE8F883C5
:102BA000336813B12146284698470836E7E700BF47
:102BB00070710008680000244A060024787100083B
:102BC00008B50548FFF7F2FB03F033FE18B902F031
:102BD0006FFBFFF7EBFB08BDA000002408B50E4B10
:102BE0001B7873B15A1E012A0FD9052B0B4896BFCB
:102BF0000B4A0C4952F8231003F0A7F90A4B0222A2
:102C000001E00A4B05221A7008BD084B02221A7017
:102C1000BDE80840FFF7D4BF6800002434840008F2
:102C2000987400082A8400084B0600244A060024F1
:102C300070B5054639B101F11404084EB44204D30D
:102C40000024204670BD064CF7E721682846FDF7B2
:102C5000CBFB0028F5D01434F0E700BF70710008FA
:102C6000487100082DE9F04F8BB0154607460991D1
:102C700040B9994B02224FF0FF381A7040460BB012
:102C8000BDE8F08F01680024944803F05EF9944891
:102C900003F05BF9934B1C70DFF898A28AF80040B0
:102CA000914B1C709AF80030052B03D07C680CB156
:102CB000A04704464FF00009002D18BF2C46C84617
:102CC0004E46099B9945C0F2EA803968B8F1000F79
:102CD00040F0FF80854803F038F9834B04221A70D6
:102CE0003B69002BCAD020469847C7E7804B28464F
:102CF00071689B689847002800F0CD8032697D4854
:102D0000136801331360716803F01FF90123764AD9
:102D1000137001F0FBFA784B18604FF0FF324FF060
:102D2000FF33764900977648CDE906234FF0FF330D
:102D30000822CDE90164CDE90332724B4FF4C06241
:102D400001F084FE716811B16D4801F0F9FD9AF847
:102D50000030043B012B09D9694802F051FA4FF0C9
:102D6000FF324FF0FF33664802F0D0FB0323DFF859
:102D700078B18BF80030FB680BB120469847624D64
:102D8000624A06E06B681BB12146304698475F4AAD
:102D900008359542F6D301F0B9FA574B1B68C01AB3
:102DA0005B4B984247D800F506205A4B00F26F4023
:102DB000B0FBF3F0584B186033691A69824238BF90
:102DC00018619AF800500523022D8BF80030534B00
:102DD00004D0052D02D01A78002A37D00022012510
:102DE0001A704748FFF7E2FADFF84CB173680893AE
:102DF0004B4B9B4531D3484B4FF47A7149481A6885
:102E0000B2FBF1F301FB13224749009251F8251060
:102E1000089A03F09AF8324803F097F8022D3369C4
:102E200035D1304A127812B12B4A012111705A68FB
:102E300001325A602FE03D4B364AC0184FF0000374
:102E40002CBF01210021FDF7D3FCB3E7033D012D89
:102E50008CBF002501256D00C3E70899DBF804004D
:102E6000FDF7C2FA60B93168DBF80000FDF7BCFA83
:102E700030B99BF8083033B1012BBCD1023D03E0DF
:102E80000BF10C0BB4E7013D18BF0125B3E7D5B931
:102E9000DA680132DA60104B1B78022B10D03D68E3
:102EA00031462846FFF7C4FE064600287FF41EAFD1
:102EB000094B1A7822B9B8F1000F01D001221A701B
:102EC00009F10109FDE69A6808F1010801329A60EA
:102ED000E1E71748FFE600BF4B06002467840008BF
:102EE0007D8400084906002468000024EB84000863
:102EF000C0740008C2840008A404002480060024D2
:102F0000A0000024652B000870710008787100088B
:102F1000909BF7FF70640800A00400244C06002476
:102F20002C710008CE840008B07400086F6408009B
:102F3000038500084A0600242C7100082DE9F74F8C
:102F4000DFF880909046019399F800300090022BB2
:102F500031D01A4C0026DFF870B0194B9C4203D3D5
:102F6000304603B0BDE8F08F0027A569BA46B845E2
:102F700006DC99F800305644022BF1D01C34ECE703
:102F8000DBF8042021460098904780B10022019987
:102F900020460AF1010AFFF765FE2A6801322A601D
:102FA000AA68002818BF0132AA600137DFE76A6803
:102FB00001326A60F9E70026D2E700BF2C710008F1
:102FC000487100084B060024C07400082DE9F8433E
:102FD000224C0127224EDFF89C80B44212D3214CB0
:102FE000214EDFF89490B44216D317B91F4B01223B
:102FF0001A701C4C4FF001081D4D1C4FB4421AD3DF
:10300000BDE8F883A3691D6825B92F4621684046AD
:1030100002F09BFF1C34E0E7D4F800804046FFF745
:103020008BFD054628B92F4642466168484602F0A6
:103030008CFF1434D7E72269D2E902310B4451687E
:1030400012680B44934206D02846D4E9001202F0DD
:103050007CFF87F800801434D0E700BF2C71000893
:103060004871000848710008707100084B06002480
:1030700080850008198500083E85000810B4034CBF
:103080002468A4465DF8044B604700BFC074000884
:103090002DE9F04F5F4E8BB0DFF8B0A103F010F8D0
:1030A0005D4802F052FF5D4B9E4212D35C4802F035
:1030B0004CFF5C4B5C481B78002B00F0A68002F0B4
:1030C00044FF5A495A4802F040FF00200BB0BDE8C7
:1030D000F08F002533682C46A8462F46AB46A946FC
:1030E000214618460993FFF7A3FD099B04460028D3
:1030F00043D1B84554D04F49A8EB07024E486FF072
:10310000090E01FB09F1BBF1000F91FBF2F14FF445
:103110007A72D4BF4FF0000C4FF0010C91FBF2F229
:1031200000FB02110A2091FBF0F00EFB00110429B4
:1031300000DD01304FF47A7E009303463F48B5FB33
:10314000FEF10EFB1155CDE90378CDE9019B3C4F13
:10315000DFF8FCB0DFF8FC80CDE905155AF82C103B
:1031600002F0F3FE21463068FFF762FD0446D8B94D
:1031700034481C3602F0E9FE95E7226908F101089F
:1031800011690D44D2E90001814201D10137A7E75D
:10319000D26890420CBF09F101090BF1010B9FE7C6
:1031A0004FF0020C0246C5E7D4F810E04FF47A79EC
:1031B000DEF81000DEF80010DEF80450B0FBF9FC79
:1031C0008D4209FB1C00D4E9002311D0DEF80CE08D
:1031D000714516D0BEF1000F15D00191A1EB0E0183
:1031E000CDE902C000914046394602F0AEFEB9E793
:1031F00002215AF82110CDE900C0584602F0A5FE80
:10320000B0E70021F5E70121F3E702F09EFE0E4949
:1032100058E700BF2C710008958500084871000828
:103220009F8600084B0600247D840008C5860008A0
:10323000CC860008A086010018FCFFFFBE850008B0
:1032400022860008208F0008E2860008B07400087B
:103250007386000828860008044B03EB4000002317
:10326000013320F8022B9942FADC70474800002411
:103270002DE9F84306464FF00009114F4FF00108C1
:10328000347854FA89F5284600F0F4F870B12846ED
:1032900000F016F957F8353043B14C4407EBC5053B
:1032A00004F01F04696808FA04F0984709F101095D
:1032B00072785FFA89F39A42E2D2BDE8F88300BFE0
:1032C000A804002408B5034630B1B0FA80F2C2F178
:1032D0001F02D2B20F2A09D91049BD23104A114842
:1032E00002F099FEBD210E4802F08CFE0E4931F924
:1032F0001200FF2807D10D49C123094A094802F0ED
:103300008AFEC121EFE74FF0B042D2F880100B43A4
:10331000C2F88030BDE80840FFF7BAB869870008F6
:1033200027870008F1790008480000247787000803
:1033300008B54FF0B04303291ED8DFE801F0020BB7
:103340000E161A6822EA00021A605A6822EA00027F
:103350005A6008BD1A680243F6E75A6802435A6089
:103360001A6822EA00021A60F3E71A6802431A6038
:103370005A6810435860ECE70449F8230448054AAA
:1033800002F049FEF821034802F03CFE7C8D000863
:10339000F17900082787000830B5B0B1B0FA80F3A2
:1033A000C3F11F03DBB20B4850F833408C4204D109
:1033B00000EBC3056D68954205D044B940F8331061
:1033C00000EBC3004260002030BDFF23EBE76FF04D
:1033D0000F00F9E7A804002460B1B0FA80F3C3F14C
:1033E0001F03DBB2044A002142F8331002EBC30290
:1033F00051607047FF23F5E7A804002400F00302A2
:103400000F23043292009340094A43EA900000F0EF
:103410000303023352F82320030C93FAA3F3B3FA05
:1034200083F302EA104003F01F03D840704700BF47
:103430000004005813B50D4C204603F0CCF938B900
:103440000B48452102F0F5FD6FF0120002B010BDEF
:103450000223F422CDE90023A3681B681BB169464F
:1034600020469847F2E76FF05700EFE790690008B1
:10347000F287000800F01F015F28024608B54FF0F0
:10348000010303FA01F305D90C48452102F0D1FDEF
:10349000002008BD1F284FF0B04106D8D1F8882081
:1034A00093430CBF01200020F3E73F2802D8D1F856
:1034B0009820F5E7D1F8A820F2E700BF948700082C
:1034C00000F01F015F28024608B54FF0010303FA20
:1034D00001F306D90B48452102F0ABFD6FF0150052
:1034E00008BD1F284FF0B04103D8C1F88830002034
:1034F000F6E73F2802D8C1F89830F8E7C1F8A830BD
:10350000F5E700BF94870008064B1B6903F03803FA
:10351000102B05D0182B044818BF00204008704716
:103520000248FBE7004402588055C82000127A0088
:10353000314B10B518680B88C3F30B030D2B2CD837
:1035400013B96FF0850027E0013B0C2BF9D801A0DF
:1035500050F823F0C735000889350008CD3500083C
:10356000E7350008D3350008433500084335000827
:10357000D7350008DB350008DF350008E3350008E3
:10358000E3350008E33500084FF4004010600B6895
:10359000B3F5805F29D2002010BDD42B0FD003F6E5
:1035A0002873C3F30B031C2BCBD8012404FA03F3B9
:1035B000124C234205D140F211142342C1D04008DD
:1035C000E4E78008E2E7FFF79FFFDFE74FF4FA4008
:1035D000DCE70B48DAE70B48D8E70B48D6E70B489F
:1035E000D4E70B48D2E70B48D0E7C3F313330133DA
:1035F000B0FBF3F01060CEE738000024001011118A
:10360000006CDC028055C82060153208C02A6410A6
:1036100000B4C40400127A00994B73B5D3F8E020CB
:1036200042F00072C3F8E020D3F8E02002F000720C
:103630000192019A1A6842F480221A601A6842F4D0
:1036400080321A601A689003FCD55A6F8C4C42F095
:1036500001025A67636F9907FCD5FEF7C1FA236F21
:1036600023F018032367236F43F001032367236FBD
:103670009A07FCD5FEF708FB2368814A43F4805380
:10368000236013689B04FCD57E4B9A6922F4404268
:103690009A619A699604FCD5794B1A6902F038024E
:1036A000182A16D11A68550706D41A6842F0010282
:1036B0001A601A685407FCD5714B1A6922F0070288
:1036C0001A611A6912F0380FFBD19A6922F00F02C1
:1036D0009A616B4B1A6822F080721A601A6822F0A5
:1036E00080621A601A6822F080521A609A6A22F088
:1036F000030242F002029A629A6A22F47C7242F059
:1037000040029A62DA6A22F00C02DA62DA6A42F065
:103710000202DA621A6B22F4FF7222F0010242F412
:1037200089721A63DA6A22F00102DA621A6B22F4F1
:103730007E421A63DA6A42F48032DA621A6B22F449
:10374000FE0242F440321A63DA6A42F40032DA626C
:103750001A6B22F0FE4242F080721A63DA6A42F477
:103760008022DA621A6842F080721A601A68900148
:10377000FCD59A6A424C22F47C3242F480529A621E
:10378000DA6A22F0C00242F08002DA62DA6A22F0DB
:103790002002DA629A6B22F4FF7222F0010242F0F8
:1037A00009029A63DA6A22F01002DA629A6B22F452
:1037B0007E429A63DA6A42F40022DA629A6B22F459
:1037C000FE029A63DA6A42F48012DA629A6B22F09D
:1037D000FE429A63DA6A42F40012DA621A6842F030
:1037E00080621A6023681901FCD5274EFFF78CFE12
:1037F0000546B04202D8254800F0D2FDA369204A10
:1038000023F47063A361A36923F00F0343F008035B
:10381000A361E36923F0700343F04003E361E369CC
:1038200023F4E06343F48063E361A36923F070034E
:1038300043F04003A361236A23F0700343F0400385
:103840002362236923F0070343F003032361136911
:1038500003F03803182BFAD1B54202D90B4800F017
:103860009FFD084B9A6922F440429A619A6992043A
:10387000FCD5074B0020074A1A6002B070BD00BF9C
:103880000044025800480258BF2A6410C02A64103D
:10389000380000248055C82008B5074802F09BFF77
:1038A00038B10648FFF742F90448FEF713F9002043
:1038B00008BD6FF01200FBE7706B0008C13800080C
:1038C0000A2838B50446074D04D1AB680D212846B7
:1038D0005B689847AB68E1B202485B68984720464E
:1038E00038BD00BF706B000810B5036961B920498D
:1038F0003F23204A204802F08EFB204802F08BFB39
:103900003F211C4802F07EFB486850B91C49402307
:10391000184A194802F07FFB1A4802F07CFB40214C
:10392000EFE79868F8B1884219D1DC680868A142CD
:10393000986000D1D860002008602AB19A680A60B7
:10394000DA68996002B9D960002010E0814206D19E
:1039500008682060D8688142EDD1DC60EBE704465E
:1039600000680028F2D1002AE8D16FF0150010BDE0
:10397000888800084C880008F179000891880008C0
:10398000A0880008B28800082DE9F843D0F8048028
:103990001746D0F810900D46D8F808001E4602F0E1
:1039A000EDFBB7F5001F044616D1D8F808402846AD
:1039B000FFF724FD84420CD1294602F0DFFB0446C8
:1039C00002F0E1FB2046FFF707FD00212046FFF74C
:1039D000AFFC0020BDE8F883B7F5800F20D0B6F12A
:1039E000806F19D0B6F1C06F18D0B6F1007F1AD130
:1039F00002264A460F492046FFF7CEFCB0B9D8F858
:103A00000810284602F0C8FB20463146FFF790FC1C
:103A10002046FFF757FCDCE70126EAE70326E8E744
:103A20006FF08500D6E76FF01500D3E76FF00F0059
:103A3000D0E700BF393A000870B5D1E90161054609
:103A400009B10C6801B970BD8A682A4010D04B6872
:103A500063B90B4964230B4A0B4802F0DCFA0B48AC
:103A600002F0D9FA6421074802F0CCFA30469847B0
:103A70001CB1236821461C46E4E72346FAE700BF51
:103A8000C98800084C880008F1790008B28800084D
:103A900038B50369044658600A4D284602F09BFE7B
:103AA00060B1AB6861681B680C3123B12846984748
:103AB00000EAE07038BD6FF05700F9E76FF01200D0
:103AC000F8E700BF906900082DE9F047044600EBD5
:103AD000C1060025244FB44201D1002014E0206823
:103AE000C30600F01F0811D4656845F02005C0F337
:103AF000481AC0F34420102832D857F82090B9F162
:103B0000000F1CD16FF01200BDE8F087B8F1100F64
:103B100013D0B8F1110F01D16568E8E7B8F1000FD3
:103B2000E5D112494FF4A7731148124A02F073FA13
:103B30004FF4A7710F4802F065FA3025D7E74846E1
:103B400002F049FE0028DDD043462A460AF00F0164
:103B5000484602F08AFC002804F10804BBDAD3E7E7
:103B60006FF01500D0E700BFA8750008A289000813
:103B7000F17900086F890008012912D0022907D0C5
:103B800089B90068094BC01A18BF012000037047AB
:103B90000068064B984214BF4FF440504FF4005059
:103BA0007047002070474FF400507047000C0058D9
:103BB00070B51D460026094B6C0833F812203346B9
:103BC000FCF716FE2A460902334641EA106100025C
:103BD000201841F10001FCF70BFE70BD02780008CF
:103BE0002DE9F3410269064643680C4610681D68DA
:103BF000D9688368DB6833B94521404802F019FA77
:103C000002B0BDE8F08101AA98470028F4DB3C4BE4
:103C10009D4258D1019F0025DFF814812346AAB2A6
:103C200038460021FFF7C4FFA0F54070404509D990
:103C300001350C2DF2D1234632684521314802F07E
:103C4000F8F9DDE72E4EF36A23F00F032B43F362FE
:103C50008CB92B4BDA68B2F5407F25D22A49CC23A8
:103C60002A4A2B4802F0D7F92A4802F0D4F9CC218D
:103C7000264802F0C7F9284B384633F815200023B0
:103C80001946FCF7B5FD22460902630841EA1061B6
:103C90000002C0184FF0000341F10001FCF7A8FD3D
:103CA000C0F31300F060D4E7DA681C4B9A42A7D93E
:103CB0001B49D023154A164802F0ADF9194802F005
:103CC000AAF9D021D4E72B6823F400432B6034B148
:103CD000019B03EB5403B3FBF4F39BB2EB60EB6883
:103CE0000F2B8DD81049E223084A094802F093F9B6
:103CF0000E4802F090F9E221BAE700BFCB89000834
:103D0000000C0058FE890008498A00081A8A000839
:103D1000F1790008628A000802780008FEFF0F00AF
:103D2000798A0008968A0008AD8A0008C28A0008CD
:103D3000FFFC0F002DE9F84306460A7940680D465E
:103D40003369012A04685F686BD0931ED3F10008C1
:103D500048EB03084FEA88286979FFF70DFF95F8CB
:103D600006900346B9F1020F5ED0B9F1040F5FD09F
:103D7000002A67D0033A012A5CD94FF48050B3F58A
:103D8000805F61D0B3F5405F60D0002B0CBF012392
:103D9000032399424ED1414602F0CBFB814549D1E4
:103DA000EB795BB3012B53D12B4B9C4226D0A3F56F
:103DB0004C439C4222D003F580639C421ED003F505
:103DC00080639C421AD003F580639C4216D003F5B1
:103DD00044439C4212D0A3F51C439C420ED003F5F1
:103DE00080639C420AD003F51C439C4206D003F535
:103DF00080639C4202D0194B9C421BD12368294608
:103E0000304623F00103236002F04AFC236843F0AC
:103E10000103236095E8030087E803000020BDE864
:103E2000F8834FF4C06897E73AB94FF08050A6E79F
:103E3000002AA2D06FF08500F1E7033A012AF9D9F0
:103E400000209CE710469AE70023A2E70223A0E7A0
:103E5000032BA9D0EEE700BF00100140000C005872
:103E6000F7B50646456804696648206002F0B3FC71
:103E700030B9452164486FF0120402F0DAF80AE024
:103E80002068E96883681B6843B96FF057044521CF
:103E90005E4802F0CEF8204603B0F0BD98470446D5
:103EA000E8B901AA0021286A02F0F7FA041EF2DB41
:103EB000019B002219791868FFF706FE041EEADB51
:103EC000756833692C685F68236823F001032360F9
:103ED000686802F080FC48B945214D48CBE7452190
:103EE0004A4802F0A6F8002CD5DBDAE7D5E9010153
:103EF0008368DB6803B1984754E8003F43F00C0344
:103F000044E80032002AF7D13946304602F0C8FBB7
:103F10002B7D1BB1A36843F00803A3606B7D1BB12D
:103F2000636843F400436360AB7D1BB1636843F493
:103F300080336360EB7D1BB1636843F400336360DF
:103F40002B7E002B4BD0334B9C422ED0A3F54C4301
:103F50009C422AD003F580639C4226D003F58063FF
:103F60009C4222D003F580639C421ED003F544435B
:103F70009C421AD0A3F51C439C4216D003F58063E3
:103F80009C4212D003F51C439C420ED003F5806383
:103F90009C420AD0204B9C4207D0326845211F48E2
:103FA0006FF0150402F045F875E773681A689368B6
:103FB00043F48043936023686A7E23F0787343EA76
:103FC000425323602368AA7E23F4F81343EA024392
:103FD0002360EB7E1BB1A36843F40043A3602B7FF7
:103FE0001BB1236843F000532360236843F00103AF
:103FF0002360E3699A02FCD5E3695B02FCD50024E7
:1040000049E700BF90690008D68A0008FA8A0008CC
:104010001F8B000800100140000C00583F8B000867
:104020004FF0E0230F4910B59C691A6908689B6935
:1040300002F480320C4934B993B903464AB90A688C
:104040001044C01A10BD002B08BF03460AB9A34292
:10405000F5D90A6802440A604FF0E0221269EEE7DF
:104060000446F3E708060024040600240A4B102245
:10407000002083F823204DF2D862084B1A604DF2DD
:10408000D762074B18604FF0E0235A6198611A69B4
:1040900042F007021A61704700ED00E008060024B4
:1040A00004060024684620F007018D4619B5FFF785
:1040B000B7FF1149114B0868D3E90042001942F1DA
:1040C0000002C3E900020E4A00230B604DF2D863E0
:1040D000D2E90041001BB0FBF3F043431B1941F14F
:1040E0000001C2E9003101F049FDFDF7C5FEBDE860
:1040F00019408546704700BF04060024880100244B
:10410000800100242DE9F041DFF8588199B1421C6B
:104110000BD14FF0E022136923F0010313614FF03C
:104120007F43C8F80030BDE8F081D8F8005001287E
:1041300007DC00270BE0431CD8F80050F7D14FF400
:10414000987040F231139842A8BF1846471EEFF30B
:104150001184102383F31288BFF36F8F364801F068
:1041600051FB68B98823354A3549364801F053FF79
:104170003149354801F04FFF8821304801F042FFB6
:104180002D4801F063FB314EFFF74AFF4FF0E0236B
:104190009969D6E9002380184FF0000243F100032B
:1041A000C6E900032A4B1A602A4B1A68831A3BD4CB
:1041B0004DF2D86C0CFB073303F55643D733B3FBF2
:1041C000FCF7131A40F66D520CFB0733934238BFCD
:1041D0001346214A934228BF13464FF0E022C8F805
:1041E0000030013B90695361002381429361A1EB50
:1041F0000003114838BF5B19D6E900125B1842F181
:104200000002C6E9003201F00BFB80B94FF49A734B
:104210000A4A12490B4801F0FEFE0749104801F016
:10422000FAFE4FF49A71A8E740F66D53D5E784F390
:104230001188BFF36F8F76E70C060024AF79000872
:10424000DC790008F17900080E7A00088801002462
:1042500004060024800100248020FF00247A000846
:104260003B7A00080806002438B5EFF311851023C7
:1042700083F31288BFF36F8F1B4801F0C3FA68B94C
:1042800088231A4A1A491B4801F0C5FE16491A48E4
:1042900001F0C1FE8821154801F0B4FE124801F07A
:1042A000D5FA164B1C68164B1B68E41AFFF7B8FECC
:1042B00004440D4801F0B4FA68B94FF49A730B4AFC
:1042C00010490C4801F0A7FE07490F4801F0A3FE72
:1042D0004FF49A71DFE785F31188BFF36F8F4DF2CA
:1042E000D860B4FBF0F038BD0C060024AF790008AC
:1042F000DC790008F17900080E7A000888010024B2
:1043000080010024247A00083B7A000838B5EFF3D6
:104310001185102383F31288BFF36F8F184801F0C3
:1043200071FA68B98823174A1749184801F073FED3
:104330001349174801F06FFE8821124801F062FE10
:104340000F4801F083FA134B1C68FFF769FE044421
:104350000B4801F065FA68B94FF49A73094A0E499F
:104360000A4801F058FE06490C4801F054FE4FF48B
:104370009A71E2E785F31188BFF36F8F204638BD4D
:104380000C060024AF790008DC790008F1790008F8
:104390000E7A000888010024247A00083B7A00087D
:1043A000024610B578B14F498B6913F440433FD1B1
:1043B0004D484E4C1044A04207D28B6903F4404351
:1043C000B3F5404F51D101207CE04948494C10449D
:1043D000A04246D948481044A04244D947488242A6
:1043E000886900F4404007D9B0F5404FEBD08969A7
:1043F000012001F440414CE0B0F5404F45D1404B25
:104400001344404A93428CBF002301233E490A686B
:1044100022F00F021A430A600A6802F00F029A4261
:104420005ED0086800F00F00C01A18BF012049E0F4
:1044300000232C48816901F44041B1F5404F2BD154
:10444000324933481144814246D92D49A0F57420A0
:104450001144A0F51070814240D92E498A42D5D925
:10446000B1E70223E5E70123E3E78B69002003F4CA
:104470004043B3F5004F4FF0030319D02649274CB2
:104480001144A14226D9264918E08969184601F449
:104490004041B1F5004FF0E7816901F44041B1F5C9
:1044A000004F10D11F4920481144814214D90020E7
:1044B0001E491D4C1144A1420CD91D498A4282D883
:1044C0000028A3D010BD0C491A481144814203D3DF
:1044D0000020D3E70123F3E7022397E7012395E7C1
:1044E0001846A1E7004802587FA77BF340D2DF03BC
:1044F000FFC4A7F77F1D2C047FE2D3FB801D2C0493
:104500003FA901FC7F14EF0300200052BF9412F872
:10451000BF56FE03C056FE033FF1E9FDBF0E160273
:10452000C00E1602FF1E0AFA7FF0FA027F0F05FD89
:1045300080F0FA02C0E1E40008B50A4A0A4B93424F
:104540000ED90A4919230A4A0A4801F064FD0A48AB
:1045500001F061FD1921064801F054FD2033EEE71A
:10456000FCD308BDB06B000890690008C48B00083C
:10457000A18B0008F1790008DC8B0008014B9868DA
:10458000803070471006002410B5044645210348CA
:1045900001F04FFD204602F029F900BFFB8B000817
:1045A000F7B504460D46EFF31187102383F3128805
:1045B000BFF36F8F214A04284FF04501966898BFDA
:1045C0001F4B127C94BF53F820301E4B00920246C2
:1045D0001D4801F02EFD3DB1EB69C3F308031BB18B
:1045E00045211A4801F025FD36B1304602F027F981
:1045F000034608B1027802B9154B452115483246E9
:1046000001F017FD29462046FFF7BEFF4DB1EB69CB
:10461000C3F308032BB187F31188BFF36F8F03B087
:10462000F0BD012CF7D087F31188BFF36F8F3046B0
:1046300003B0BDE8F040FDF7B9BE00BF100600248E
:10464000D47600080F8C0008258C0008528C0008D6
:104650001D8C0008788C000838B50A4B53F82040B0
:10466000013053F82050A54200D838BD606830B101
:10467000037FDB0701D402F0C1F80834F3E72368B5
:104680009847FAE7E8760008384B0122032070B516
:10469000374C86B0374D1A70FFF7DEFF01F012FB82
:1046A0000420FFF7D9FFAC42264628D932494223DD
:1046B000324A334801F0AFFC324801F0ACFC4221F1
:1046C0002E4801F09FFC54F80C3C059354F8103C24
:1046D000049354F8143C039354F8183C029354F890
:1046E0001C3C019354F8203C009354E90A2354E9FC
:1046F0000C0100F035F954F8303C5E65D3E7AE426A
:1047000004F13004DFD31A4C00F070FC1E4EAC42B2
:104710001FD919496623194A194801F07CFC194828
:1047200001F079FC6621CBE7D4E90A23B3F1FF3F1E
:1047300008BFB2F1FF3F05D052EA0301206803D160
:1047400000F05EFD3034E2E73146183001F0DCF86D
:10475000F8E7E9D300F0BCFCFEF79AFC0B4A137BA8
:1047600023F00103137306B070BD00BF4D06002493
:10477000C8700008C8700008008D0008DF8C0008B1
:10478000F1790008DC8B0008A3680008700200249F
:1047900006480021064A08B5121A02F046F80548F4
:1047A000054A0021121A02F040F808BD90000024CA
:1047B00050060024000000200000002070B5E02317
:1047C000154E86B0012203FB0066144B144D0446BF
:1047D00005930F231349CDE90332002301EB402158
:1047E0004FF4C072CDE90133182303FB00550E4B83
:1047F0003046009500F0B4F8737B0C4A23F00403B4
:10480000EE602C7473734FF4086304FB033313449A
:104810006B6006B070BD00BF900100242D8D0008B4
:104820001006002480150024F9480008000D00241B
:10483000BFB50020FFF710FF274B83F30888274DF3
:104840000024F023264F85F82230EC772C766C7606
:10485000AC7685F820406B6A43F4E0236B62FDF789
:1048600075FDFDF731FF4FF0FF33AB62EB62FEF7F2
:104870003BF81C4DFDF74CFF1B4800F02DF9FFF7EE
:104880005BFEFDF76DFA0120FFF7E6FE0220FFF761
:10489000E3FE00F0ADFC154B15494FF480629D61BD
:1048A0002846144B009405930123CDE90144CDE93A
:1048B00003433B4600F054F86A7B0646284622F044
:1048C00004026A7300F09EFA2046FFF777FF3A462B
:1048D00031462846FDF7D2FE8015002400ED00E0A9
:1048E00089460008700200245003002410060024AA
:1048F00080170024937A000808B50D4B9B6893F944
:104900000E30002B09DB1024EFF3118384F312889F
:10491000BFF36F8F01F0B2FBF6E706491C23064890
:10492000064A01F078FB1C21044801F06BFB00BF34
:1049300010060024568D0008F1790008358D000816
:1049400010B5044608B9054B9C681F2204F16000AD
:1049500001F0B2FA002084F87F0010BD1006002498
:10496000F0B585B004460D9D0F9E0F2D47D13148FF
:10497000834248D1073204F158000E9F01F1800EA6
:1049800022F00702A57327730427FF32677322F012
:104990007F02C4E916007F2A4FF00000A2F1800CCC
:1049A000A060E073C4E9060005D880F31188BFF366
:1049B0006F8F384602DF8D1800270C9A2046C4F806
:1049C0008C70C4E921EC02920B9A01920A9A00922F
:1049D0002A46FDF7D1FD676546B31F22314604F133
:1049E000600001F069FA84F87F70134B9B680BB18B
:1049F000D3F890302846C4F8903005B0F0BD05F1EA
:104A000010001E28B6D940F205230C4A0C490D4867
:104A100001F001FB29460C486FF00F030E2201F054
:104A2000FAFA40F20521054801F0ECFA84F86060DA
:104A3000DBE700BFF9480008100600247E8D00085F
:104A4000A18D0008F1790008218E0008F0B587B02B
:104A50000446DDE91276EFF3058575B1194940F298
:104A60009223194A194801F0D6FA194801F0D3FAED
:104A700040F29221144801F0C5FA0595109D049565
:104A80000F9D03950E9D02950D9D01950C9D009522
:104A9000FFF766FFB6F1FF3F08BFB7F1FF3F05D054
:104AA00056EA070305D1204600F0AAFB204607B0CE
:104AB000F0BD3A46334604F11800064900F024FFE1
:104AC000F4E700BF528E00087E8D0008F1790008DF
:104AD000648E0008A368000840F20113838100235C
:104AE000C0E92133C0F89030014B9860704700BF97
:104AF0001006002438B590F90D200146437B002AAA
:104B000011DA03F07F0343731B4B984209D11B4911
:104B100056231B481B4A01F07EFA5621194801F022
:104B200071FA01F08EFE184D2A46AB6852F81C4F00
:104B3000944200D004B9EC688B4214D05BB913499D
:104B4000D523134A0E4801F066FA124801F063FAC1
:104B5000D5210F48E3E75A7BD20604D1DA897F2AB0
:104B600001D9A2692AB1A34202D0204600F0BEFDBD
:104B70002346AB6138BD00BF90010024AB8E000816
:104B8000F1790008898E000810060024F88E0008CC
:104B9000CC8E00081F8F000808B583684BB90949FF
:104BA0008F230948094A01F036FA8F21074801F09E
:104BB00029FA01F046FE437B23F0020343730023EE
:104BC000836008BD4D8F0008F1790008228F00082E
:104BD00070B590F90D20437B002A50DBD9064ED1E9
:104BE00063F07F034373274B984209D126494F2333
:104BF0002648274A01F00FFA4F21254801F002FA12
:104C0000244C2246216A52F81C3F934207D1C0E946
:104C100000210860206211E09942F8D01B68002B47
:104C2000F5D090F90E5093F90E60B542F4D0AE4233
:104C3000F2DD5968C0E9003108605860E5699542C5
:104C400000D005B9E568A3685BB91349D523134AB9
:104C50000E4801F0E0F9124801F0DDF9D5210F48C6
:104C6000CCE75A7BD20604D1DA897F2A01D9AA6916
:104C700032B1AB4202D0284600F038FDA56170BDCC
:104C8000A361FCE790010024AB8E0008F1790008D5
:104C9000898E000810060024F88E0008CC8E0008CB
:104CA0001F8F0008144A08B5936880B1597B11F032
:104CB000090F0CD11149D223114A124801F0ABF966
:104CC000114801F0A8F9D2210D4801F09BF96FF0CD
:104CD0000A01C3F89400C3F898100C494B6843F0DC
:104CE00080534B60002383F31188BFF36F8F936869
:104CF000D3F8980008BD00BF100600248E8F00086E
:104D0000648F0008F1790008F78F000800ED00E0DB
:104D100070B590F90D200146437B002A314C10DA22
:104D200003F07F03A042437309D12F4956232F4A32
:104D30002F4801F070F956212C4801F063F901F079
:104D400080FD4B7BA14263F07F034B7307D1264963
:104D50004F23264A264801F05EF94F21ECE7254C07
:104D60002246206A52F81C3F934207D1C1E9002035
:104D70000160216211E09842F8D01B68002BF5D049
:104D800091F90E5093F90E60B542F4D0AE42F2DDC7
:104D90005868C1E9003001605960E569A36895422F
:104DA00000D005B9E5688B4214D05BB91249D52310
:104DB000124A0F4801F02FF9114801F02CF9D521C2
:104DC0000E48BAE75A7BD20604D1DA897F2A01D984
:104DD000AA692AB1AB4202D0284600F087FC2B46D4
:104DE000A36170BD90010024AB8E0008898E00087D
:104DF000F179000810060024F88E0008CC8E000817
:104E00001F8F000838B50446EFF31185102383F394
:104E10001288BFF36F8F174800F0F4FC68B988233D
:104E2000154A1649164801F0F6F81249154801F0DE
:104E3000F2F88821104801F0E5F80E4800F006FD70
:104E40002046FFF7C5FE0B4800F0EAFC68B94FF4B6
:104E50009A73094A0C490A4801F0DDF805490B48E4
:104E600001F0D9F84FF49A71E4E785F31188BFF3A4
:104E70006F8F38BD34060024AF790008DC79000854
:104E8000F17900080E7A0008247A00083B7A0008BD
:104E900038B50446EFF31185102383F31288BFF36E
:104EA0006F8F1E4800F0AEFC68B988231C4A1D496C
:104EB0001D4801F0B0F819491C4801F0ACF88821F0
:104EC000174801F09FF8154800F0C0FC637B13F011
:104ED000280F0BD1A36813B12046FFF75DFE637B5B
:104EE000204623F004036373FFF772FE0B4800F0C3
:104EF00097FC68B94FF49A73094A0D490A4801F0C2
:104F00008AF806490B4801F086F84FF49A71D7E702
:104F100085F31188BFF36F8F38BD00BF34060024BE
:104F2000AF790008DC790008F17900080E7A0008F2
:104F3000247A00083B7A000870B504460D46F9B99A
:104F4000EFF30586E6B91A4B9A699B689A4217D027
:104F500000F066FC78B94FF4B773164A1649174843
:104F600001F059F82146164801F055F84FF4B77191
:104F7000104801F047F83046BDE87040FFF792BE98
:104F8000204600F04DFC68B94FF49A73094A0A496B
:104F90000A4801F040F82146094801F03CF84FF476
:104FA0009A71E5E785F31188BFF36F8F70BD00BF7D
:104FB00010060024AF790008247A0008F17900086F
:104FC0003B7A0008034648B9EFF3058232B9064A36
:104FD00091699268914201D0FFF764BE83F3118812
:104FE000BFF36F8F704700BF1006002410B5EFF3BA
:104FF0001184102383F31288BFF36F8F284800F0C9
:1050000001FC60B98823274A2749284801F003F8A2
:105010002349274800F0FFFF8821224812E020485A
:1050200000F014FCEFF3058373B1224940F206331C
:10503000214A1E4800F0EFFF204800F0ECFF40F24C
:1050400006311D4800F0DEFF1D4B9A68D37B012B13
:105050000CD11C4940F20733174A144800F0DBFF1B
:10506000164800F0D8FF40F20731EAE7013BD3735E
:105070000B4800F0D5FB68B94FF49A73094A1249FE
:105080000A4800F0C8FF0649104800F0C4FF4FF47A
:105090009A71C2E784F31188BFF36F8F10BD00BF10
:1050A00034060024AF790008DC790008F1790008A3
:1050B0000E7A0008528E0008898E00081F8F0008A3
:1050C000100600241F900008247A00083B7A00088C
:1050D00070B5EFF31186102383F31288BFF36F8F3F
:1050E000374800F08FFB60B98823364A3649374885
:1050F00000F091FF3249364800F08DFF8821314899
:1051000013E0344D2E4800F0A1FBAB68DA7B72B996
:10511000314940F21233314A2C4800F07CFF3048CC
:1051200000F079FF40F212312C4800F06BFFEFF3F2
:10513000058161B12B4940F21333284A234800F01E
:105140006AFF274800F067FF40F21331ECE70132B5
:10515000DA732A4652F81C4F944200D004B9EC6826
:105160005A7BD20604D1DA897F2A01D9A2692AB1F1
:10517000A34202D0204600F0B9FA23461048AB61A2
:1051800000F04EFB68B94FF49A730E4A16490F4867
:1051900000F041FF0A49154800F03DFF4FF49A71B5
:1051A000ADE786F31188BFF36F8FEFF31180102303
:1051B00083F31288BFF36F8FBDE87040FFF702BF23
:1051C00034060024AF790008DC790008F179000882
:1051D0000E7A00081006002450900008898E0008FE
:1051E0001F8F0008528E0008247A00083B7A0008BE
:1051F000024B03F11C02C3E907227047100600248A
:1052000038B50446EFF31185102383F31288BFF3FA
:105210006F8F204800F0F6FA68B988231E4A1F49AC
:105220001F4800F0F8FE1B491E4800F0F4FE8821DC
:10523000194800F0E7FE174800F008FB637B5B07A6
:1052400010D504F1180000F03BFC637B204623F0EE
:1052500004036373FFF7BCFC29460E48BDE83840E1
:10526000FFF76ABE0B4800F0DBFA68B94FF49A7397
:10527000094A0D490A4800F0CEFE06490B4800F0E5
:10528000CAFE4FF49A71D3E785F31188BFF36F8F8D
:1052900038BD00BF34060024AF790008DC7900086F
:1052A000F17900080E7A0008247A00083B7A000899
:1052B000014B9868704700BF100600242DE9F843A1
:1052C0000446077BEFF31185102383F31288BFF3A5
:1052D0006F8F7D4800F096FA68B988237B4A7C4935
:1052E0007C4800F098FE78497B4800F094FE8821C5
:1052F000764800F087FE744800F0A8FA637B19072F
:1053000017D5714800F08CFA68B94FF49A736F4A58
:105310007249704800F07FFE6B49714800F07BFED7
:105320004FF49A71E4E785F31188BFF36F8FBDE8FE
:10533000F883D90943F0080240F083806273A368C0
:1053400013B12046FFF728FC04F1180004F15808B7
:1053500000F0B6FBA66DB04511D04FF0000976B154
:105360003046FFF719FC06F1180000F0A9FB3046A3
:10537000C6F89890FFF72CFCA66DB045EFD1DFF88A
:105380008881D8F808309C4270D1EFF30589B9F1D3
:10539000000918BF4FF00109D8F81C60514A964225
:1053A00000D00EB9D8F80C60B34202D0304600F0FD
:1053B0009DF92046C8F8186000F057FEB9F1000FBB
:1053C00002D04948FFF788FBD8F808309C4260D1EA
:1053D000EFF30586002E5CD1237BDA071FD53A4810
:1053E00000F01EFA002890D085F31188BFF36F8F6C
:1053F00086F31188BFF36F8F0423184602DFEFF3A3
:105400001185102383F31288BFF36F8F2E4800F0AD
:10541000F9F900283FF461AF2B4800F017FA2A4849
:1054200000F0FEF928BB4FF4B773284A2B492948EE
:1054300000F0F1FD24492A4800F0EDFD4FF4B7716A
:1054400056E703F07F0343F008036373274B9C4246
:1054500008D127495623274A1E4800F0DCFD562173
:10546000244846E7204601F0ECF968E74FF00009D0
:1054700092E72846FFF716FC1F494FF4DD731D4ADB
:10548000144800F0C8FD1D4800F0C5FD4FF4DD7163
:10549000E6E70D4800F0C4F900283FF436AF85F385
:1054A0001188BFF36F8FFB077FF541AF40F2455383
:1054B000104A1349074800F0AEFD2146114800F09C
:1054C000AAFD40F24551CBE734060024AF7900082D
:1054D000DC790008F17900080E7A0008247A0008C7
:1054E0003B7A00082C06002450030024900100247D
:1054F000AB8E0008898E0008819000088C9000080F
:10550000AE900008B9900008100600242DE9F04183
:10551000044616461D46EFF31187102383F31288C5
:10552000BFF36F8F3F4800F06DF960B988233E4AA2
:105530003E493F4800F06FFD3A493E4800F06BFDA0
:105540008821394823E0374800F080F9637B1B0746
:1055500048D455EA060358D0DFF8F480D8F808009C
:10556000A04255D000F15803A2689A4250D0EFF300
:10557000058373B1304940F26753304A2C4800F03C
:105580004AFD2F4800F047FD40F267512B4800F0DC
:1055900039FD04F1580101F05CF9B5F1FF3F08BF96
:1055A000B6F1FF3F07D0D8F8080032462B46254910
:1055B000183000F0A9F91B4800F032F968B94FF42F
:1055C000B773194A20491A4800F025FD15491F48AC
:1055D00000F021FD4FF4B771B3E73846BDE8F04164
:1055E000FFF760BB00240F4800F01AF998B94FF498
:1055F0009A730D4A14490E4800F00DFD09491348ED
:1056000000F009FD4FF49A719BE76FF00F04EAE791
:105610006FF02C04E7E787F31188BFF36F8F204604
:10562000BDE8F08134060024AF790008DC79000879
:10563000F17900080E7A0008528E0008898E000861
:10564000D7900008A3680008247A00083B7A000875
:105650001006002408B568B10F4B98420AD303F135
:105660001802904206D2C01A1822B0FBF2F302FBD5
:1056700013034BB10949382309480A4A00F0CBFC0F
:105680003821084800F0BEFC074BC01001225843E7
:10569000064B1A5408BD00BF3004002414910008C2
:1056A000F1790008EC900008ABAAAAAA4E060024E3
:1056B000C3897F2B12D80A4B1B6863B1094B90F941
:1056C0000E201B689A4209DB437BDB0606D1064BA2
:1056D000C31A18BF012303F0010070470023FAE743
:1056E0003C0000243C060024900100240E4B70B5C1
:1056F0001E7C05460D4C06EB460304EBC304204616
:1057000000F0DEF90A4B002228469A55FFF7D0FF39
:1057100048B1084B204608491A68013ABDE8704074
:10572000D31700F0F1B870BD100600243004002437
:105730004E0600243C0000245556000838B5EFF30F
:105740001185102383F31288BFF36F8F234800F075
:1057500059F868B98823224A2249234800F05BFCA3
:105760001E49224800F057FC88211D4800F04AFCE1
:105770001A4800F06BF81E4B1E4A9C681068A04245
:1057800013D1FFF7B3FF154800F04AF808BB4FF4F8
:105790009A73134A1849144800F03DFC0F49174802
:1057A00000F039FC4FF49A71DFE700211B7C116097
:1057B000134AD35C002BE6D02046FFF779FF002880
:1057C000E1D0637BDB0602D12046FFF7A1FA204639
:1057D000D7E785F31188BFF36F8F38BD34060024F7
:1057E000AF790008DC790008F17900080E7A00082A
:1057F0001006002438060024247A00083B7A0008AA
:105800004E060024006838B1044B00F003001B7CF6
:10581000C01A18BF012070470120704710060024ED
:10582000002302680360EFF30581074B19B1996803
:10583000497BC90706D4197C98680843831A5842E3
:10584000584170470120704710060024024B1A7C13
:105850009B68134303607047100600240A480B4AF4
:105860000B49121A08B500F0E2FF0A480A4A0B4930
:10587000121A00F0DCFF0A480A4A0B49121ABDE866
:10588000084000F0D4BF00BF0000002490000024B6
:105890004493000800000024000000244493000802
:1058A0000000002000000020D4930008024B18687C
:1058B000984208BF0020704740000024034B1B683B
:1058C0000BB9FEF7D1BC0020704700BF4006002492
:1058D00030B570B10B4B5B6898420AD0036843B196
:1058E000D3E90421D0E90445121941EB0501C3E9CC
:1058F0000421D0E9003213605A600023C0E900336C
:1059000030BD00BF40000024B3F1FF3F08BFB2F13B
:10591000FF3F2DE9F84F04469B4615461F4600F011
:10592000B280D0F80090B9F1000F0CD05749722323
:10593000574A584800F06FFB574800F06CFB722143
:10594000534800F05FFB8160EFF31188102383F36D
:105950001288BFF36F8F5148FFF754FF824660B93A
:1059600088234F4A4F494B4800F055FB4B494E485E
:1059700000F051FB88214A48E3E74848FFF766FFFB
:10598000BBF1000F494A1FDBFFF798FF0135474A7B
:1059900006464BF1000B2D18D2E900174BEBE073D4
:1059A000C4E904536D1843EB0707FFF77FFFDFF8E7
:1059B0000CE10346DEF80490EBB9C4E900E9C9F84C
:1059C0000040CEF8044028E0D2E900126FF0010355
:1059D0004FF0000A5B1A4FF0FF3161EB02025B1BD4
:1059E00062EB0B02012B72F10001BCBF01234A469E
:1059F000C4E90432D9E7D3E9041CD4E904208A427B
:105A000070EB0C0B2EDA891A5A686CEB0000C3E9B4
:105A10000410C4E9003214605C60FFF747FF844261
:105A20000ED1234B1B685BB9BAF1000F02D1FFF70F
:105A300045FF0646304600F038FF0021FEF762FBC6
:105A40001648FFF7EDFEB0B94FF49A73144A19499E
:105A5000104800F0E0FA1149174800F0DCFA4FF462
:105A60009A7188E7521A60EB0C009945C4E904204A
:105A7000A3D01B68A0E788F31188BFF36F8F284677
:105A80003946BDE8F88F00252F46F8E7E99200086F
:105A9000C5920008F17900081F8F00084406002411
:105AA000AF790008DC7900080E7A00084804002469
:105AB00040060024247A00083B7A000840000024B5
:105AC00070B50446EFF31186102383F31288BFF3F9
:105AD0006F8F2348FFF796FE68B98823214A224931
:105AE000224800F098FA1E49214800F094FA8821D3
:105AF0001C4800F087FA1A48FFF7A8FE236833B362
:105B0000FFF7D4FE05462046FFF7E2FE00224FF0E5
:105B10000043A542C4E9042306D1FFF7CFFE00F0FD
:105B2000C4FE0021FEF7EEFA00240D48FFF778FED0
:105B300080B94FF49A730B4A0E490C4800F06BFA87
:105B400007490D4800F067FA4FF49A71D0E76FF0FB
:105B50001504EAE786F31188BFF36F8F204670BD06
:105B600044060024AF790008DC790008F1790008C8
:105B70000E7A0008247A00083B7A00082DE9F04DDF
:105B80000446EFF31186102383F31288BFF36F8F5F
:105B90004348FFF737FE68B98823424A42494348E1
:105BA00000F039FA3E49424800F035FA88213D4874
:105BB00000F028FADFF808814FF0000A38484FF06B
:105BC000000BFFF743FE3B4FC8F80040FFF76EFEA7
:105BD0000446D8F80030D7E9001CD81754B1D4E9EE
:105BE0000452AB4270EB020E1FDAED1A62EB0002B8
:105BF000C4E904525B184FF000044CEB0000C8F8F5
:105C00000040C7E90030204600F04FFE2146FEF775
:105C100079FA2348FFF704FEA8B186F31188BFF391
:105C20006F8FBDE8F04DFFF789BD691820464CEB3A
:105C3000E573C4E904ABC7E90013FFF749FE184850
:105C4000FFF7EEFD68B94FF49A73164A1A491748E0
:105C500000F0E1F91249194800F0DDF94FF49A71AA
:105C6000A5E786F31188BFF36F8FA3682046984796
:105C7000EFF31186102383F31288BFF36F8F084868
:105C8000FFF7C0FD002887D00548FFF7DFFDD8F8F3
:105C900000305B1BC8F80030FFF708FE044698E7A9
:105CA00044060024AF790008DC790008F179000887
:105CB0000E7A000848040024247A00083B7A000881
:105CC00040060024014800F040B900BF09930008D5
:105CD00010EE103A40F22A41C3F30A528A42B7EE5C
:105CE000C03A32D8B7EE000B2D4B93ED4A2B93ED13
:105CF000481BB0EE417BA2EE037B17EE100A37EE95
:105D0000417B00F01F0203EBC20130B492EE037B33
:105D100093ED4C4B53F832404D6893ED4E6B93ED41
:105D2000505BA4EE076B27EE074B00210A1905EB29
:105D3000C033A5EE070B43EC172BA6EE040B30BCCB
:105D400020EE070BB7EEC00B704713F5000F20D005
:105D5000B2F5FF6F1AD2DFED137AB4EEE70AF1EE77
