:020000040800F2
:10000000C01B0020A92000085B6C00089520000898
:1000100095200008952000089520000800000000A9
:10002000000000000000000000000000692100083E
:10003000952000080000000009210008E94500089B
:10004000F1220008F1220008F1220008F122000844
:10005000F1220008F1220008F1220008F122000834
:10006000F1220008F1220008F1220008F122000824
:10007000F1220008F1220008F1220008F122000814
:10008000F1220008F1220008F1220008F122000804
:10009000F1220008F1220008F1220008F1220008F4
:1000A000F1220008F1220008F1220008F1220008E4
:1000B000F1220008F1220008F1220008F1220008D4
:1000C000F1220008F1220008F1220008F1220008C4
:1000D000F1220008F1220008F1220008F1220008B4
:1000E000F1220008F1220008F1220008F1220008A4
:1000F000F1220008F1220008F1220008F122000894
:10010000F1220008F1220008F1220008F122000883
:10011000F1220008F1220008F1220008F122000873
:10012000F1220008F1220008F1220008F122000863
:10013000F1220008F1220008F1220008F122000853
:10014000F1220008F1220008F1220008F122000843
:10015000F1220008F1220008F1220008F122000833
:10016000F1220008F1220008F1220008F122000823
:10017000F1220008F1220008F1220008F122000813
:10018000F1220008F1220008F1220008F122000803
:10019000F1220008F1220008F1220008F1220008F3
:1001A000F1220008F1220008F1220008F1220008E3
:1001B000F1220008F1220008F1220008F1220008D3
:1001C000F1220008F1220008F1220008F1220008C3
:0801D000F1220008F1220008F1
:1001D80053B94AB9002908BF00281CBF4FF0FF31A6
:1001E8004FF0FF3000F00CB8ADF1080C6DE904CE0B
:1001F80000F010F8DDF804E0DDE9022304B07047F0
:10020800704700BF034613F8012B002AFBD1181AC8
:10021800013870472DE9F04786468C460846089E07
:10022800154674461946002B40F0C2808542B2FA42
:1002380082F245D94AB1C2F1200300FA02FC2EFA33
:1002480003F3954043EA0C0C94404FEA154EA8B2CC
:10025800BCFBFEF8230C0EFB18CC08FB00F943EAA4
:100268000C43994528D9EB1808F1FF3704D2994572
:1002780002D9A8F102072B44A3EB0903A4B2B3FBEC
:10028800FEFC0EFB1C330CFB00F044EA0344A042C6
:1002980014D92C190CF1FF3304D2A04202D9ACF1C5
:1002A80002032C44241A43EA07401EB1D440002319
:1002B80034607360BDE8F0874746DDE76346F1E7E1
:1002C80092BB431B01214FEA154EAFB2B3FBFEFCB4
:1002D800200C0EFB1C330CFB07F840EA034398453F
:1002E80062D9EB180CF1FF3004D2984502D9ACF171
:1002F80002002B44A3EB0803A4B2B3FBFEFC0EFBE5
:100308001C330CFB07F744EA0344A7424ED92C19C7
:100318000CF1FF3304D2A74202D9ACF102032C44FA
:10032800E41B43EA0040C0E7C2F1200320FA03F1CE
:10033800954090402EFA03F303434FEA154EAFB2AF
:10034800B1FBFEFC0EFB1C10190C0CFB07F841EA74
:100358000041884504FA02F422D969180CF1FF30EB
:1003680004D2884502D9ACF102002944A1EB080166
:100378009BB2B1FBFEFC0EFB1C110CFB07F743EA1A
:1003880001439F420ED9EB180CF1FF3104D29F4272
:1003980002D9ACF102012B44DB1B41EA004192E790
:1003A8006046E3E76146F7E76046A3E76346B7E7D9
:1003B800834206D916B9002108467BE7C6E900E062
:1003C800F9E7B3FA83F78FB9834201D3724508D8A6
:1003D800BEEB020460EB030301209C461EB900211A
:1003E80068E73846FAE7C6E9004CF8E7C7F1200C99
:1003F800BB4022FA0CF41C432EFA0CF120FA0CF341
:10040800B84001434FEA14490EFA07F5B3FBF9F86F
:100418001FFA84FE09FB18300B0C08FB0EFA43EA9E
:1004280000439A4502FA07F240D9E31808F1FF3071
:1004380004D29A4502D9A8F102002344A3EB0A0387
:1004480089B2B3FBF9F809FB183308FB0EFE41EA41
:1004580003418E452CD9611808F1FF3304D28E452B
:1004680002D9A8F10203214443EA0040A0FB029804
:10047800A1EB0E014145CE46434602D306D14D4578
:1004880004D2B9EB020E68EB04030138002EA6D0A3
:10049800B5EB0E0261EB030101FA0CFC22FA07F33B
:1004A8004CEA0303F940C6E9003198E74046C5E73E
:1004B8004346D9E74B7A102B04D103480022002386
:1004C80007F088BA704700BFB8000020014602480C
:1004D8008368DB68184700BFD07F00082DE9F04F1C
:1004E800C5B002AFB34D284607F02EFA58B9B24A44
:1004F800B248012105F0F3FE4FF0FF3007F586778B
:10050800BD46BDE8F08FDFF8B882404607F01CFA18
:1005180008B9AC4AECE7DFF8B0B2584607F014FA6D
:1005280008B9AA4AE4E7AA4CD8F8089094E80F005A
:1005380007F1200686E80F003146D9F80830404612
:100548009847031EFB6007DAA24AFB689B48012113
:1005580006F0B3FA0020D1E70021D9F80030404670
:100568009847031E01DA9C4AF0E7DBF81020DBF815
:100578000810136843F4005313600B684FF001121E
:100588000D21584698476E4688B02B6802AA9349B1
:10059800C2E905134FF400739383914B42F8103F5F
:1005A800864800234FF4E65100F0E8FFB546AB68F3
:1005B80028465B6898471034064694E8070007F118
:1005C800140383E8070087490022284602F0CEFA80
:1005D800854A7A48DFF8E4A13346032106F06DFA2C
:1005E8004222002107F1360007F05DFB012387F85E
:1005F80035307E4B3B634FF00008082387F83430D2
:10060800C7F808804546C146444679480022002379
:1006180007F1780104F0F6FB064640BB5046754AE0
:10062800032105F05CFE4422314607F1C40007F0BF
:100638003AFB4FF4FD63C7F8C030082387F8C4308D
:10064800022387F8C830502387F8C930012387F878
:10065800CA30002207F1C001CDE9006655480023E1
:1006680002F016FA644A0321504605F038FEDBF81A
:1006780010307B60DBF8083053485B6807F1C00135
:1006880098470646E8B97B681A68D7F8C0305340DF
:100698009B0416D407F0C7FA00230A22FFF798FD37
:1006A80055EA090308BF05468046F868B96008BFDF
:1006B8008946FFF70BFFB4F57A6F67DBF3009BB24F
:1006C8002FE055EA09034FD0BB68B8EB050563EB8B
:1006D8000909B5F5FA6F79F100090BDB474A0221E0
:1006E800504605F0FCFDB4F57A6F48DB0025A946B5
:1006F8002E46E3E7424A0321504605F0F0FDF8682C
:10070800FFF7E4FE3F4A46F2A8130121504606F0DF
:10071800D4F9002C3FD10025A94646F2A8164FF679
:10072800FF7387F83B301B0A87F83C300023CDE97C
:10073800003320480023002207F1300102F0A8F915
:10074800034698BB304A33460321504606F0B5F9B4
:100758002E4A0321504605F0C2FD4FF47A7000215D
:1007680007F0F6F9344650E7F868FFF7AFFEB4F53E
:100778007A6FBBDA64B90025A94664269EE7002C87
:10078800F9D0002504F16406A94697E7002CF4D0B7
:1007980004F1640692E7C4F5C3442834642CBADD36
:1007A8001B4A0121504605F09AFDB4E7194A012178
:1007B800CBE700BFF07F0008C4870008308400083A
:1007C800D07F0008D9870008307F0008F387000829
:1007D800908400080B8800082788000841880008D2
:1007E80003000001BD040008568800080004F01842
:1007F800B8000020A1880008D4880008EA8800080A
:10080800208900084689000893890008C6890008DD
:100818006E890008AC8900082DE9F04F91B0840773
:10082800009302F004030293C2F3C20303F101032D
:10083800DDF86880039205460E46059340F0BA81BC
:10084800041D30B1072909D86FF01B0011B0BDE8AD
:10085800F08F01F007063444C6F10806009B4FF0FC
:100868000009591E4FF0040A4FF0FF330193CDF8E9
:1008780010904F46CB4653460DB1009A226005981A
:10088800002800F3E8809848009A824203D39748EA
:100898008242C0F0E080039AA4EB050E92074FEA6B
:1008A8009E0000F103810F2F00F2B180002D00F0AF
:1008B800058107F140020DEB020C019A0CF8200C9F
:1008C8000CF8102C049801300490E7E07A285DD8E1
:1008D8004B280ED8472859D829282DD8252852D052
:1008E80054D820287AD02338D0F1000B4BEB000BDA
:1008F80074E04C382E2849D8DFE800F070484848A2
:1009080048484848484848484B484848484848485C
:100918004859484B4B595959704B6D487048184BBA
:10092800184848827F4B48484B487F0000204FF0CA
:10093800000B4FF0040A38E02A38C0B2012202FA4C
:1009480000F010EA0E0F49D110F0625C2FD110EAC6
:10095800020B43D06046013C5444B4FBFAF40AFB52
:1009680004F4002D61D0A3EB050CA444B4453FF674
:100978006BAF002868D1042B47D158F8043B23609B
:10098800043404232AE0019A013A01924FF0000B43
:1009980024E011F8010C6C2834D111F8023C002035
:1009A8006C2B8346C5D14FF0080A5346D3E708F1AC
:1009B800070828F007080734F8E802AB24F0070412
:1009C80035B106982044B0423FF63EAFC4E900ABCB
:1009D80008344FF0000B4FF0080A534611F8010F86
:1009E800002878D0BBF1000F7FF470AF2528F5D12F
:1009F800019B013301934FF0010B4FF0040AECE720
:100A0800584694E700208346A5E7082B02D06FF0EC
:100A180015001BE708F1070828F00708F8E8022383
:100A2800C4E9002308340823D8E768B9042B02D1A5
:100A380008F10408A4E7082BE9D108F1070828F011
:100A4800070808F10808EDE7059A013A059258F8F1
:100A5800042B009210E7039A900720D5A4EB050E0B
:100A68004FEA9E004FF0010CBEF5007FCFD20F2F4A
:100A7800CDD8F5B107F140020DEB020EC0B2019AD4
:100A88000EF8200C0EF8102CBCF1000F3FF41AAF32
:100A980060F07F000EF8200C09F101090137C5F15B
:100AA8000802043406924FF6DA7E97E74FF0000CFE
:100AB800DAE7BCF1000F01D00136EFE70298023601
:100AC8000028EBD10098CDE90631FFF79BFBDDE963
:100AD80006310644E2E7631BB3F5806F97D23DB950
:100AE800A6F10804E018B1E6A87D0008F899000806
:100AF800029A28609B082B709DF81030C2B1EB70E9
:100B080085F80290B9F1000F05D008A80022C5F1B8
:100B1800010C97420ED1C5F101030DF120084FF0E9
:100B2800000A01930DF1300B574512D1601B8DE679
:100B38006B70E5E710F8013B190608D50CEB040EBD
:100B4800B64503F07F033FF67FAE04F8013B013260
:100B5800DFE7B9F1000F03D098F90020002A17DB6E
:100B6800029BD3B11AF80B2004F8012B0022019B39
:100B780018191044B0423FF667AE98F8000004F820
:100B8800010B00990392204607F07FF8039A14445A
:100B98000AF1010A08F10108C6E798F8002055F89B
:100BA80022300093029B45F822300098FFF72AFB79
:100BB800421CDCE76FF00D0048E600BF2DE9F04F5E
:100BC80097B000AF90F802A0D7F880B03B62CBF3A3
:100BD800C0030446FA62BB61894641B9457800788A
:100BE8000AEB800020444D4517D8A0EB0409E378B0
:100BF800FB61BAF1000F02D01BF0010F16D1FB699F
:100C080053BBFB6A1BB13A6A4946204698474D4692
:100C180028465C37BD46BDE8F08F461C3046FFF7D6
:100C2800F1FA0130304409F10109DCE72378626800
:100C38007A62FA6A9900796104EB8301002A40F02C
:100C480000814D460E4601EB0A094FF000084E455B
:100C58004CD101EB0A0610E01BF0020FD1D023782B
:100C68009A007A6162687A62FA6A04EB8301002A60
:100C780077D14D4601EB0A0690461BF0050F0CBFD5
:100C880002230123FB62FB6906EB430A0BF0020314
:100C9800BB625645BCD016F8021B16F8013C54F846
:100CA8002390994B994502D3984B994536D3BB6904
:100CB800002B40D0786A05F0AEFB00283BD0E9460F
:100CC8008AB06A46924B53617B6AC2E906314FF497
:100CD800007313848F4B42F8103F8F4800234FF462
:100CE800125100F04BFC023DCD46D2E716F8013B0D
:100CF800F96254F82300FFF785FAD7F88430F96AC7
:100D080001304BB1D7F8883098453EBFD7F88430CA
:100D180023F8180008F10108054498E7BB6923B1D6
:100D2800786A05F078FB0028C9D11BF0010F05D1BE
:100D3800FB6AED1AADE7BB6A002BAAD04846FFF75D
:100D480061FAD7F8843053B1D7F8883098453FBF57
:100D5800D7F88420431C22F8183008F1010805440C
:100D680097E7BAF1000F72D01BF0040672D0D04694
:100D7800002607F1480052463B61B96206F085FF3C
:100D8800B96A3B6901EB0A02BA62FA69F969520069
:100D9800FA60BA6A02EB41023A610BF00202BA60E9
:100DA8003A69B96A8A4257D162787A621BF0020FAF
:100DB80032440CBF4FEA580100211BF0010FD2B298
:100DC80040F09F801BF0040F14BF40460020BB6119
:100DD8006270A070E1703A6A7969FB6A20469847A8
:100DE800051EFFF615AFBB6923707B6A6370FB694C
:100DF800E37041463A6AFB6A84F802A007F14800AA
:100E08009847B0F10008C0F2BB807B693A6AA9EB49
:100E18000A01C91AFB68C91AD7E90A0398470028C2
:100E2800C0F2B080A84408EB00054FF0000B07F1B2
:100E3800380AB34572D300213A6AFB6A08469847D4
:100E4800E6E656464FF0000807F1380093E75646A5
:100E5800D04697E7B04695E7BA6A12F8021BBA621D
:100E680012F8015C284A54F82500904202D3274A18
:100E780090421ED3BA6932B1786A7B6005F0CBFA2A
:100E88007B6800288CD1BA6802BB08F1280207F1F8
:100E9800300C08F10100944407F1580252FA80F02E
:100EA80008F102080CF8101C5FFA88F800F8105CCA
:100EB80076E7BA693AB1786A7B6005F0ACFA7B6884
:100EC80000287FF46DAF1BF0010F09D006F128024E
:100ED80007F13000711C161806F8205CCEB25FE7E7
:100EE8001BF0040F3FF45CAF08F1280207F1300053
:100EF80008F1010102EB000808F8105C5FFA81F8BC
:100F08004EE7002063E700BFA87D0008F8990008B5
:100F1800488A000804000001288400081BF80A30E9
:100F280087F8373054F82390D7F884302BB3D7F8A4
:100F380088309B4521D2D7F8843033F81B803A6A31
:100F4800FB6A012107F13700984700281ADB05449E
:100F5800B8F1000F06D14846FFF754F900F101082F
:100F68001FFA88F83A6AFB6A4146484698470028BB
:100F780008DB05440BF1010B5BE74FF00008DEE7E7
:100F8800454645E6054643E6014B1860704700BFF5
:100F98000000002080B505460E461746984604F026
:100FA800C1FB034606F0F2FEDFF81890044649F844
:100FB8000030424630463946A84754F8090001F047
:100FC80089F800BF08000000034A536823F00203B1
:100FD80053600020704700BF002004E0134B1A68DC
:100FE80042F400721A601A6842F480621A601A6841
:100FF80042F480721A600E4B0E4A1A600E4A536809
:1010080043F0010353600D4B9A6D42F080529A658C
:101018009B6D0B4A82B003F080530193019B936848
:1010280043F48043936002B0704700BF0020024041
:10103800400000200024F400002004E000100240DA
:10104800007000402DE9F047DFF858800446074655
:101058004FF0010914B93846BDE8F08794FAA4F5B1
:10106800B5FA85F509FA05F32E0108EB05156FEABF
:10107800030A24EA03042B7B002BEBD058F8063034
:101088001B694BB94644042273682846196807EA65
:101098000A0705F099FCDDE7284698470028D9D1CA
:1010A800F0E700BF8084000830B51049104889B0C7
:1010B800002206F0BAFD0F4D0F4900220023CDE9AA
:1010C800062300240E23CDE90334CDE901440B4B5C
:1010D80000944FF44072284604F064F80849284602
:1010E80006F0A0FC204609B030BD00BF0D11000875
:1010F80078050020F0000020C00A0020291400080C
:10110800108B0008014803F0A7BF00BFE0000020D3
:101118002DE9F047804620480F4605F02DFC06468D
:10112800002832D000252846BDE8F087237B83B10C
:101138002368DB680BB120469847636883F80690FC
:1011480023681B69CBB9636804221968204605F037
:101158003BFC013610345445E8D3B8F1000FE2D017
:10116800002DDFD02846FFF76DFF0546002FF7D08A
:101178000021642006F0ECFCF2E72046984700289E
:10118800E1D009FA06F31D43E3E7044CDFF810A0A9
:1011980005464FF00109DEE770070020808400084B
:1011A80090840008014B53F820007047C084000861
:1011B80008B5034608462BB1044A136000F074FCD6
:1011C800002008BD6FF01500FBE700BF04000020F9
:1011D80010B5044C237813B9034803F03DFF0123ED
:1011E800237010BD8C0A0020E000002010B50446D2
:1011F8000B4805F0C1FB5CB1BFF35B8F094B53E8AB
:10120800001F013943E80012002AF8D1BFF35B8FB1
:10121800054806F016FD0548BDE8104003F01CBF60
:10122800680700206C07002078050020E0000020F7
:101238000020064BBFF35B8F014653E8000F43E8DD
:101248000012002AF9D1BFF35B8F704768070020AE
:1012580070B5FFF7EDFF084C084E0546B44200D3C1
:1012680070BD63685B792BB123685B6813B129464D
:10127800204698471034F1E78084000890840008DD
:1012880010B5044C0449204605F0FCF9034B1C60DA
:1012980010BD00BF7C000020AC840008600700205F
:1012A8000D4A0E48002310B513700D4A13600D4AFD
:1012B8004FF47A711360FFF77BFFFFF7E1FF0A4BEA
:1012C8000A4918468B4200D310BD1A1A5C681211DD
:1012D800013222711033F5E78D0A00209B6900085E
:1012E800680700206C0700208084000890840008AC
:1012F800014600220148002305F0E5B97C000020E2
:10130800014805F07EBA00BF7C000020024B014670
:10131800186805F0CABA00BF60070020014805F048
:10132800FFBA00BF7C00002070B5264B1878002853
:1013380046D0FFF7E5FF054600283ED1224B234C57
:101348001B68002B12DD06F06EFC0A220023FEF754
:101358003FFFD4E90032C01A40F2E93361EB0201E1
:10136800984271F1000101D3FFF772FFD4E900320E
:1013780013F57A7342F10002C4E90032BDE8704007
:10138800FFF7CCBF63685B7923B1236829461B68E4
:10139800204698471034B442F4D32846FFF7B6FFE6
:1013A800BFF35B8F0A4B53E8001F013943E8001273
:1013B800002AF8D1BFF35B8FC0E7064C064EEAE778
:1013C80070BD00BF8C0A002068070020700500204F
:1013D8006C070020808400089084000870B50D4DCB
:1013E800297861B90120FFF793FE0B4C0B4EB442EC
:1013F80006D3FFF799FF0028FBD101232B7070BD9E
:1014080063685B791BB1236820469B689847103452
:10141800EDE700BF8D0A0020808400089084000852
:1014280000212DE9F0470846FFF772FE044658B33D
:101438004FF4FA784FF0000906F0A8FC1B4B1C4A41
:101448001B58136033B11B4B1B68092B02DD1A486C
:1014580003F002FE194FDFF860A0002544B12046D2
:10146800FFF7F0FD044618B94FF0FF384FF0FF3989
:10147800FFF75AFF064628B9B5B942464B465046CB
:1014880003F01EFE3546E9E74FF0FF384FF0FF390D
:10149800D2E72B689B691BB1002211462846984762
:1014A8001035BD42F5D3E8E7054DFAE7080000001E
:1014B800640700206C070020E000002090840008EA
:1014C8008084000813B5184805F056FA174B1B78A6
:1014D80073B1EFF31184102383F31288BFF36F8F76
:1014E800FFF722FF84F31188BFF36F8F02B010BD9E
:1014F8000F4B1B68002BF9D050B900220023CDE90F
:1015080000230C4842F21072002304F011FCEDE7AE
:101518000928EBD1074806F094FB074802B0BDE85C
:10152800104003F099BD00BF6C0700208D0A002011
:101538006407002078050020E000002010B5064B65
:101548001B68044698472146A060044805F03AF90C
:10155800BDE81040FFF7B6BF040000207C00002063
:10156800044A054B9B1AB1EBD30F34BF52F8310034
:101578000020704710840008808400082DE9F04F8F
:101588008FB004AFC1F34A28B8600D4691467B601E
:101598000C0DB8F1000F63D0002607F114034FF0CB
:1015A800040B4FF00A0AC7F80C80C7E907667E6289
:1015B8000193CDF808B0CDF800A007F11C03F96835
:1015C80032464846FFF7FAFAB0F5006F03461CD3D7
:1015D8006C468AB0D9F8041004AB2648C3E9050163
:1015E80040F2FF71D9611A464FF400711984224BF9
:1015F80042F8103F214833464FF41251FFF7BEFF1F
:10160800A5462C37BD46BDE8F08FC0F30A0804F1A3
:101618001700184420F0070080083B60FFF768FEB9
:1016280068F35325044690B13B68154AC7E9083664
:1016380000F1100107F11403F961CDE900A3CDF819
:1016480008B0F96807F11C034846FFF7B7FA68F3D2
:1016580053257B68B9682A46204605F0D5F9D0E7B6
:1016680004F1170020F007008008FFF741FE044648
:10167800EDE700BF258B0008040000014084000846
:10168800E36900082DE9F04F87B0DDE91279DDE95B
:10169800105A0446039193469846BFB1CDF800907E
:1016A8003B46524610210020CDF81490FFF7B4F8BD
:1016B800B0F5006F06460AD3184A194840F2FF737E
:1016C800022107B0BDE8F04F05F0F7B93E4605F135
:1016D8001700304420F0070004F007048008FFF7E3
:1016E80007FE0BF0070BE40044EA8B1444EA462497
:1016F80044EA0554054640B13FB1CDF800903B4659
:10170800524631461030FFF787F803994346224680
:10171800284607B0BDE8F04F05F076B9648B00089D
:1017280040840008406820B1034BC01A40F3CF0042
:1017380070474FF0FF307047108400080EB403B5AF
:1017480003AB014653F8042B0448019300F052FF01
:1017580002B05DF804EB03B0704700BF256B0008CA
:10176800CA0605D48B064CBF02490349FFF7E6BFFA
:10177800704700BF9D8B00089C8B00082DE9F04F37
:1017880089B09B46149B06939DF84CA0159B059326
:10179800169B179E049304460D469046BAF1000F17
:1017A80000F09D8006F48073079305F00BF906F0AE
:1017B8000209024600283ED091492046FFF7BEFFA5
:1017C8000746B9F1000F08D016F0440F35D18D49FE
:1017D8002A462046FFF7B2FF074406F0010353B13B
:1017E800894B8A4953F82A20894B2046002A08BF8A
:1017F8001A46FFF7A3FF06F48073002B49D006F0C2
:101808000803002B63D1B8F1000F66D08149424626
:101818002046FFF793FF0546069B3D44002B6DD1FC
:10182800049B002B73D1F30700F1E4803146204676
:10183800FFF796FFD8E00746C3E7774B18680028FC
:10184800CAD0764B4FF47A791B68B5FBF3F54FF4A1
:101858006163B5FBF0F100FB115509FB05F54FF08D
:101868003C0CB1FBF3F203FB1211B5FBF0FEB1FB2C
:10187800FCF300FB1E550CFB131109FB05F5009149
:10188800B5FBF0F56649CDE901E52046FFF756FFBF
:10189800A2E706F00803EBB1624B634953F82A202C
:1018A8002046FFF74BFF0546B8F1000F05D0594910
:1018B80042462046FFF742FF0544BBF1000FABD07C
:1018C8005A495A462046FFF739FF0544A4E74FF026
:1018D800000BE1E706F00805E6E745469CE7BBF1A3
:1018E800010F069B06D1002B64D1049B002B7BD0F3
:1018F80000250CE0002BF8D04D485CE04D48069BD5
:101908004D49224604F056FD049B002B68D0DFF8B1
:101918002C81DFF82C91049F3146102F204628BFD8
:101928001027FFF71DFF4FF0000B5D4545DC059BB9
:1019380049461A782046FFF701FF4FF0010B1BF0CC
:10194800070F03D141462046FFF7F8FE5F453BD914
:10195800059B494613F80B202046FFF7EFFE0BF1D5
:10196800010BBBF1100FEAD1364920464FF0000BAE
:10197800FFF7E4FE5A46059B9A5CA2F120015F2915
:1019880028BF2E2230492046FFF7D8FE0BF1010B65
:10199800BBF1100F1DD01BF0070F03D141462046A5
:1019A800FFF7CCFE5F455A46E5D841462046FFF78B
:1019B800C5FEEBE71F485546A1E741462046FFF71D
:1019C800BDFE0BF1010BB0E720492046FFF7B6FE3C
:1019D800C5E7059B3B440593049BDB1B04939AD105
:1019E800BAF1000F7FF41FAF204609B0BDE8F04FF1
:1019F80005F087B8064A05492046FFF79FFE15E718
:101A0800A48B0008A88B0008D0840008538800081D
:101A18009F8B0008CD8B00087807002074070020F2
:101A2800B18B0008E4840008D18B0008D78B00082C
:101A38005B6B0008256B0008FD250008E48B000897
:101A4800DC8B0008E68B0008E88B0008E28B0008B6
:101A580073B542F20F738B4228BF0B4605680F4AD5
:101A680004460521684604F0B3F963680C495B68CD
:101A780006460B22284605F036F863683246694662
:101A880028465B6805F02FF8636806495B681B22E7
:101A9800284605F028F802B070BD00BF2488000869
:101AA800078C0008EB8B0008074A002101239042AD
:101AB80006D8064A01B901231360054B1860704720
:101AC80040085B000121F2E740420F007407002044
:101AD80078070020F8B5074F0D4604464618B4426B
:101AE80001D12846F8BD14F8011BBB6801485B68A2
:101AF8009847F4E7907F0008014B03600020704787
:101B08002C8500082DE9F047064600AF0C46002951
:101B180036D0E9468AB0D1E90012A3686D4621485B
:101B2800A8464FF0050AC5E90501C5E9072348F8A5
:101B380010AF1D48424600234FF42151FFF71EFD08
:101B4800CD46D4E903126369AD461848C5F810A01C
:101B5800C5E90501C5E907231348002342464FF4A8
:101B68002151FFF70BFDCD46E369114A0E480121CB
:101B780004F0A3FFA3690F4A0B48012104F09DFF5D
:101B8800012E07D1EFF305830B4A0748103B314676
:101B980004F093FF2146304602F032FFBD46BDE80F
:101BA800F08700BF4D8C0008608400087C8C00081A
:101BB800AB8C0008BA8C0008E88C000830BFFFF72F
:101BC800FDBF00BF2DE9F0410B4EDFF8308006EB7A
:101BD8000807CC1B054632460949204606F055F849
:101BE800A01942460021083C06F05DF82C6707F171
:101BF8000800BDE8F08100BF0000000004000000FC
:101C080090840008054B5A699B689A421FBF044A92
:101C1800536843F080535360704700BF600A002048
:101C280000ED00E070B5294C06460D4628482949C4
:101C380005F016F8A36AD9043CD52548264905F0CD
:101C48000FF81720A36A1A0504D52148234905F07F
:101C580007F818201D4CA36A9B0512D51C4820497B
:101C680004F0FEFFA36BA26A100409D51D4A1848A8
:101C7800012104F022FF1EB1A36A23F40043A362EA
:101C88001920124CA36A590504D51148164904F0C5
:101C9800E7FF1A20A36ADA050ED50D48134904F0A8
:101CA800DFFF1B20094A936A43F47F4393620023B2
:101CB8002B7070BD1620C5E7A36A9B04F2D50448B3
:101CC8000B4904F0CDFF1C20ECE700BF00ED00E05D
:101CD80060840008FB8C0008118D0008228D000824
:101CE800358D00084E8D0008638D00087E8D000834
:101CF800968D000810B5204C2049214804F0B0FF0B
:101D0800A36A990136D51E481E4904F0A9FF1E2072
:101D1800A36ADA0104D51A481B4904F0A1FF1F2061
:101D2800154CA36A1B0304D51548184904F098FFFD
:101D38002120A36A590304D51148154904F090FFDE
:101D480022200D4CA36A9A0304D50D48114904F0CA
:101D580087FF2320A36ADB0304D509480E4904F052
:101D68007FFF2420044A936A6FEA03436FEA134310
:101D7800936210BD1D20CBE700ED00E0C58D000883
:101D880060840008DD8D0008F08D00080A8E0008C8
:101D9800288E00084D8E0008678E00082DE9F8434C
:101DA800364D8046894636483649174604F058FF6E
:101DB800AB6ADE0627D53449314804F051FF1124B7
:101DC800AB6A1D0704D531492D4804F049FF122498
:101DD8002A4DAB6A980718D52D49294804F040FFC9
:101DE8006E6BAB6A190646D52A4A25483346012147
:101DF80004F063FEB9F1000F03D0AB6A23F080034F
:101E0800AB62132403E01024DAE76FF015061B4DCC
:101E1800AB6ADA0704D52049194804F021FF1424D5
:101E2800AB6A9B0604D51D49154804F019FF152413
:101E3800124B9A6AD50602D49A6A90070AD55B684B
:101E4800190507D54146304600F008FA10B180F36D
:101E580009880224094B9A6A920642BF5A6A22F4F8
:101E680000525A629A6A42F0FF029A6200233B705B
:101E78002046BDE8F8836FF01506C2E700ED00E0E4
:101E880060840008928E0008A88E0008228D000841
:101E9800DB8E0008F38E0008098F0008968D000875
:101EA8002DE9F041664B8AB0D3F8048000AF0446B0
:101EB800C8F30805002686F31188BFF36F8F02F078
:101EC8007F43B3F17F4F07D102F00C03082B12D1E7
:101ED8005C495D4804F0C4FE002634460023FB71CB
:101EE800EB1E092B00F28A80DFE803F00A80837C6E
:101EF80088888888888610074CBF0C460126EDE73D
:101F0800524951484E4D04F0ABFE0023FB71EB6A79
:101F18009A0705D54E494C4804F0A2FE002332E04A
:101F2800EB6A002B01DA4B49F5E7EB6A5B00F5D564
:101F38004949454804F094FE6B69A26943F48073EB
:101F48006B61BFF34F8FBFF36F8F6B6932F8022C51
:101F580023F480736B61BFF34F8FBFF36F8F4DF620
:101F680002739A4208D0AB6ADBB273B3FA1D01213F
:101F78002046FFF713FF37E02368384A324801212B
:101F880004F09BFD2368FA79DAB907F1080504F132
:101F9800200C206861682A4603C208346445154647
:101FA800F7D17A6A002E45D0C2F3080121B96FEA49
:101FB80052226FEA42227A6207F108011846FFF7B7
:101FC800A1FD2837BD46BDE8F081AB6A13F47F4F09
:101FD80004D0F91D0120FFF725FE05E0AB6AB3F533
:101FE800803F9BD3FFF786FE0346CCE7FA1D00210E
:101FF800BEE7F91D0020EEE719498CE7194A1A4B8C
:1020080018F4F87FE8468AB018BF13466A4617499D
:10201800C2E905134FF400731384103D144BD561C6
:1020280042F8103F084800234FF41151FFF7A6FA71
:10203800C54673E722F4FF7222F00102BBE700BF36
:1020480000ED00E0568F000860840008818F0008CA
:10205800988F0008B98F0008C78F0008E68F00081E
:10206800029000083D8F0008288F0008269000087D
:1020780004000001044B5A6942F010025A615A697F
:1020880022F008025A61704700ED00E0EFF3088083
:10209800EFF3098101B57246FFF702FF01BD00BFEA
:1020A8000A4880F30888102080F3118808484FF404
:1020B8000461401880F30988EFF314800221084373
:1020C80080F31488BFF36F8F00F090F8C01B0020D6
:1020D800000E0020084B9B6883420BD1EFF3058369
:1020E80043B1064B5A6842F080525A605A6A22F449
:1020F80000425A6203F01CBB600A002000ED00E0B9
:1021080014498A684FF030001044EFF3098C80E8D6
:10211800F01F102080F31288BFF36F8F0E4F4FF01F
:1021280000664A698A603E60106F0C4C2060506FF0
:102138000023536780F3118804B5104600F0F2F8C5
:10214800BDE8044002F1300090E8F01F8CF30988E4
:1021580070470000600A002004ED00E0A00700209E
:102168001EF0040F0CBFEFF30880EFF309808169BC
:1021780011F8021C0229FFD001B5724604F065FD72
:1021880001BD00BF40B2002807DB044A4109012312
:1021980000F01F00834042F82130704700E100E062
:1021A80040B20028A8BF00F1604001F10101B8BFAA
:1021B800064B4FEA0111ACBF00F5614000F00F007B
:1021C800C9B2B4BF195480F80013704714ED00E089
:1021D800044B054A23F07F039360BFF34F8FBFF38F
:1021E8006F8F70470000000800ED00E008B5FFF7AA
:1021F800EFFF0B4AD2F8883023F47003C2F8883016
:10220800EFF3148323F0040383F31488BFF36F8F71
:1022180002F0E2FC03F0B2FB00F05AF802F020FDF5
:1022280000ED00E042F8203C009B42F81C3C0A49C3
:10223800019B42F8183C029B42F8143C21F0010132
:102248004FF0807342F8043C42F8081C0023203AFF
:1022580002654367704700BF9D0F0008094A03469F
:10226800906870B113F1160F006E05D0A0F140020E
:102278009A4205D8834203D2814228BF0020704782
:1022880000207047600A002008B515460B4A0C4B21
:102298009060026F1A600E4600F044F82C4686F3F0
:1022A80009880020034B984720460021002200237C
:1022B800014C20477F6C00089D0F0008600A002031
:1022C800A0070020014B10221A61704700ED00E0C2
:1022D800044800231021C2180133662B82F800132A
:1022E800F9D1704700E100E008B5EFF30583064A2D
:1022F800103B02EBC30152F8330049688847BDE838
:102308000840FFF77FBC00BF10800008024B034A5B
:102318000348012100F08AB80000022000000020D4
:102328002C850008026E054B403A1A60044A402189
:10233800C3E901121846012100F082B8A407002061
:1023480000000B1508B503461048D0F89020C2F3DA
:102358000722013A934207D90D480E4A012104F099
:10236800ACFB6FF0150008BDC0F898300A6822F081
:102378001F021A4342F01002C0F89C208A6842F0FB
:102388000102C0F8A0201846EDE700BF00ED00E00C
:10239800588400083D900008F0B50E4685B01F46E9
:1023A80004460025B5420DDA606810B397B1431EA4
:1023B80018420AD0104A11482B46012104F07DFB2F
:1023C8006FF01502104605B0F0BD1F28F2D921683C
:1023D8000B42EFD12368019304F061FCA36801A9C3
:1023E8000343D0B20393FFF7ADFF10F1160FE7D008
:1023F800421C01350C34D5E7639000085884000866
:10240800044B0522C3F89420BFF34F8FBFF36F8F9F
:10241800704700BF00ED00E0BFF35F8F024B002262
:10242800C3F89420704700BF00ED00E010B5034CDE
:1024380001232278FFF7B0FF207010BD8F0A00201B
:1024480008B50B4A00231278FFF7A6FF10F1160F04
:1024580007D0084A0021D2F89030C3F307239842E6
:1024680000DB08BDC2F89800C2F8A0100130F2E7FE
:102478008F0A002000ED00E02DE9F0435748584945
:10248800D0F890300D68C3F307239D4285B000F261
:10249800A180FFF7C1FF49680022954201F10C01B4
:1024A8001AD1504C504F25706846FFF725FBDFF8CE
:1024B8003C81DFF83C9106460025AE421FD12378C7
:1024C80046490020D1F89020C2F3072293427BDBD3
:1024D800FFF796FF00204CE0C0F8982051F80C3C1C
:1024E80023F01F03134343F01003C0F89C3051F846
:1024F800043C43F00103C0F8A0300132CDE7009856
:1025080000EB05114FEA051CCB683B40B3F5000F03
:1025180044D00AD8B3F5001F2ED0B3F5800F34D0BD
:10252800B3F5801F10D00135C7E7B3F1807F3ED0E7
:10253800B3F1007FF7D150F80C3088684A6804F08E
:10254800AEFB40F4802009E050F80C3088684A68F7
:1025580004F0A5FB40F0885040F43020039001A916
:102568002078CDE90123FFF7EDFE002828DA6FF087
:10257800150005B0BDE8F08350F80C3088684A684B
:1025880004F08DFB40EA0800E8E750F80C30886852
:102598004A6804F084FB40EA0900DFE750F80C3091
:1025A80088684A6804F07BFB40F08270D6E750F8F0
:1025B8000C3088684A6804F072FB40F08870CDE7F8
:1025C800237801332370AEE7C1F89830C1F8A00032
:1025D800013377E74FF0FF30CBE700BF00ED00E0B5
:1025E800388500088F0A00200000F0FF000008115D
:1025F80000000206F0B587B007460E4614460021D3
:10260800102268461D4605F04EFB02238DF8023065
:102618002A46054B019321466846CDE9047603F026
:1026280001FC07B0F0BD00BFC76C000808B5024B3D
:102638001B689847002008BDB0070020034B044AD8
:102648001860937843F0020393707047B007002036
:102658001000002008B50649064821F00701C1F11D
:10266800005202F5003203F068FE002008BD00BFEA
:10267800D71E0020B4070020044B18440023013360
:10268800994200F8012BFADC704700BF5000002087
:102698002DE9F843124F06464FF000094FF00108A4
:1026A800347854FA89F5284600F0D4F870B12846F1
:1026B80000F0F0F857F8353043B107EBC5054C4446
:1026C80004F01F04696808FA04F09847727809F161
:1026D80001095FFA89F39A42E2D2BDE8F88300BFA4
:1026E800C0070020034660B1B0FA80F2C2F11F02B1
:1026F800D2B205498856054A11680B431360FFF7A3
:1027080041BDFF22F5E700BF500000200004014052
:10271800024A136823EA000313607047000401406B
:10272800032921D8DFE801F0020C10190F4B9A6831
:1027380022EA00029A60DA6822EA0002DA60704748
:102748000A4B9A680243F5E7084BDA680243DA60F5
:102758009A6822EA00029A607047044B9A6802431A
:102768009A60DA681043D860704700BF00040140DF
:1027780030B5B0B1B0FA80F3C3F11F03DBB20B4838
:1027880050F833408C4204D100EBC3056D68954284
:1027980005D044B940F8331000EBC3004260002074
:1027A80030BDFF23EBE76FF00F00F9E7C00700200B
:1027B80060B1B0FA80F3C3F11F03DBB2044A002111
:1027C80042F8331002EBC30251607047FF23F5E76C
:1027D800C007002000F00302043292000F23934048
:1027E80043EA900000F003030233074A52F823201B
:1027F800030C93FAA3F3B3FA83F302EA104003F04D
:102808001F03D840704700BF0000014013B50E4CAD
:10281800204605F099F840B90C480D4A012104F00A
:1028280043F96FF0120002B010BD01236022CDE918
:102838000023A3681B681BB1694620469847F2E746
:102848006FF05700EFE700BF507E0008388400089B
:10285800A390000800F01F0201213F2808B501FAE3
:1028680002F2034605D90848084A04F026F9002070
:1028780008BD074B1F2894BF5B695B6B9A430CBF6D
:1028880001200020F4E700BF38840008C290000847
:102898000004014000F01F0201213F2808B501FA99
:1028A80002F2034606D90748074A04F006F96FF012
:1028B800150008BD1F28054B02D85A610020F8E70B
:1028C8005A63FBE738840008C290000800040140FE
:1028D8002DE9F04F5D881F469B88013587B01D4460
:1028E800FB88BDF844901D44109B88469246002BF7
:1028F80000F0C480B9F57A7F80F0C080836805A9AC
:102908009B6A9847002840F0BC80B9F1000F0AD1B3
:102918005D4B109A9A4239D85C4B40F26B399A4217
:1029280088BF4FF44879059B0093109B5D43009B3B
:10293800B3FBF5F5BAF808309D4238BF1D46109B29
:1029480003FB05FB6FF0004301933B89AB4220DAA0
:102958000198B8F80630B8F804205B08934228BFFD
:102968001346A8F80030BAF80020934203D93A88F1
:102978009A4228BF1A466FF000439842A8F80020F0
:1029880008BF6FF0850007B0BDE8F08F40F2EE2970
:10299800C9E7009BB3FBFBF00BFB10333BBB81B2D9
:1029A8007B88B7F804E003934FF47A7600FB09F2CA
:1029B800B2FBF6F2BAF80660BAF804C002968A1AB0
:1029C80092B20EEB0304B242BAF80230A4B212D9A2
:1029D800FE88964228BF16464A1E921B92B294421F
:1029E8000BD20E1BFA88013EB6B2B24210D2109B2F
:1029F80001359B44A9E7029EEEE70CEB0304A4B261
:102A0800944232D9091B029A01398EB2B242EED8E9
:102A1800B3EB540F4FEA540203D2039B934228BFEF
:102A28001346E21A92B2964521D2A4EB0E039BB24A
:102A380072464FF47A7104FB01140199B4FBF0F467
:102A4800A14534BFA4EB0900A9EB04008842CED20B
:102A5800A8F80230A8F80420A8F80660A8F80850DA
:102A680000283FF476AF0190C1E71446D0E79445BB
:102A780082BFA4EB0C039BB26246DAE76FF0150045
:102A880081E76FF004007EE700350C0020A1070005
:102A98002DE9F04788B002AF1E46D0F808A0BB6BFE
:102AA800054690460C4631B362790968D20706D5C7
:102AB800B1F1005F25D3274C1D20082305E0B1F5AF
:102AC800006F1ED3244C0B2003236D468CB002AA42
:102AD800224E5162C2E907034FF400731385204B5D
:102AE800C2E9056442F8103F1E4800234FF45151D3
:102AF800FEF744FDAD466FF015001837BD46BDE83A
:102B0800F087E3B907F1040919460122484604F0A1
:102B180077FF154B0093CDF80490DAF814A04246DD
:102B2800334621462846D0470028E6D14FF0FF32E9
:102B38004FF0FF33484602F0C3FA7869DDE7FA6BD5
:102B4800CDE900322146DAF8149042463346284649
:102B5800C847D2E7029100080B91000814910008B9
:102B68000600000110840008136E0008F8B5856897
:102B780000AF41B33BB31C7A1E6814F0010F5C68C8
:102B880025D0B6F1005F02D2B4F1005F29D3164810
:102B98001D2108236D468EB06A46DFF850C0D46206
:102BA800C2E90713C2E909634FF400731386104B97
:102BB800C2E905C042F8103F0E48002344F24041E4
:102BC800FEF7DCFCAD466FF01500BD46F8BDB6F566
:102BD800006F02D2B4F5006F03D307480B2103231B
:102BE800D8E7AC69A047F0E70291000841910008D6
:102BF80008000001108400080B91000873B5144602
:102C08001E4682683032074D8368AC4203F13A03AE
:102C180005D8CDE90046FFF75BFE02B070BD6FF046
:102C28001500FAE740420F0073B514461E46826845
:102C38004832074D8368AC4203F1520305D8CDE909
:102C48000046FFF745FE02B070BD6FF01500FAE7C9
:102C580000127A0037B543689B691B680D46984790
:102C6800044630B1044A00902B460448012103F081
:102C78002EFF204603B030BD8E910008188400084E
:102C880037B543689B695B680D469847044630B181
:102C9800044A00902B460448012103F018FF2046FF
:102CA80003B030BDB1910008188400082DE9F04F39
:102CB8009B4699B043680546174688464822002136
:102CC80006A8D3F81C9004F0EEFF03AA394628465C
:102CD800FFF7C0FFC0B9DFF834A1039E730613D015
:102CE800C6F3052606EBC60108EBC10189B204AAA2
:102CF80008232846019104F0B6F80199024630B13C
:102D08004349444804F0C3F819B0BDE8F08F9DF872
:102D18001630C3F303008DF81C009DF813008406D9
:102D280042BF9DF81D4044F002048DF81D409C06EA
:102D380042BF9DF81D4044F004048DF81D4003F087
:102D48000F02DB0642BF9DF81D3043F008038DF8E3
:102D58001D30040648BF9DF81D309DF8174044BF3C
:102D680043F010038DF81D30430604F07F041FD58F
:102D7800049BC3F31C0306939DF81D3043F0010325
:102D88008DF81D301AF80230402B39D89DF81D20D7
:102D9800900713D493B10333083108AA03F4FE73E0
:102DA80089B2284604F05FF8024638B11A49A8E704
:102DB800BDF81230C3F38A030693E3E79DF81D308C
:102DC800D90722B24CBFD9F80830D9F80430E4004A
:102DD8001C4453F83230626813B106A92846984754
:102DE800324659462846FFF74BFF00288CD103AAE4
:102DF80039462846FFF72EFF00283FF46EAF83E7D9
:102E0800064A0448012104F040F8E9E75A96000808
:102E1800D591000818840008FC9100082192000848
:102E28002DE9F3410669103605464FF0FF324FF0A1
:102E3800FF33304604F030F801AA18212846FFF77E
:102E480009FF044648BB019A182122F010022846BF
:102E58000192FFF715FF0446F8B901F08BFC01AAAF
:102E6800074618212846FFF7F5FE0446A8B9DFF8FB
:102E78004C80019B1B0710D501F07CFCC01B404512
:102E880012D9019A182142F0100228460192FFF740
:102E9800F7FE041E08BF6FF00A04304603F0FEFF79
:102EA800204602B0BDE8F08101AA18212846FFF7A4
:102EB800D1FE0028DDD00446EFE700BF40660301DD
:102EC80070B50469237905460E462BBB10344FF0C4
:102ED800FF324FF0FF33204603F0DEFFF3883288DD
:102EE8003189013B013A03F07F0343EA4263B28828
:102EF800013A120202F47F421343094A013902EAF5
:102F0800014228461A431C21FFF7BAFE054620460F
:102F180003F0C4FF284670BD6FF00F05FAE700BF45
:102F28000000FF012DE9F74FD0F81080D0F804A079
:102F380098F804300546002B6CD1DAF8000078B117
:102F48008368D8F800101B689847044640B10246C9
:102F58003249334803F09BFF204603B0BDE8F08FA9
:102F68002E6910364FF0FF324FF0FF33304603F032
:102F780093FF01AA18212846FFF76CFE044678B192
:102F8800304603F08BFF26482649224603F07FFF90
:102F9800DAF800000028DFD083685B689847DBE731
:102FA800019A182122F0010228460192FFF768FED3
:102FB80004460028E4D104F036FE01AA07468946F3
:102FC80028461821FFF746FE04460028D8D140F2CB
:102FD800E93B019BDB0708D4304603F05FFF002C78
:102FE800D1D1012388F80430B6E704F01CFEC01BD9
:102FF80061EB0901584571F1000108DA01AA1821AD
:103008002846FFF727FE0028E3D00446E4E76FF0E0
:103018000A04E1E76FF077049EE700BF32920008E8
:10302800188400085C9200082DE9F3410729066915
:1030380080460D460AD90A462B482C4903F027FF3B
:103048006FF08504204602B0BDE8F0813379002B8B
:1030580046D106F110074FF0FF324FF0FF333846E4
:1030680003F01AFF6A4618214046FFF7F3FD0446AD
:10307800002831D101AA10214046FFF7EBFD044694
:1030880050BB009BE80745BF43F08003009323F043
:103098008003019B58BF0093009A44BF43F010037C
:1030A8000193A9074CBF42F0200222F020026B07CF
:1030B8004CBF42F4407222F44072182140460092FC
:1030C800FFF7DEFD044638B9019A10214046FFF7A4
:1030D800D7FD044600B93560384603F0DFFEB1E796
:1030E8006FF00F04AEE700BF188400087F92000855
:1030F8002DE9F341502101AA45680446FFF7AAFDCE
:10310800002835D11C4F1D4EDFF87480019A12F04B
:1031180099022DD050212046FFF7B2FD40BB019BFC
:10312800D80705D5E98EA823A4222046FFF7BEFDBF
:10313800019BD90605D5298FB823B4222046FFF76D
:10314800B5FD019B1A0704D53A460121304603F024
:103158009CFE019B1B0604D542460121304603F024
:1031680094FE01AA50212046FFF774FD0028CDD017
:1031780002B0BDE8F08100BF9892000818840008EA
:10318800AE9200082DE9F04F89B004AA50210769D2
:103198000446FFF75FFD002840F09080644E049AD3
:1031A800324000F08B8050212046FFF769FD00284F
:1031B80040F08480049B13F0607F36D0D4F81080F0
:1031C800636805AA0DF10F012046D8E902ABD3F8D0
:1031D8001C9003F002FF40BB9DF80F50BAF1000F9E
:1031E80004D0059A5B4629462046D047032D1CD1BA
:1031F8004FF0FF32D4212046FFF742FD0546A0B923
:10320800824608F1240899F80C309D4259D306AA41
:1032180018212046FFF71EFD38B9069A182122F01A
:10322800010220460692FFF72BFD049BDD0421D501
:10323800D4F80480D4F810A0D8F81C9005AAF4217A
:103248002046FFF707FDA8B9059DA80612D0B8F8D3
:103258003C10C5F3042501EBC50106AA082389B271
:10326800204603F000FE0246002841D0314932488A
:1032780003F00DFE049B190408D5304A2E4801219D
:1032880003F003FE07F1240001F0E6FE049B9A0018
:1032980004D52B4A2848012103F0F7FD049B9B0322
:1032A80004D5284A2448012103F0EFFD04AA50213F
:1032B8002046FFF7CFFC00283FF471AF09B0BDE806
:1032C800F08FD9F8003053F835B0EA00BBF1000FA1
:1032D8000CD043F835A0D9F8003013446FF07101D1
:1032E8005A682046D847404601F0B6FE01358AE7BD
:1032F8002A46F82120469DF81FB0FFF7C1FC054675
:103308000028B7D1D9F8001001EBCB030FFA8BF0E6
:103318005A6851F830B0019241F830500AF124004F
:1033280001F09AFE019A29462046D84786E700BF51
:103338000090823BC492000818840008EA920008B2
:10334800FF9200081A9300082DE9F04F15460A79F4
:10335800D0F804A00469DAF81C900F2A0F46064634
:1033680011467C4828BF0F2189B010F80180002140
:10337800CDE9061179798801C1F3400C00F04000CD
:1033880040EA4C108DF81B0002F00F00C1F3C00C8E
:1033980060F07F0040EA0C10C1F3800C40EA4C104A
:1033A8000F298DF81E000AD90A466B486B4903F0AD
:1033B8006EFD6FF0850B584609B0BDE8F08F2068A8
:1033C800400708D411F00C0F05D0654A6248012166
:1033D80003F05BFDEDE7B8F1400F0AD940230093F5
:1033E800604A5D484346012103F071FB6FF0150BFD
:1033F800E1E7490706D50F2A08D95B49564803F083
:1034080046FDF3E7082A01D95849F7E722790293DC
:10341800002A00F0958005AA44213046FFF71AFCDF
:1034280083460028C7D1059A100600F18C8004F164
:1034380024030393029B2A4604F1240001F040FE72
:103448008346002840F0828034344FF0FF334FF039
:10345800FF32204603F020FD99F80C305B452EDC46
:103468004FF0FF357B793A688DF81F50D9074CBF6C
:10347800069BBDF81A30BAF83E104BBF62F31C0326
:1034880062F38C030693ADF81A3005EBC503DB0035
:103498009BB21944029306AA082389B2304603F066
:1034A800E9FC8346A8B1324902462B4803F0EFFCF9
:1034B800204603F0F3FC039801F0CEFD7BE7D9F832
:1034C800002052F83B205D46002ACBD00BF1010BBF
:1034D800C4E77B799B0716D4B8F1000F13D0BAF86C
:1034E8003E2002990832114408F1030303F4FE73E5
:1034F80007F1080289B2304603F0BCFC834610B1DC
:103508001C490246D1E7D9F80030129A43F8352011
:10351800D9F80030EA001344139A5A600122AA40ED
:10352800D0213046FFF7ACFB834628B1D9F80030EC
:10353800002143F83510BBE7204603F0AFFC3AE71B
:103548006FF0720B37E76FF0710B34E76FF00A0B0F
:1035580031E700BF5A960008188400083593000820
:103568005893000883930008B3930008D593000884
:10357800F7930008219400082DE9F3478846196855
:103588005B68D0F804A00669DAF81C7091462A4AEC
:10359800C3F30A0302EA014243F00043134310361F
:1035A800019305464FF0FF334FF0FF32304603F0EA
:1035B80073FC7B7B0024A3420ADC204A20480221BA
:1035C80003F063FC304603F069FC6FF01B052EE046
:1035D8007A6852F8342072B10134ECE7304603F0CF
:1035E8005DFC7B6843F834807B6803EBC4032546A5
:1035F800C3F804901BE09DF8072004F00103013391
:1036080063F3C5028DF80720BAF83210042301EBE2
:10361800840128460DEB030289B203F02BFC054612
:103628000028DBD0074906482A4603F030FC284624
:1036380002B0BDE8F08700BF0000FF0775940008DE
:1036480018840008499400082DE9F74F1C7AD0F82F
:1036580004B0012CDBF81C600546884691469C4660
:103668000AD939493948224603F011FC6FF085051B
:10367800284603B0BDE8F08F002C3DD00024CDF8DB
:103688000340009A1B688DF8074063F31C02DCF8BE
:1036980004300092019A076923F0604302F0005257
:1036A80043F000431343103701934FF0FF324FF0BC
:1036B800FF33384603F0F0FBB37B9C420ADB244A15
:1036C8002248022103F0E1FB384603F0E7FB6FF0E4
:1036D8001B05CDE7B26852F8342092B10134ECE70B
:1036E800384603F0DBFBB36843F83480B3685344CF
:1036F8002546C3F8049023E003B0BDE8F04FFFF778
:103708003BBF9DF80320BBF8341004F001030133DC
:1037180063F3471201EBC4018DF803202846082300
:103728006A4689B203F0A6FB4FEAC40A0546002898
:10373800D6D0084905482A4603F0A9FB002D97DB97
:10374800737B1D4494E700BF959400081884000813
:10375800B9940008499400082DE9F041D0F8048094
:103768000769D8F81C600C1E054606DA224625496A
:103778002548BDE8F04103F08ABB10374FF0FF320F
:103788004FF0FF33384603F087FB727B944222DB0D
:10379800B37BA21A934208DC1A491B4803F077FB53
:1037A8003846BDE8F04103F079BBB368002143F81F
:1037B8003210B36803EBC20328465960B8F83410D6
:1037C80001EBC20189B2082203F05BFB0246002824
:1037D800E6D00E49E1E77368002243F834207368A5
:1037E80003EBC40328465A60B8F8321001EB840191
:1037F800042289B203F045FB02460028D0D00449D0
:10380800CBE700BFD994000818840008F494000896
:10381800209500082DE9F047076944683B79D4F8FA
:103828001C800646002B40D04FF47A72002303F028
:1038380037FB054648B11E4A1E48012103F025FB07
:103848006FF004052846BDE8F087206858B1836802
:103858005B689847044630B102461749154803F09B
:1038680016FB2546EEE70024304603F0EFFBA146A1
:103878003C71243798F80C309C42E3D2D8F80030D9
:1038880053F834A0E200BAF1000F0CD043F834909A
:10389800D8F8003013446FF072015A683046D047A8
:1038A800384601F0D9FB0134E4E76FF07705C9E742
:1038B8004C9500081884000866950008F0B589B092
:1038C80045680669EF690023CDE90233CDE9053380
:1038D8000446ADF81030ADF81C3006F1100004F0C5
:1038E80088F806F1340004F084F83A7B114606F1B2
:1038F800240004F085F8286850B104F025F838B998
:10390800514A5248012103F0C0FA6FF012000AE050
:103918002046FFF785FA40B14D4A4C48012103F093
:10392800B4FA6FF0040009B0F0BD4FF47A720023C6
:10393800204603F0B5FA08B1464AEEE7204603F000
:1039480085FB01AA18212046FFF784F90028EAD14F
:10395800019A182122F4697220460192FFF790F922
:103968000028E0D101AA10212046FFF773F90028AA
:10397800D9D1019A102122F0100220460192FFF7B6
:103988007FF90028CFD101AA80212046FFF762F9EC
:103998000028C8D1019A802142F02B0220460192CA
:1039A800FFF76EF90028BED1EA682B8A02A92046E3
:1039B800FFF724F9163001D1274AAEE76A696B8A06
:1039C80005A92046FFF730F9163001D1234AA4E7AC
:1039D80002A9204603F01DFA024620B120491B48DF
:1039E80003F055FA91E705A9204603F025FA0246A7
:1039F80008B11C49F3E71C4A019254212046FFF7FD
:103A08003FF900288FD19922582120460192FFF7CB
:103A180037F9002887D103225C2120460192FFF75D
:103A28002FF900287FF47FAF4FF0FF32E0212046C6
:103A38000192FFF725F900287FF475AF01462A6C3B
:103A4800204603F01EFA6EE7AB95000818840008BC
:103A5800919500084C950008C5950008E795000861
:103A6800139600083196000899908203D02848D010
:103A78002DD8A82847D011D884284ED0A0F1880383
:103A88009BB21C2B55D82B4901229A400A4244D19B
:103A9800082B3AD01C2B08BF90207047B82836D086
:103AA8000AD8B42835D044D8AC2836D04FF6FF739E
:103AB800B02808BF18467047CC282CD039D8BC2865
:103AC8002BD04FF6FF73C82808BF18467047E02868
:103AD80026D007D8D82825D0DC2825D0D42808BF58
:103AE800D0207047F42821D007D8E42820D04FF6FA
:103AF800FF73F02808BF18467047F82808BFE82069
:103B08007047CC20704794207047842070479C20D1
:103B1800704798207047C82070474FF6FF7070476D
:103B2800DC207047D4207047D8207047E4207047C5
:103B3800E0207047010011012DE9F34143685D6CF5
:103B4800064601AA6869002103F055FD041E07DB3B
:103B5800019B00221979186800F0A0FA041E09DAFE
:103B6800374A23463748012102F0A7FF204602B012
:103B7800BDE8F08173685F6C334C204603F0E4FEC7
:103B8800002856D0BB68F968D4F80880012B13D9EF
:103B9800D8F81830083163B1204600229847041E2F
:103BA8000ADA2A4A2748012102F07EFF284A2346DA
:103BB800D8E76FF05704F4E7D8F80030F968002B1D
:103BC8003AD021489847041EF0DB3B7E3BB1304693
:103BD80003F03CFA3B7E1F4A5B08C2F800353046CA
:103BE80003F034FA01AA80213046FFF733F804467F
:103BF8000028BBD1019A42F0016242F440228021A0
:103C080030460192FFF73CF804460028AED14FF049
:103C18008072C0213046FFF733F804460028A5D14A
:103C28003046FFF74BFE044600289FD12B69984782
:103C38009CE76FF01204B9E76FF05704B6E700BFCE
:103C48007396000820840008507E000891960008AA
:103C5800BB9600080060004073B543680D465E6C73
:103C68001A4C204603F070FE60B3B268A368F1688E
:103C7800DB68012A17D9083143B9154A15480121CB
:103C880002F012FF6FF0040002B070BD01AA2046D6
:103C980098470028F1DB104A019BD2F8001559B962
:103CA8002B600020F0E70BB90C4AE7E701AA204691
:103CB80098470028EFDAF7E7D2F800255200B3FB5F
:103CC800F2F3EDE76FF01200DEE700BF507E000868
:103CD800DC9600082084000800600040089700086F
:103CE80038B508882F4B1446C0F30B02082A1B6806
:103CF8000D4602D00B2A22D812B96FF085002EE0AB
:103D0800501E0A28F9D801A252F820F05B3D00089D
:103D1800993D0008413D0008993D0008953D00087F
:103D2800913D0008993D0008033D0008693D0008E1
:103D38007F3D00087F3D00084FF4FA4309E002F692
:103D4800B870C0F30B001828D7D8174AC240D2075A
:103D5800D3D523602A68B2F5805F1BD2002038BD16
:103D680000F0D2F855220623B0FBF3F353430722A1
:103D7800B3FBF2F3EDE700F0C7F855220623B0FBDA
:103D8800F3F353435B08E4E7084BE2E7084BE0E74B
:103D98000023DEE7C2F313320132B3FBF2F32360F0
:103DA800DCE700BF400000201101110100366E0160
:103DB800006CDC02F8B5504F504C00F0C3F83846A0
:103DC80003F0B7FA00F068FDA3684D4AC3F3031384
:103DD8001578D35C05F01F0503F01F0320FA03F6DE
:103DE80047FA05F5AE4202D2284600F08BFD23685B
:103DF80023F480232360236843F4803323602368FB
:103E08009903FCD5D4F8943043F00103C4F89430F6
:103E1800D4F894309A07FBD5D4F8983043F00103CE
:103E2800C4F89830D4F898309B07FBD5A36803F002
:103E38000C030C2B18D12368580506D4236843F4C7
:103E48008073236023685905FCD5A36823F0030316
:103E580043F00103A360A36803F00C03042BFAD119
:103E6800A36823F0F003A360236823F08073236022
:103E780023689A01FCD4E36823F0605323F40033E9
:103E880043F06053E360E36843F48033E360E3683E
:103E980023F4C003E360E36843F48013E36000F0B5
:103EA80037F8236843F08073236023689B01FCD5AF
:103EB800A36823F0F00343F08003A360A36843F0F2
:103EC8000303A360A36803F00C030C2BFAD1A368C7
:103ED800AE4223F0F003A36002D3284600F012FD9F
:103EE800084B1F60A36823F4E063A360A36823F46E
:103EF8006053A3600020F8BD80FE210A0010024034
:103F0800CB980008400000200048704700366E013A
:103F18000A4AD2F8803023F48073C2F8803002F560
:103F2800D032074BD1680B4043F4AA4343F0530304
:103F3800D360D36843F08073D3607047007000404B
:103F48000C80FFF9064B9A6D42F080529A659B6D82
:103F580082B003F080530193019B02B0704700BF09
:103F68000010024008B5074803F0EEFC38B10648D7
:103F7800FEF764FB0448FDF707F8002008BD6FF062
:103F88001200FBE7907F0008953F00080A2838B523
:103F9800074D044604D1AB680D215B682846984755
:103FA800AB6803485B68E1B29847204638BD00BF5C
:103FB800907F00082DE9F843D0F80480D0F81090DD
:103FC800D8F8080017460D461E4602F0CCFEB7F595
:103FD800001F044616D12846D8F80840FEF7FAFB19
:103FE80084420CD1294602F0BEFE0446FEF790FB3F
:103FF8002046FEF7DDFB00212046FEF791FB00205E
:10400800BDE8F883B7F5800F20D0B6F1806F19D0DE
:10401800B6F1C06F18D0B6F1007F1AD10226104948
:104028004A462046FEF7A4FBB0B9D8F8081028463F
:1040380002F09EFE20463146FEF772FB2046FEF750
:1040480051FBDCE70126EAE70326E8E76FF0850085
:10405800D6E76FF01500D3E76FF00F00D0E700BF89
:10406800A975000838B50369044658600A4D284602
:1040780003F06AFC60B1AB6861681B680C3123B15E
:104088002846984700EAE07038BD6FF05700F9E716
:104098006FF01200F8E700BF507E00082DE9F047E6
:1040A8001E4F044600EBC1060025B44201D1002092
:1040B80014E02068C30600F01F0911D4656845F0B4
:1040C8002005C0F3481AC0F34420102823D857F815
:1040D8002080B8F1000F0DD16FF01200BDE8F08715
:1040E800B9F1100F04D0B9F1110FEAD16568E8E70A
:1040F8003025E6E7404603F027FC0028ECD04B4685
:104108002A460AF00F01404603F060FA002804F13D
:104118000804CADAE2E76FF01500DFE79C860008BA
:10412800012912D0022907D089B90068094BC01AA1
:1041380018BF0120000370470068064B984214BF5F
:104148004FF440504FF400507047002070474FF430
:10415800005070470080004070B51D46094B00268E
:1041680033F812203346FCF733F8090241EA1061AC
:104178006C08000220182A46334641F10001FCF77A
:1041880027F870BDAC8700082DE9F04383B00269B9
:104198004368064610681D680C46D9688368DB6862
:1041A80000AF43B9334A3448012102F07DFC0C3793
:1041B800BD46BDE8F0833A1D98470028F2DB2F4B37
:1041C8009D4248D1D7F80480DFF8B49000252346F3
:1041D800AAB240460021FFF7BFFFA0F5407048454E
:1041E80018D901350C2DF2D16D468AB033686A466C
:1041F8002449D461C2E905134FF400731384224B98
:1042080042F8103F1C4800234FF41151FDF7B6F94E
:10421800AD46CCE7194EF36A23F00F032B43F36244
:10422800002CC4D0194B33F81520002319464046FA
:10423800FBF7CEFF090241EA106163080002C018CB
:1042480022464FF0000341F10001FBF7C1FFC0F324
:104258001300F060ABE72B6823F400432B607B6806
:10426800002CA4D003EB5403B3FBF4F39BB2EB6034
:104278009DE700BFCD9700087884000800800040C3
:10428800FFFC0F00FB97000804000001AC87000842
:104298002DE9F84306460A794068336904685F687F
:1042A800012A0D4658D0931ED3F1000848EB0308A5
:1042B8004FEA88286979FFF733FF95F80690B9F136
:1042C800020F03464BD0B9F1040F4CD0002A54D04A
:1042D800033A012A49D94FF48050B3F5805F4ED094
:1042E800B3F5405F4DD0002B0CBF01230323994247
:1042F8003BD1414603F0CAF9814536D1EB79C3B1C8
:10430800012B40D1214B9C4213D0A3F574439C420E
:104318000FD003F580639C420BD003F580639C4269
:1043280007D003F580639C4203D003F540539C42B9
:104338001BD1236823F0010323602946304603F08C
:104348005BFA236843F00103236095E8030087E8DC
:1043580003000020BDE8F8834FF4C068AAE73AB923
:104368004FF08050B9E7002AB5D06FF08500F1E72B
:10437800033A012AF9D90020AFE71046ADE7002338
:10438800B5E70223B3E7032BBCD0EEE700380140C2
:104398002DE9F04182B00469456806466748206007
:1043A80000AF03F0D1FA38B9654A6648012102F036
:1043B8007BFB6FF012040BE02068E96883681B68D8
:1043C8005BB9614A5F48012102F06EFB6FF0570448
:1043D80020460837BD46BDE8F08198470446E8B94D
:1043E800286A3A1D002103F006F9041EF0DB7B68F9
:1043F800002219791868FFF751FE041EE8DB75687A
:1044080033692C68D3F80480236823F00103236000
:10441800686803F099FA48B94C4AC6E74A4A4948D5
:10442800012102F041FB002CD2DBD9E7D5E90101DB
:104438008368DB6803B1984754E8003F43F00C03F6
:1044480044E80032002AF7D14146304603F0D4F957
:104458002B7D1BB1A36843F00803A3606B7D1BB1E0
:10446800636843F400436360AB7D1BB1636843F446
:1044780080336360EB7D1BB1636843F40033636092
:104488002B7E002B47D0324B9C422AD0A3F5744395
:104498009C4226D003F580639C4222D003F58063BA
:1044A8009C421ED003F580639C421AD003F540530A
:1044B8009C4216D06C4688B033686A462549C2E9E2
:1044C80005134FF400739383234B42F8103F1D48A4
:1044D80000234FF4E251FDF751F8A5466FF015049B
:1044E80076E773681A68936843F480439360236897
:1044F8006A7E23F0787343EA425323602368AA7ED6
:1045080023F4F81343EA02432360EB7E1BB1A3684C
:1045180043F40043A3602B7F1BB1236843F000538F
:104528002360236843F001032360E3699A02FCD502
:10453800E3695B02FCD500244AE700BF507E00080F
:1045480012980008788400083198000851980008EB
:10455800003801406C9800080300000110B54FF0C6
:10456800E0230F499C691A6908689B690D4902F4A0
:10457800803234B993B903464AB90A681044C01A5C
:1045880010BD002B08BF03460AB9A342F5D90A6833
:1045980002440A604FF0E0221269EEE70446F3E7AE
:1045A800540A0020500A00200A4B102283F82320C6
:1045B800094B44F268221A60084B002018604FF03B
:1045C800E02344F267225A6198611A6942F00702AF
:1045D8001A61704700ED00E0540A0020500A0020DC
:1045E800684620F007018D4619B5FFF7B7FF114B54
:1045F8001149D3E900420868001942F10002C3E9F1
:1046080000020E4A00230B60D2E9004144F26823FD
:10461800001BB0FBF3F043431B1941F10001C2E951
:10462800003101F085FAFDF7EDFABDE8194085463D
:10463800704700BFB8050020500A0020B0050020D0
:104648002DE9F041DFF8DC8099B1421C0BD14FF025
:10465800E022136923F0010313614FF07F43C8F888
:104668000030BDE8F081D8F80060012807DC002799
:104678000BE0431CD8F80060F7D140F2D93040F283
:10468800DA339842A8BF1846471EEFF31185102366
:1046980083F31288BFF36F8FFFF760FF224C4FF050
:1046A800E0239969D4E90023801843F10003C4E9A1
:1046B80000031E4B00221A601D4B1A68831A2ED461
:1046C80044F2682C0CFB073303F584436733B3FBD0
:1046D800FCF7131A0CFB073340F22642934238BF0B
:1046E8001346144A934228BF13464FF0E022C8F8F5
:1046F8000030013B90695361002393618142A1EB33
:104708000003D4E9001238BF9B195B1842F100027C
:10471800C4E9003285F31188BFF36F8FA1E740F237
:104728002643E2E7540A0020B8050020500A00207A
:10473800B00500202882FF0038B5EFF3118510235B
:1047480083F31288BFF36F8F084B1C68084B1B68F4
:10475800E41AFFF703FF85F31188BFF36F8F44F264
:1047680068232044B0FBF3F038BD00BFB805002033
:10477800B005002038B5EFF31185102383F31288B4
:10478800BFF36F8F044B1C68FFF7E8FE85F31188B1
:10479800BFF36F8F204438BDB805002070B54D6851
:1047A80006694FF47A735D438B6843BB74684CBBEE
:1047B8004FF4FA400023164AA5FB0001FBF708FD59
:1047C80004231946B0FBF3F3B3F5805F04F101024B
:1047D8000FD2104A7D3D9542E4B203F1FF3314D85D
:1047E800062C12D8B3F5805F0FD2C6E9004300202B
:1047F80070BDD3B201FA03F39BB21446E2E76FF03F
:104808008500F5E76FF00B00F2E76FF01500EFE7B2
:1048180040420F0083FFF30138B5446802698807F6
:1048280041BF1C48836843F480538360CB072DD471
:1048380023684CF6CC411960236845F2555119603C
:104848001368216803F007034B6053682168C3F3BA
:104858000B038B6003F0E7F90A220023FBF7B8FC8F
:1048680005462268D06810F0070003D14AF6AA234B
:10487800136038BD03F0D7F900230A22FBF7A8FC20
:10488800431B302BEDD96FF01200F2E76FF0850073
:10489800EFE700BF002004E0174B9A6802F00C0213
:1048A800042A23D09A6802F00C02082A20D09A68B9
:1048B80002F00C020C2A1DD1D968DA68D868DB68C6
:1048C80001F00301C3F341630329C2F30312C0F3E8
:1048D800062003F101030CBF084909495B000132B6
:1048E800B1FBF2F25043B0FBF3F070470448704755
:1048F80002487047002070470010024000366E01E1
:104908000024F400294A1368D2F8802012F4807F2A
:1049180003F4C063264A00F1FF3124D1914242D802
:10492800B3F5007F2FD1234B984234D8224B9842BD
:1049380033D8224B984234D8214B984294BF002058
:104948000120204A136823F00F0303431360136800
:1049580003F00F0398421CBF136803F00F03C01A3B
:1049680018BF0120704791421DD8B3F5007F0AD1C6
:10497800154B98420FD8154B98420ED8144B9842B5
:104988000FD8144BD9E7B3F5806F08D1124B984272
:1049980007D8124BD1E70420D3E70320D1E7002042
:1049A800CFE70220CDE70120704700BF007000402C
:1049B8007FFE210A00321B088065140600990D0449
:1049C80080CC060200200240000E2707804A5D05C1
:1049D8000087930380C3C90100366E01001BB7002E
:1049E80010B50446FCF7FAFC0348044A012102F01A
:1049F8005BF8204602F0B3FF60840008DB980008EB
:104A08002DE9F843044600AF0D46EFF31188102353
:104A180083F31288BFF36F8F0428294A98BF294B64
:104A28009668117C94BF53F82030274BE9468AB02A
:104A38006A462648C2E9073140F201339384244B81
:104A4800C2E9050442F8103F224800234FF43151CF
:104A5800FCF794FDCD4645B1EB69C3F3080323B1D8
:104A68001D4A1C48012102F01FF82EB1304602F001
:104A7800DCFF08B1037803B91848E9468AB06A46EA
:104A8800174BD061C2E9053640F201331384154B48
:104A980042F8103F00230F484FF41151FCF76EFD08
:104AA8002946CD462046FFF79BFF88F31188BFF3C0
:104AB8006F8F3046FDF70EFBBD46BDE8F88300BF9B
:104AC800600A002080870008EA980008009900081A
:104AD800050000016084000828990008F89800087B
:104AE800499900080400000138B50A4B53F82040E2
:104AF800013053F82050A54200D838BD606830B165
:104B0800037FDB0701D402F032FF0834F3E72368A0
:104B18009847FAE79487000870B52A4B2A4C2B4D22
:104B2800012286B003201A70FFF7DEFF01F038F982
:104B38000420FFF7D9FF2646AE4204F1300410D313
:104B480000F0FCFC204C224EAC4226D300F00AFDBB
:104B5800FBF7C4FC1F4A137B23F00103137306B051
:104B680070BD54F80C3C059354F8103C049354F869
:104B7800143C039354F8183C029354F81C3C0193DA
:104B880054F8203C009354E90A2354E90C0100F03E
:104B9800BDFA54F8303C5E65CDE7D4E90A23B3F199
:104BA800FF3F08BFB2F1FF3F05D052EA030120687A
:104BB80003D100F093FD3034C6E73146183000F0D9
:104BC80027FFF8E7900A0020408300084083000888
:104BD800257B00084006002008B50348034A002149
:104BE800121A02F0DBFE08BDF0000020940A002033
:104BF80070B5002386B00122CDE90423134E144D6D
:104C080001930F22CDE902321249142303FB005508
:104C180006EBC01604464FF4C07000FB04110E4B9F
:104C280000954FF4A072304600F070FA737B0B4A7F
:104C3800EE6023F0040373734FF4046304FB03333F
:104C480013442C746B6006B070BD00BFC005002013
:104C5800600A002040160020AD790008000E0020F0
:104C6800BFB50020FFF740FF2A4B83F308882A4C82
:104C78002A4F636943F4007363610025F02384F8C5
:104C88002230E57725766576A57684F82050636A24
:104C980043F4E0236362FDF7EDF9FDF713FB4FF0F2
:104CA800FF33A362E362FDF7E7FBFDF72FFBFCF799
:104CB800F7FA1B481B4C00F0A1FA02F044FEFCF77F
:104CC8008DF90120FFF710FF0220FFF70DFF00F01C
:104CD8007DFC154B15495C61154B05930123CDE906
:104CE80003534FF480623B46CDE9015500952046B9
:104CF80000F00CFA627B064622F00402204662733A
:104D080002F0CFFE2846FFF773FF3A4631462046A9
:104D1800FDF7BAFA4016002000ED00E0214B00082C
:104D2800C006002040060020600A0020C0170020AE
:104D38000B8B00082DE9F34104460E469DF8200030
:104D480004F10808EFF31187102181F31288BFF3EB
:104D58006F8F256AE1688D4241D22568AC4219D02F
:104D6800C5B1284602F029FE05F1180002F02FFF10
:104D7800A26828693146002402F087FF2846AC67FC
:104D880002F08FFE4046394600F0B2FB204602B0E2
:104D9800BDE8F081A268A8B1E069314602F075FF6C
:104DA800E369A26813446269E361934201D123690C
:104DB800E361236A01332362002087F31188BFF37C
:104DC8006F8FE4E7A1692369994204BF6369A3610E
:104DD800A069801AA061314602F057FFE9E752EA5C
:104DE80003010AD00649896840460E61CDE90023CF
:104DF8003946224600F0E8FAC9E76FF02200DCE7FE
:104E0800600A0020F7B5044604F108070846EFF3E6
:104E18001186102181F31288BFF36F8F216A002950
:104E280039D0A268A16902F030FFA369A268256899
:104E380013446269A361934204BF2369A361236A8F
:104E4800AC4203F1FF33236233D02846002D31D022
:104E580002F0B3FD05F1180002F0B9FEA268296955
:104E6800E06902F012FFE369A26813446269E36132
:104E7800934204BF2369E361236A01332362002458
:104E88002846AC6702F00DFE3846314600F030FB8C
:104E9800204603B0F0BD52EA030110D009498968E1
:104EA8000861CDE9002331462246384600F08CFAE5
:104EB800EFE7002086F31188BFF36F8FE9E76FF003
:104EC8002200F7E7600A00202DE9F341044617465F
:104ED8001E46EFF31188102383F31288BFF36F8FF8
:104EE800C368334A7BB180689168884219D057EA11
:104EF800060318D188F31188BFF36F8F6FF00F0086
:104F080002B0BDE8F081916891F90E10216101337A
:104F1800E3609368A36088F31188BFF36F8F002064
:104F2800EEE72169F2E791F90E1090F90E309942F7
:104F3800A8BF19466FF07E029142B8BF11468B4256
:104F48002DDD02F04EFD0546CDE9007619482246D2
:104F5800414600F039FA0028E1D0EFF3118610231A
:104F680083F31288BFF36F8FA068D0B123682169DB
:104F78009C420AD04BB193F90E309942A8BF19460A
:104F88006FF07E039942B8BF194602F02AFD40B17E
:104F98000848314600F0ACFA6FF00A00B0E7002587
:104FA800D2E7002DF4D186F31188BFF36F8FF3E7B2
:104FB800600A0020910A0020F8B583680546002B96
:104FC8003FD0234A926893423ED1C368012B03D94C
:104FD800013BC3600020F8BDEFF31187102383F372
:104FE8001288BFF36F8F0169806802F0FAFC2C68A1
:104FF800AC4207D10023C5E9023387F31188BFF318
:105008006F8FE7E7002CF5D0D4E9003213605A60BF
:10501800637B002623F002036373C4E90066A6607D
:1050280004F1180002F0D3FDAC6094F90E302B6146
:105038002046A66702F035FD0648394600F058FAC2
:10504800C8E76FF01500C6E74FF0FF30C3E700BFB1
:10505800600A0020910A002070B5EFF31186102332
:1050680083F31288BFF36F8F0468A0421AD0CCB1C3
:10507800D4E9003213605A60637B002523F00203F1
:105088006373C4E90055A56004F1180002F09FFDA0
:105098002046A56702F005FD31460848BDE8704086
:1050A80000F026BAD0E902329A4218BF0133836071
:1050B80086F31188BFF36F8F70BD00BF910A00207F
:1050C80013B5EFF31181102484F31288BFF36F8FA7
:1050D800846844B1013C846081F31188BFF36F8F09
:1050E800002002B010BD52EA030406D181F31188F2
:1050F800BFF36F8F6FF00F00F3E7CDE9002302468F
:10510800014800F061F9ECE7910A00202DE9F0432D
:10511800073285B022F007020E461F461099017328
:1051280000F158037F32C0E916330446002322F009
:105138003F020421836041733F2A0F98A073C4E99A
:105148000633E37306F14009A2F1400805D883F35A
:105158001188BFF36F8F084602DFB518294620462D
:10516800FCF730FD07300E9B20F00700A066C4E96D
:10517800189802930D9B01932D1A0C9B00932A46B5
:105188003B4631462046FDF74DF800236365044B46
:105198009B6803B1DB6EE366284605B0BDE8F08383
:1051A800600A0020F0B587B000250595109D04958C
:1051B8000F9D03950E9D0295DDE912760D9D0195D3
:1051C8000C9D00950446FFF7A1FFB6F1FF3F08BF0D
:1051D800B7F1FF3F05D056EA070305D1204600F096
:1051E8007DFA204607B0F0BD3A46334604F1180070
:1051F800014900F00DFCF4E7257B000840F201139B
:1052080083810023C0E91833C366014B9860704757
:10521800600A0020094A93686FF00A0199670849F3
:1052280058674B6843F080534B60002383F3118821
:10523800BFF36F8F9368986F704700BF600A0020B4
:1052480000ED00E070B590F90D20437B002A36DBB5
:10525800D90634D11B4C63F07F032246437352F8BE
:10526800183FE169934207D1C0E900210860E06175
:1052780011E09942F8D01B68002BF5D090F90E5038
:1052880093F90E60B542F4D0AE42F2DD5968C0E938
:10529800003108605860A569954200D005B9E568F5
:1052A800A3685A7BD20604D1DA897F2A01D9AA6970
:1052B80032B1AB4202D0284600F008FB656170BDF0
:1052C8006361FCE7600A002038B590F90D20437B44
:1052D800002A014604DA03F07F03437302F0A7FBB8
:1052E8000D4D2A46AB6852F8184F944200D004B9C5
:1052F800EC688B4207D05A7BD20604D1DA897F2A20
:1053080001D9A2692AB1A34202D0204600F0DEFAF0
:1053180023466B6138BD00BF600A0020B3F1FF3F30
:1053280008BFB2F1FF3F03D00249183000F070BB4C
:10533800704700BF257B000870B590F90D20437BAE
:10534800002A014604DA03F07F03437302F06FFB7F
:105358004B7B1C4C63F07F0322464B7352F8183F7B
:10536800E069934207D1C1E900200160E16111E0E1
:105378009842F8D01B68002BF5D091F90E5093F99C
:105388000E60B542F4D0AE42F2DD5868C1E9003093
:1053980001605960A569A368954200D005B9E56820
:1053A8008B4207D05A7BD20604D1DA897F2A01D9E9
:1053B800AA692AB1AB4202D0284600F087FA2B46E8
:1053C800636170BD600A0020F8B50E4B0C461146AB
:1053D8000D4A98681060DDE90667EFF31182102224
:1053E80082F31288BFF36F8F9D68284602F031FB65
:1053F800284632463B46FFF791FF2046BDE8F84075
:10540800FFF708BF600A0020800A0020F8B50446AC
:10541800EFF31187102383F31288BFF36F8F437B59
:1054280003F01F02002A0CBF0126002649B239D119
:1054380003F07F03437302F0FAFA2C4D437B817328
:1054480063F07F032A46437352F8183F934227D1EB
:10545800E869C4E900200460EC610FE09842F8D0E4
:105468001B68002BF5D093F90EC06145F6D08C452A
:10547800F4DD5968C4E900310C605C60AC699442A1
:1054880000D004B9EC68AB689C4202D0204600F01A
:105498001DFA6C6187F31188BFF36F8F3046F8BD32
:1054A800E869DEE79B071ED5856802F0C0FA8173BC
:1054B8002B689D4209D16B68C4E900531C606C607D
:1054C800E8E76A689342F6D01B68002BF3D093F99B
:1054D8000E209142F5D08A42F3DD5A68C4E90032C1
:1054E80014605C60D6E78173D4E700BF600A0020CF
:1054F80049B9EFF3058030B9054B5A699B689A4260
:1055080001D0FFF787BE81F31188BFF36F8F704713
:10551800600A0020034648B9EFF3058232B9064A0B
:1055280051699268914201D0FFF774BE83F31188E4
:10553800BFF36F8F704700BF600A0020EFF311813F
:10554800102383F31288BFF36F8F054B9A68D37BC0
:10555800013BD37381F31188BFF36F8F704700BF8E
:10556800600A002070B5EFF31186102383F31288C8
:10557800BFF36F8F144DAB68DA7B0132DA732A46BA
:1055880052F8184F944200D004B9EC685A7BD206FE
:1055980004D1DA897F2A01D9A2692AB1A34202D0AB
:1055A800204600F093F923466B6186F31188BFF318
:1055B8006F8FEFF31180102383F31288BFF36F8F7F
:1055C800BDE87040FFF7A6BF600A0020024B03F158
:1055D8001802C3E906227047600A002070B5EFF38D
:1055E8001186102383F31288BFF36F8F1B4CA168B9
:1055F800E0690B68814214BF1A46002249680B60B3
:105608005960A368E1692AB9154AC3E900210B600A
:10561800E3610CE093F90E0092F90E50A84218D0FD
:10562800854216DD5168C3E900210B605360A56906
:105638000B4B9D4200D005B9E568A3689D4202D096
:10564800284600F043F965613046BDE87040FFF731
:10565800E1BD8A42D8D01268D5E700BF600A0020B1
:10566800780A0020F8B550EA010306460C4603D133
:10567800FFF7B4FF0020F8BDEFF31187102383F381
:105688001288BFF36F8F124D124BA8681860FFF78E
:105698001BFEA868104923463246183000F0B8F9B6
:1056A800AA68537B43F00403537304463846FFF754
:1056B800B1FDAB68D3E90A23B3F1004F08BF002A54
:1056C800D8D102F0ACFA201A20EAE070D3E700BF84
:1056D800600A0020800A0020257B000838B50446AF
:1056E800EFF31185102383F31288BFF36F8F437B89
:1056F8005B070FD5183002F06AFA637B23F00403C6
:1057080020466373FFF79EFD29460548BDE83840EB
:10571800FFF7EEBE85F31188BFF36F8F38BD00BF6A
:10572800910A0020014B9868704700BF600A00206A
:105738002DE9F8430446077BEFF31185102383F323
:105748001288BFF36F8F437B190705D585F311883E
:10575800BFF36F8FBDE8F883D90943F008025DD124
:105768004273A36813B1204602F069F904F11800E6
:1057780002F02DFAA66D04F15808B04511D04FF08B
:10578800000976B1304602F05AF906F1180002F025
:105798001EFAC6F878903046FFF754FDA66DB0455E
:1057A800EFD1DFF8C080D8F808309C423ED1EFF343
:1057B8000589B9F1000918BF4FF00109D8F8186038
:1057C800294A964200D00EB9D8F80C60B34202D0EC
:1057D800304600F07BF82046C8F8146001F048FA1B
:1057E800B9F1000F02D02148FFF708FDD8F80830BA
:1057F8009C4231D1EFF3058373BB227BD20718D4C7
:105808002846FFF707FDFB07A4D5002383F311887B
:10581800BFF36F8F0423184602DF9BE703F07F0373
:1058280043F00803437302F002F99AE74FF00009C6
:10583800C4E785F31188BFF36F8F83F31188BFF333
:105848006F8F0423184602DFEFF31180102383F3D0
:105858001288BFF36F8FD4E785F31188BFF36F8F7A
:10586800D1E700BF600A0020780A0020C0060020A7
:10587800044BC01A044BC0105843044B01221A545D
:10588800704700BF40070020ABAAAAAA910A0020CF
:10589800C3897F2B12D80A4B1B6863B1094B90F957
:1058A8000E201B689A4209DB437BDB0606D1064BB8
:1058B800C31A18BF012303F0010070470023FAE759
:1058C80044000020840A0020C005002070B50E4B5B
:1058D8000E4C1E7C06EB460304EBC304054620462B
:1058E80002F075F90A4B002228469A55FFF7D0FFB7
:1058F80048B1084B08491A68013A2046D317BDE851
:10590800704000F085B870BD600A00204007002094
:10591800910A0020440000207958000838B5EFF3B8
:105928001185102383F31288BFF36F8F104B114A30
:105938009C681068A04206D1FFF7C8FF85F311885C
:10594800BFF36F8F38BD00211B7C11600A4AD35CFE
:10595800002BF3D02046FFF79BFF0028EED0637B97
:10596800DB0602D12046FFF7E7FC2046E4E700BF4C
:10597800600A0020800A0020910A00200748084A8F
:10598800084908B5121A02F00BF80748074A0849EF
:10599800BDE80840121A02F003B800BF000000205A
:1059A800F0000020F8990008000000200000002006
:1059B800F8990008024B1868984208BF0020704701
:1059C80048000020034B1B680BB9FEF7B5BE00204A
:1059D800704700BF880A002030B570B10B4B5B6878
:1059E80098420AD0036843B1D3E90421D0E90445B9
:1059F800121941EB0501C3E90421D0E90032136013
:105A08005A600023C0E9003330BD00BF48000020C1
:105A1800B3F1FF3F08BFB2F1FF3F2DE9F84F04464D
:105A2800994615461F467AD08160EFF311881023F6
:105A380083F31288BFF36F8FB9F1000FDFF8E4A08A
:105A480020DBFFF7BFFFDAE90027013549F100093C
:105A58002D1849EBE073C4E90453AD18064643EB2F
:105A680007074FF00109FFF7A5FFDFF8BCE0DEF8F4
:105A780004A00346EBB9C4E900EACAF80040CEF82E
:105A8800044028E0DAE900126FF001035B1A4FF0D6
:105A9800FF3161EB02025B1B62EB0902012B72F121
:105AA8000001BCBF01230022C0E904324FF0000905
:105AB800D9E7D3E9041CD4E904208A4270EB0C0B23
:105AC80024DA891A5A686CEB0000C3E90410C4E9A7
