:020000040800F2
:10000000C0530024A1140008634E00088D1400089A
:100010008D1400088D1400088D14000800000000E5
:10002000000000000000000000000000851500082E
:100030008D14000800000000251500083128000874
:10004000FD160008FD160008FD160008FD16000844
:10005000FD160008FD160008FD160008FD16000834
:10006000FD160008FD160008FD160008FD16000824
:10007000FD160008FD160008FD160008FD16000814
:1002CC0053B94AB9002908BF00281CBF4FF0FF31B1
:1002DC004FF0FF3000F00CB8ADF1080C6DE904CE16
:1002EC0000F008F8DDF804E0DDE9022304B0704703
:1002FC00704700BF2DE9F04786468C460846089E9D
:10030C00154674461946002B40F0C2808542B2FA5D
:10031C0082F245D94AB1C2F1200300FA02FC2EFA4E
:10032C0003F3954043EA0C0C94404FEA154EA8B2E7
:10033C00BCFBFEF8230C0EFB18CC08FB00F943EABF
:10034C000C43994528D9EB1808F1FF3704D299458D
:10035C0002D9A8F102072B44A3EB0903A4B2B3FB07
:10036C00FEFC0EFB1C330CFB00F044EA0344A042E1
:10037C0014D92C190CF1FF3304D2A04202D9ACF1E0
:10038C0002032C44241A43EA07401EB1D440002334
:10039C0034607360BDE8F0874746DDE76346F1E7FC
:1003AC0092BB431B01214FEA154EAFB2B3FBFEFCCF
:1003BC00200C0EFB1C330CFB07F840EA034398455A
:1003CC0062D9EB180CF1FF3004D2984502D9ACF18C
:1003DC0002002B44A3EB0803A4B2B3FBFEFC0EFB00
:1003EC001C330CFB07F744EA0344A7424ED92C19E3
:1003FC000CF1FF3304D2A74202D9ACF102032C4416
:10040C00E41B43EA0040C0E7C2F1200320FA03F1E9
:10041C00954090402EFA03F303434FEA154EAFB2CA
:10042C00B1FBFEFC0EFB1C10190C0CFB07F841EA8F
:10043C000041884504FA02F422D969180CF1FF3006
:10044C0004D2884502D9ACF102002944A1EB080181
:10045C009BB2B1FBFEFC0EFB1C110CFB07F743EA35
:10046C0001439F420ED9EB180CF1FF3104D29F428D
:10047C0002D9ACF102012B44DB1B41EA004192E7AB
:10048C006046E3E76146F7E76046A3E76346B7E7F4
:10049C00834206D916B9002108467BE7C6E900E07D
:1004AC00F9E7B3FA83F78FB9834201D3724508D8C1
:1004BC00BEEB020460EB030301209C461EB9002135
:1004CC0068E73846FAE7C6E9004CF8E7C7F1200CB4
:1004DC00BB4022FA0CF41C432EFA0CF120FA0CF35C
:1004EC00B84001434FEA14490EFA07F5B3FBF9F88B
:1004FC001FFA84FE09FB18300B0C08FB0EFA43EABA
:10050C0000439A4502FA07F240D9E31808F1FF308C
:10051C0004D29A4502D9A8F102002344A3EB0A03A2
:10052C0089B2B3FBF9F809FB183308FB0EFE41EA5C
:10053C0003418E452CD9611808F1FF3304D28E4546
:10054C0002D9A8F10203214443EA0040A0FB02981F
:10055C00A1EB0E014145CE46434602D306D14D4593
:10056C0004D2B9EB020E68EB04030138002EA6D0BE
:10057C00B5EB0E0261EB030101FA0CFC22FA07F356
:10058C004CEA0303F940C6E9003198E74046C5E759
:10059C004346D9E730B585B000F062F801A800F009
:1005AC0055FC194B1B68834204D04521174804F0B5
:1005BC00A5FBFEE769469DF8080000F02DF80446FF
:1005CC0008B104F07AFC009A039B114D1344019A74
:1005DC00128913442B6005F0A4F900F091FC00F093
:1005EC0073FF2B681B6883F3088884F31488BFF3AC
:1005FC006F8FBFF36F8F2B685B6898474521054859
:10060C0004F07CFBFEE700BFAC020024167A000865
:10061C0078020024397A0008024608B538B1064839
:10062C000023452104F06AFB6FF0150008BD4FF064
:10063C0000630B60FAE700BF5C7A000821B1012966
:10064C0006D06FF015007047044B53F8300070471C
:10065C00024B03EBC0035868704700BFE0750008FD
:10066C004FF4C051014802F099BE00BFDC080024D1
:10067C002DE9F04FD5B0DFF8648182468B46609C43
:10068C000DF13009D8F80050164603945F9CCDF854
:10069C00049002945E9C619F009404F0FDF828B1D4
:1006AC00D8F80050284655B0BDE8F08F5FB14A46E7
:1006BC0014AC1346083703CBA34247F8080C47F891
:1006CC00041C1A46F5D100233246594606A800935D
:1006DC004FF6FF7304F025F907460028E0D10B9C78
:1006EC003146504604F0CBF9A042D9D34FF0FF3439
:1006FC00DFF8ECB00DF1120304AA05A906A804F06A
:10070C005EF90028CCDB64D1059906A804F0A3F9A6
:10071C0050B9BDF812004FF6FF71324A32F8023B65
:10072C008B42BDD09842F9D1BDF812A0BAF1100F8E
:10073C0017D0BAF1200F2BD0BAF1010FDAD1BDF8D6
:10074C001030202BACD814AA0599304604F0F1FADD
:10075C000028A5D19DF8101014A800F047F8044605
:10076C00C8E7BDF81070202F9AD13B4614AA059902
:10077C00304604F0DEFA002892D13A4614A94846D5
:10078C0004F077F9184B1B68834289D10127B1E734
:10079C00002C1BDBDBF800309C4217DABDF8103064
:1007AC00B3F5807F7FF47CAF14AA0599304604F032
:1007BC00C0FA00287FF474AFE4B2BDF8103014AA6C
:1007CC0051464846009400F0DDF805464FF0FF34E2
:1007DC0090E7002F7FF466AF62E700BF04000024AF
:1007EC00E8750008D0790008AC02002420292DE916
:1007FC00F0418046A2B00D4605D94FF0FF3420469B
:10080C0022B0BDE8F081124B0024124E1F68BC428E
:10081C00F3DA08A806F014F8002108A802F0F8FE94
:10082C00736808A856F8081B1A6806F012F869468F
:10083C0008A806F04DF808A806F006F82A46414626
:10084C00684606F049FA0028D9D00134DFE700BF2A
:10085C00E8750008EC7500082DE9F0478946ADF500
:10086C00AE6D1946454B1E68DDF89035B3F5807FAB
:10087C007ED1202A7CD15CAA02F082FE044600289C
:10088C0076D19DF86F32BC2B72D10DF19008DF2719
:10089C00019045460AA8BA4605F0D2FF00210AA8E5
:1008AC0002F0B6FE20220DF24F210AA805F0D1FF6E
:1008BC0004220AA80DEB020105F0CBFF02A90AA83D
:1008CC0006F006F80AA805F0BFFF202F9DF80730A8
:1008DC004046A8BF4FF0200A02A90133A7EB0A0734
:1008EC0052468DF8073006F0DAF9002FD044D1DCEF
:1008FC00AC465CAB2946DF220878013A13F8017B41
:10090C0080EA070001F8010BF6D12B7803F07F0386
:10091C002B701CF8017B5FBB0134BE2CF9D195F810
:10092C00BE30012B24D10AA805F08AFF39460AA84B
:10093C0002F06EFE082212490AA805F08AFF494609
:10094C0020220AA805F085FF20220DF24F110AA8DB
:10095C0005F07FFF02A90AA805F0BAFF0AA805F066
:10096C0073FF20220DF24F2102A804F082F80646F4
:10097C0030460DF5AE6DBDE8F08700BF04000024D5
:10098C00827A00082DE9F04FA3B09A462F4B074608
:10099C0004A89DF8B0501E688846914605F011FFDA
:1009AC000922012104A802F0ADFD294B03AA02A8DB
:1009BC0053F8354003EBC5035B6802941B681C4479
:1009CC003023214604F0E8FF002838D1DDE902325B
:1009DC0013449C4233D106AA214602A804F0F0FF2E
:1009EC0068BB0DF1200B214602A85A4604F0E8FF23
:1009FC00054620BB06A805F095FB029B05909C4282
:100A0C001DD12B462A4606A904A8CDE9005B05F0AA
:100A1C0095FEA0B904A802F08DFD80B906A805F0DA
:100A2C0081FB059004A805F0D0FE504507D100903D
:100A3C004B464246394604A8FFF70EFF064604A86B
:100A4C0005F0C5FE304623B0BDE8F08F040000244D
:100A5C00EC75000838B50E4B0446002918BF0B4640
:100A6C00012143621833036504F08FF858B9022151
:100A7C00204604F08AF8054638B9206A04F098F943
:100A8C00E065284638BD0125FBE70925F9E700BFDD
:100A9C007C02002400487047B0060024F0B52C27D7
:100AAC0085B004460D4607FB01073E6A0EB904F0FB
:100ABC0004FA04F08FF810B13B69DB0603D52C4B1C
:100ACC00186805B0F0BDF5B194F84020237D9A422A
:100ADC0019D80AD394F84120637D9A4213D804D3D1
:100AEC00B4F84220E38A9A420DD20021204604F049
:100AFC0071F840B145211F4804F000F9012130463E
:100B0C0004F0B2F8DBE72C236B43E258E1181A4BE4
:100B1C009A4228D1CA680B899B1824D24A89D218C8
:100B2C0021D2B3689A421ED240F60C630A69134074
:100B3C0019D1CDE9023301934FF48073324620462C
:100B4C0000930E4BFFF794FD0D4B1B688342B8D0FE
:100B5C0065B10121304604F087F80A4A45210A485C
:100B6C0004F0CCF8ABE7094B1868EDE7084AF5E759
:100B7C00000000249C7A00083DB8F396DC20002489
:100B8C00AC020024927A0008C87A00080400002401
:100B9C008A7A00082DE9F04B099F0E46904699463B
:100BAC000024DFF844B0BC4201D300200EE03D1B12
:100BBC000D4A04EB09013046B5F5806F28BF4FF4A0
:100BCC0080652B4604F0B5F810B10120BDE8F08B20
:100BDC0008992B465A464046611804F0BFF8002885
:100BEC00F3D12C44DFE700BFB00200242DE9F04F15
:100BFC0089B00E46044604F03CF8014620B145216C
:100C0C008B4804F07BF8FEE72046FFF723FF0546F0
:100C1C0060B90021204603F0F4FF0546F0B1002234
:100C2C005721844804F06AF8012349E00322572134
:100C3C00814804F063F801239D4284F85830E8D1D0
:100C4C0094F85830042B8DF817303FD8012B3FD82F
:100C5C0000F0B180FF2384F85830ACE0204600F05F
:100C6C0001F90028E0D004A803F0E0FF03F0E7FF4F
:100C7C0008B904F022F99DF81770012F17D12846F6
:100C8C0002F00EFE831E0546022B0DD83946204677
:100C9C00FFF704FF694B1B68984205D0684B1D6831
:100CAC00A84214BF0525012584F85850C8E7012136
:100CBC002046FFF7F3FE614B1B68984203D00523D7
:100CCC0084F85830BCE784F85870B9E7052BBFE7B7
:100CDC00002303AA01212046039303F0D3FE05460B
:100CEC000028C6D1276A002FC3D0D4F84C80B8F1A5
:100CFC00000FBED0D4F828A08146CA4515D0636A2F
:100D0C002946384603EBC903D3F804B000235A46EE
:100D1C0003F0FDFE0028ACD15D44039B9D4253D3F0
:100D2C00E56DB3FBF5F305FB0355E06D03F0A3FE96
:100D3C00A26A636A013A196803EBC2030022D3F872
:100D4C0004E09C46083B72449042F8D8DCF8000062
:100D5C000023411A384603F0DAFE0346002888D1F6
:100D6C003A464146CDE900052046FFF713FF00281F
:100D7C007FF47FAF384602F015FD034600287FF460
:100D8C0078AF226D01464046526803F065FF03467A
:100D9C0000287FF46EAFD4E91402013A016850F8D0
:100DAC00325000EBC20740467A68691A03F054FFD0
:100DBC0000287FF45EAF94F85830FF2B07D1452103
:100DCC00204803F09BFF54E709F1010995E7002146
:100DDC00012B1D4D03910BD0204603F012FF38B1AF
:100DEC002D68204603F05DFF284609B0BDE8F08F62
:100DFC0000212046FFF752FE104F3B689842EFD17E
:100E0C002B689842ECD00E4B1B689842E8D0039BA1
:100E1C0001330393039B012B00D0FEE7206A03F000
:100E2C001EFD3071236A5B6834603D68B360D8E79F
:100E3C00F07A0008637B0008217B0008AC020024D8
:100E4C00000000248F7B00080400002410B5044629
:100E5C00002003F0B4FE02482146FFF7C7FE10BD88
:100E6C00B0060024F8B5D0F828C0466D4CEA06034D
:100E7C00032B36D957211F4803F040FF0020F8BD43
:100E8C00AC4216D1476A07EBC20701327F683C447B
:100E9C00076D07EBC30701337F683D449445EFD8DA
:100EAC009E42EDD8944501D19E4220D05721124844
:100EBC00E2E70CD2476A022907EBC2077F683C4481
:100ECC0002D157210D48D7E701320121E6E7076D22
:100EDC00012907EBC3077F683D44F2D0013302219F
:100EEC00DCE700210B460A460D460C46D6E70120EE
:100EFC00C5E700BF9B7B0008017C0008CA7B00088B
:100F0C00BFF36F8F72B6124B4FF0FF32C3F88020D5
:100F1C00C3F88420C3F88820C3F88C20C3F8902031
:100F2C00C3F89420C3F89820C3F89C20C3F8802100
:100F3C00C3F88421C3F88821C3F88C21C3F890210D
:100F4C00C3F89421C3F89821C3F89C21704700BFC3
:100F5C0000E100E0014B1B68184700BF08000024AB
:100F6C00014B1860704700BF0800002430B585B0F5
:100F7C0004460D4610220021684605F09EFE022311
:100F8C002A4621468DF802306846034B019303F044
:100F9C000DFB05B030BD00BF610F000880B50546E4
:100FAC000E461746984603F057F8DFF82090034694
:100FBC0005F0BCFE0446424649F80030394630463E
:100FCC00A84754F8090000F091FA00BF080000008F
:100FDC00054B00205A6822F002025A605A6822F02F
:100FEC0001025A60704700BF0010005CEFF31180E3
:100FFC00102383F31288BFF36F8F094B1A683AB929
:10100C00084A116841F4807111601168C905FCD55A
:10101C001A6801321A6080F31188BFF36F8F704722
:10102C001407002400480258EFF31180102383F3B7
:10103C001288BFF36F8F114B1A689AB9104B0122AB
:10104C00BFF35B8F53E8001F002904D143E8002C49
:10105C00BCF1000FF6D1BFF35B8F80F31188BFF3A7
:10106C006F8F7047012A04D106490A6822F48072F6
:10107C000A601A68013A1A60EFE700BF14070024EF
:10108C0010070024004802580C4B0D4A1A600D4AF8
:10109C00D36823F0070343F00203D3600A4B1A68AA
:1010AC0041F20303B3EB124F06D1084AD2F80831D0
:1010BC0043F00103C2F80831704700BF64000024FC
:1010CC000090D003004802580010005C00800051D2
:1010DC00014B0360012070473C760008104B70B543
:1010EC001C680D46B4B10F4B196800238B4202DB10
:1010FC006FF0010070BD224612F8106B864202D0D0
:10110C0001331446F2E7E06805F090FC28B10020AA
:10111C002C60EFE76FF00C00ECE76FF01200E9E7E2
:10112C000C0000244C76000810B588B043680C46BF
:10113C0002938368C068CDE903320A68002306492C
:10114C000593CDE9062301AA04F037F8079808B9EE
:10115C00059B236008B010BDD94D0008044808B5A4
:10116C0003F0BEFD0348BDE8084003F0B9BD00BF65
:10117C007A7D0008B07D000830BFFFF7FDBF00BFCF
:10118C002DE9F0410B4E0546DFF82C80324606EB7C
:10119C000807CC1B0949204605F081FDA019083C25
:1011AC004246002105F089FD07F108002C67BDE8D7
:1011BC00F08100BF0000000008000000E07500088E
:1011CC00054B5A699B689A4204D0044A536843F011
:1011DC0080535360704700BFB008002400ED00E05E
:1011EC00264B70B515469A6A064612F0100F9A6A8D
:1011FC0014BF1124102412F0080F9A6A18BF12247D
:10120C0092070AD5586B9A6A140634D519B19A6AA2
:10121C0022F080029A62132401E06FF01500174B44
:10122C009A6A12F0010F9A6A18BF142412F0200F58
:10123C009A6A18BF1524D20602D49B6A9B070AD55A
:10124C000E4B5B68190506D5314600F00BFA10B150
:10125C0080F309880224094B9A6A920603D55A6ACC
:10126C0022F400525A629A6A204642F0FF029A62B5
:10127C0000232B7070BD6FF01500CCE700ED00E083
:10128C00134B9A6A12F0007F9A6A14BF1E201D201D
:10129C0012F0807F9A6A18BF1F2012F4002F9A6AEE
:1012AC0018BF212012F4802F9A6A18BF222012F442
:1012BC00003F9A6A18BF232012F4803F9A6A6FEAA3
:1012CC00024218BF24206FEA12429A62704700BF94
:1012DC0000ED00E0194B024610B5986A9C6A10F4B8
:1012EC00805F14BF1720162014F4006F9C6A18BF7F
:1012FC001820A40509D5986B986A000404D51AB176
:10130C009A6A22F400429A6219200C4B9A6A12F4DF
:10131C00806F9A6A18BF1A20D2050CD49B6A13F4FA
:10132C00005F18BF1C20054A936A43F47F43936205
:10133C0000230B7010BD1B20F5E700BF00ED00E093
:10134C00484BF0B55B688BB004460025C3F308032B
:10135C0085F31188BFF36F8F02F07F40B0F17F4FA0
:10136C0011D102F00C0008280DD010074CBF0C4610
:10137C0001250022033B8DF80720032B05D8DFE85D
:10138C0003F0256468612C46F3E700239DF80720E1
:10139C00D2B902AE04F120072068083454F8041CBA
:1013AC003246BC4203C21646F6D1099A002D54D0DF
:1013BC00C2F3080121B96FEA52226FEA4222099264
:1013CC0002A9184603F03DFD0BB0F0BD254BDA6ABF
:1013DC009107DAD4DA6A002AD7DBDA6A5200D4D55C
:1013EC005A69A16942F480725A61BFF34F8FBFF3FF
:1013FC006F8F5A6931F8021C22F480725A61BFF364
:10140C004F8FBFF36F8F4DF6027291420AD09A6ADA
:10141C00D2B24AB10DF1070201212046FFF7E0FEDE
:10142C000346B3E72368B1E79A6A12F47F4F05D0FD
:10143C000DF107010120FFF74DFFF1E79B6AB3F5B2
:10144C00803FA2D3FFF71CFFEAE70DF10702002152
:10145C00E3E70DF107010020EDE722F4FF7222F023
:10146C000102ACE700ED00E0044B5A6942F01002B7
:10147C005A615A6922F008025A61704700ED00E087
:10148C00EFF30880EFF3098101B57246FFF758FFBF
:10149C0001BD00BF0A4880F30888102080F3118832
:1014AC0008484FF40461401880F30988EFF3148066
:1014BC000221084380F31488BFF36F8F00F0A0F86B
:1014CC00C05300240022002407490023D1F89020A7
:1014DC001846C2F30722934200DB7047C1F89830DC
:1014EC000133C1F8A000F6E700ED00E0084B9B6863
:1014FC0083420BD1EFF3058343B1064B5A6842F09C
:10150C0080525A605A6A22F400425A6202F0AABD12
:10151C00B008002400ED00E014498A684FF0300058
:10152C001044EFF3098C80E8F01F102080F3128830
:10153C00BFF36F8F0E4F4FF000664A698A603E60B2
:10154C00106F0C4C2060506F0023536780F3118890
:10155C0004B5104600F0EAF8BDE8044002F1300092
:10156C0090E8F01F8CF3098870470000B008002445
:10157C0004ED00E0180700241EF0040F0CBFEFF37D
:10158C000880EFF30980816911F8021C0229FFD051
:10159C0001B5724603F05BFC01BD00BF00B2002830
:1015AC0007DB0123410900F01F00024A834042F887
:1015BC002130704700E100E000B2013100284FEA11
:1015CC000111C9B206DB00F1604000F5614080F802
:1015DC000013704700F00F00014B1954704700BF07
:1015EC0014ED00E0044B054A23F07F039360BFF336
:1015FC004F8FBFF36F8F70470000000800ED00E0C5
:10160C0008B5FFF7EFFF0B4AD2F8883023F47003CC
:10161C00C2F88830EFF3148323F0040383F31488A7
:10162C00BFF36F8F02F01CFA02F042FE00F054F888
:10163C0002F064FA00ED00E042F8203C203A009BF6
:10164C0007495360019B21F001019360029B91615A
:10165C00D3604FF08073D3610023026543677047FA
:10166C00A90F0008094A0346906870B113F1160FD0
:10167C00006E05D0A0F140029A4205D8834203D2F5
:10168C00814228BF0020704700207047B00800241A
:10169C0015460C4A0E4608B50B4B9060026F1A604B
:1016AC0000F044F82C4686F309880020034B984739
:1016BC002046002100220023014C20477F4E0008C9
:1016CC00A90F0008B008002418070024014B1022B1
:1016DC001A61704700ED00E0002304481021C21885
:1016EC000133A32B82F80013F9D1704700E100E01D
:1016FC0008B5EFF30583064A103B02EBC30152F821
:10170C00330049688847BDE80840FFF759BD00BF62
:10171C0044700008024B0121024A034800F076B8DD
:10172C00000005240000002490760008026E402181
:10173C00044B403A18461A60034AC3E901120121CE
:10174C0000F06EB81C07002400000B15084AC2F804
:10175C0098000B6823F01F03034343F01003C2F8F7
:10176C009C308B6843F00103C2F8A030704700BF77
:10177C0000ED00E02DE9F0430E4685B01F4604460F
:10178C004FF00009DFF85480B14523DA6068D8B116
:10179C003FB1411E08421BD11F2819D92368194299
:1017AC0016D12368019303F078FBA3680343D0B2EE
:1017BC000393D8F89050C5F30725013DA84207D8EC
:1017CC0001A9FFF7C3FF421C09F101090C34DBE747
:1017DC006FF01502104605B0BDE8F08300ED00E097
:1017EC00044B0522C3F89420BFF34F8FBFF36F8FC8
:1017FC00704700BF00ED00E0BFF35F8F024B00228B
:10180C00C3F89420704700BF00ED00E010B5034C06
:10181C0001232278FFF7AEFF207010BDDC210024DD
:10182C000B4A08B500231278FFF7A4FF10F1160F2E
:10183C0007D0084A0021D2F89030C3F3072398420E
:10184C0000DB08BDC2F898000130C2F8A010F2E726
:10185C00DC21002400ED00E0544B2DE9F043544C06
:10186C0085B0D3F890302568C3F307239D4200F26E
:10187C009A8000200C26FFF7BFFF85421AD14D4CF1
:10188C0068464D4F2570FFF723FC00250646DFF810
:10189C001C81DFF82891AE4213D1237800204349F4
:1018AC00D1F89020C2F30722934276DB0020FFF799
:1018BC0097FF42E0616806FB0011FFF747FF01301C
:1018CC00DBE700984FEA051C00EB0511CB683B40A9
:1018DC00B3F5000F48D00AD8B3F5001F30D0B3F5DC
:1018EC00800F36D0B3F5801F10D00135D3E7B3F19C
:1018FC00807F42D0B3F1007FF7D150F80C3088686C
:10190C0003F0CBFA4A6840F4802009E050F80C3020
:10191C00886803F0C2FA40F088504A6840F43020DE
:10192C0003902078CDE90123D8F89030C3F3072336
:10193C00013B98422AD96FF0150005B0BDE8F08341
:10194C0050F80C30886803F0A8FA4A6840EA09009D
:10195C00E6E750F80C30886803F09FFA40F000700E
:10196C004A6840F40030DBE750F80C30886803F02C
:10197C0094FA4A6840F08270D2E750F80C308868CC
:10198C0003F08BFA4A6840F08870C9E701A9FFF7A9
:10199C00DDFE237801332370A7E7C1F898300133BB
:1019AC00C1F8A0007CE74FF0FF30C6E700ED00E087
:1019BC00F8750008DC2100240000F0FF000008117D
:1019CC00024808B502F0D2FDFEE700BFE97D000831
:1019DC0008B5024B1B689847002008BD2807002457
:1019EC00034B044A1860937843F0020393707047DA
:1019FC00280700241000002408B5054803F070F9EE
:101A0C00002383F31188BFF36F8F0423184602DF82
:101A1C00EE7D0008044B0C2200B505F087F91A5036
:101A2C0000205DF804FB00BF0C000000044B03EB2E
:101A3C0040000023013320F8022B9942FADC704756
:101A4C00840000242DE9F84306464FF00009114F9D
:101A5C004FF00108347854FA89F5284603F0D4FA8B
:101A6C0070B1284603F0ECFA57F8353043B14C44CA
:101A7C0007EBC50504F01F04696808FA04F09847E1
:101A8C0009F1010972785FFA89F39A42E2D2BDE852
:101A9C00F88300BF2C070024034680B1B0FA80F213
:101AAC00C2F11F02D2B2074931F912004FF0B04215
:101ABC00D2F880100B43C2F88030FFF76FBDFF22C5
:101ACC00F1E700BF8400002430B5B0B1B0FA80F368
:101ADC00C3F11F03DBB20B4850F833408C4204D1E6
:101AEC0000EBC3056D68954205D044B940F833103E
:101AFC0000EBC3004260002030BDFF23EBE76FF02A
:101B0C000F00F9E72C07002460B1B0FA80F3C3F1A1
:101B1C001F03DBB2044A002142F8331002EBC3026C
:101B2C0051607047FF23F5E72C07002400F00302F7
:101B3C000F23043292009340094A43EA900000F0CC
:101B4C000303023352F82320030C93FAA3F3B3FAE2
:101B5C0083F302EA104003F01F03D840704700BF24
:101B6C000004005813B50B4C204604F05FFF58B12D
:101B7C000223F422CDE90023A3681B683BB169461C
:101B8C002046984702B010BD6FF01200FAE76FF0D4
:101B9C005700F7E7046E0008064B1B6903F0380387
:101BAC00102B05D0182B044818BF00204008704794
:101BBC000248FBE7004402588055C82000127A0006
:101BCC00314B10B518680B88C3F30B030D2B2CD8B5
:101BDC0013B96FF0850027E0013B0C2BF9D801A05D
:101BEC0050F823F0631C0008251C0008691C000831
:101BFC00831C00086F1C0008DF1B0008DF1B00089B
:101C0C00731C0008771C00087B1C00087F1C000854
:101C1C007F1C00087F1C00084FF4004010600B680C
:101C2C00B3F5805F29D2002010BDD42B0FD003F662
:101C3C002873C3F30B031C2BCBD8012404FA03F336
:101C4C00124C234205D140F211142342C1D040085A
:101C5C00E4E78008E2E7FFF79FFFDFE74FF4FA4085
:101C6C00DCE70B48DAE70B48D8E70B48D6E70B481C
:101C7C00D4E70B48D2E70B48D0E7C3F31333013357
:101C8C00B0FBF3F01060CEE76400002400101111DB
:101C9C00006CDC028055C82060153208C02A641024
:101CAC0000B4C40400127A00994B73B5D3F8E02049
:101CBC0042F00072C3F8E020D3F8E02002F000728A
:101CCC000192019A1A6842F480221A601A6842F44E
:101CDC0080321A601A689003FCD55A6F8C4C42F013
:101CEC0001025A67636F9907FCD5FFF77FF9236FE1
:101CFC0023F018032367236F43F001032367236F3B
:101D0C009A07FCD5FFF790F92368814A43F4805376
:101D1C00236013689B04FCD57E4B9A6922F44042E5
:101D2C009A619A699604FCD5794B1A6902F03802CB
:101D3C00182A16D11A68550706D41A6842F00102FF
:101D4C001A601A685407FCD5714B1A6922F0070205
:101D5C001A611A6912F0380FFBD19A6922F00F023E
:101D6C009A616B4B1A6822F080721A601A6822F022
:101D7C0080621A601A6822F080521A609A6A22F005
:101D8C00030242F002029A629A6A22F47C7242F0D6
:101D9C0040029A62DA6A22F00C02DA62DA6A42F0E3
:101DAC000202DA621A6B22F4FF7222F0010242F490
:101DBC0089721A63DA6A22F00102DA621A6B22F46F
:101DCC007E421A63DA6A42F48032DA621A6B22F4C7
:101DDC00FE0242F440321A63DA6A42F40032DA62EA
:101DEC001A6B22F0FE4242F080721A63DA6A42F4F5
:101DFC008022DA621A6842F080721A601A689001C6
:101E0C00FCD59A6A424C22F47C3242F480529A629B
:101E1C00DA6A22F0C00242F08002DA62DA6A22F058
:101E2C002002DA629A6B22F4FF7222F0010242F075
:101E3C0009029A63DA6A22F01002DA629A6B22F4CF
:101E4C007E429A63DA6A42F40022DA629A6B22F4D6
:101E5C00FE029A63DA6A42F48012DA629A6B22F01A
:101E6C00FE429A63DA6A42F40012DA621A6842F0AD
:101E7C0080621A6023681901FCD5274EFFF78CFE8F
:101E8C000546B04202D8254800F098FDA369204AC7
:101E9C0023F47063A361A36923F00F0343F00803D9
:101EAC00A361E36923F0700343F04003E361E3694A
:101EBC0023F4E06343F48063E361A36923F07003CC
:101ECC0043F04003A361236A23F0700343F0400303
:101EDC002362236923F0070343F00303236113698F
:101EEC0003F03803182BFAD1B54202D90B4800F095
:101EFC0065FD084B9A6922F440429A619A699204F2
:101F0C00FCD5074B0020074A1A6002B070BD00BF19
:101F1C000044025800480258BF2A6410C02A6410BA
:101F2C00640000248055C82008B5074804F07EFDE5
:101F3C0038B10648FFF754FD0448FFF711F80020AC
:101F4C0008BD6FF01200FBE7E46F00085D1F00088E
:101F5C000A2838B50446074D04D1AB680D21284634
:101F6C005B689847AB68E1B202485B6898472046CB
:101F7C0038BD00BFE46F000800487047A076000829
:101F8C00044BB3F880389B020B60002318464B605F
:101F9C00704700BF00E0F11F064B186828B94FF0DE
:101FAC00080C4FF40030C3E900C0012010600B6036
:101FBC00704700BFAC07002403681A6912F0C06FA9
:101FCC0000D0196E04495961044B1A4214BF6FF0CA
:101FDC0004000020704700BF0F00EF1F0000EE153B
:101FEC002DE9F84317461A46064688461C4603F068
:101FFC0020F968B384B3EFF31189102383F31288AB
:10200C00BFF36F8F012383F31388144D6B6943F473
:10201C0080736B61BFF34F8FBFF36F8F224608F154
:10202C000061384604F03BFE002383F313886B6990
:10203C0023F480736B61BFF34F8FBFF36F8F89F302
:10204C001188BFF36F8F3069BDE8F843FFF7B4BF59
:10205C006FF01500BDE8F8832046FBE700ED00E0CB
:10206C00D3B50446124A0023684604F0D2FD206919
:10207C00DDE90067FFF7A0FF002817DA6FF0040016
:10208C0002B0D0BD002AF9D132463B46684604F076
:10209C00E5FDDDE9003213430CBF01220022236968
:1020AC001B68186910F00400ECD1E9E70022F6E790
:1020BC0080380100013A2DE9F04107460D46002019
:1020CC005618DFF86C80AE4201D2BDE8F0813B6956
:1020DC00B5F5801F1C6824D2E368DB0724D438468E
:1020EC00FFF7BEFF0028F0DBE3686A0C23F4E06323
:1020FC00E360E36843EA022343F00403E360E3682C
:10210C0043F08003E360BFF34F8F3846FFF7A8FF1F
:10211C00E368002803EA0803E360D6DB05F5003525
:10212C00D1E76FF01500D0E76FF00400CDE700BFEA
:10213C00FBF8FFFFF8B5012306460C46174603F0E3
:10214C008DF8002847D0002F48D0306903F06AF88A
:10215C0033691B68DA68D2071CD421463A463046EC
:10216C00FFF7A8FF1E4905464B69DB0318D43369FA
:10217C0030461C68FFF774FF18B9E36843F001039D
:10218C00E360002D08BF05463069043001F01AFDEC
:10219C002846F8BD134A5A6002F188325A60DCE7CF
:1021AC00114B04EA030204F5FF3404F5FF743C44BC
:1021BC0023409B1A002BDADD02F10062BFF34F8F34
:1021CC00203BC1F85C222032002BF9DCBFF34F8F8F
:1021DC00BFF36F8FCBE76FF01505D9E73D46D7E717
:1021EC0000ED00E0230167450000FEFFF8B51C463A
:1021FC0017460123054622460E4603F02FF848B336
:10220C00DCB1286903F00EF82B691B68DA68D20779
:10221C0015D4234631463A46284603F081F82B69FB
:10222C00044628461E68FFF71BFF70B1002C08BF40
:10223C0004462869043001F0C5FC2046F8BD074A65
:10224C005A6002F188325A60E3E7F36843F0010305
:10225C00F360EBE76FF01504EFE700BF2301674570
:10226C002DE9F843D0F804801746D0F810900D46AD
:10227C00D8F808001E4602F072FEB7F5001F04469F
:10228C0016D1D8F808402846FFF750FC84420CD1F0
:10229C00294602F064FE044602F066FE2046FFF773
:1022AC0033FC0021204602F068FE0020BDE8F883D4
:1022BC00B7F5800F20D0B6F1806F19D0B6F1C06F92
:1022CC0018D0B6F1007F1AD102264A460F49204693
:1022DC00FFF7FAFBB0B9D8F80810284602F076FEE2
:1022EC002046314602F049FE2046FFF7D5FBDCE7DD
:1022FC000126EAE70326E8E76FF08500D6E76FF0E2
:10230C001500D3E76FF00F00D0E700BF975500081A
:10231C0038B50369044658600A4D284604F086FB1C
:10232C0060B1AB6861681B680C3123B128469847D3
:10233C0000EAE07038BD6FF05700F9E76FF012005B
:10234C00F8E700BF046E00082DE9F047044600EBE7
:10235C00C10600251C4FB44201D1002014E02068B6
:10236C00C30600F01F0911D4656845F02005C0F3C1
:10237C00481AC0F34420102823D857F82080B8F10D
:10238C00000F0DD16FF01200BDE8F087B9F1100FFE
:10239C0004D0B9F1110FEAD16568E8E73025E6E71A
:1023AC00404604F043FB0028ECD04B462A460AF08A
:1023BC000F01404603F0FFF8002804F10804CADAC4
:1023CC00E2E76FF01500DFE784770008012912D0EF
:1023DC00022907D089B90068094BC01A18BF01201F
:1023EC00000370470068064B984214BF4FF44050EE
:1023FC004FF400507047002070474FF40050704766
:10240C00000C005870B51D460026094B6C0833F8BB
:10241C0012203346FDF754FF2A460902334641EA9F
:10242C0010610002201841F10001FDF749FF70BD59
:10243C00EE790008F7B502690C46436810681D6810
:10244C00D9688368DB68B3B101AA9847002812DB0E
:10245C00214B9D4232D1019F0025204E2346AAB22A
:10246C0038460021FFF7CEFFA0F54070B04204D9EA
:10247C0001350C2DF2D103B0F0BD174EF36A23F0E9
:10248C000F032B43F362002CF5D0154B384633F871
:10249C00152000231946FDF713FF22460902630895
:1024AC0041EA10610002C0184FF0000341F1000135
:1024BC00FDF706FFC0F31300F060DCE72B6823F494
:1024CC0000432B60019B002CD5D003EB5403B3FBD2
:1024DC00F4F39BB2EB60CEE7000C0058FFFC0F004E
:1024EC00EE7900082DE9F84306460A7940680D4656
:1024FC003369012A04685F686BD0931ED3F100081E
:10250C0048EB03084FEA88286979FFF75FFF95F8D5
:10251C0006900346B9F1020F5ED0B9F1040F5FD0FB
:10252C00002A67D0033A012A5CD94FF48050B3F5E6
:10253C00805F61D0B3F5405F60D0002B0CBF0123EE
:10254C00032399424ED1414603F099F8814549D174
:10255C00EB795BB3012B53D12B4B9C4226D0A3F5CB
:10256C004C439C4222D003F580639C421ED003F561
:10257C0080639C421AD003F580639C4216D003F50D
:10258C0044439C4212D0A3F51C439C420ED003F54D
:10259C0080639C420AD003F51C439C4206D003F591
:1025AC0080639C4202D0194B9C421BD12368294664
:1025BC00304623F00103236003F018F9236843F03D
:1025CC000103236095E8030087E803000020BDE8C1
:1025DC00F8834FF4C06897E73AB94FF08050A6E7FC
:1025EC00002AA2D06FF08500F1E7033A012AF9D94D
:1025FC0000209CE710469AE70023A2E70223A0E7FD
:10260C00032BA9D0EEE700BF00100140000C0058CE
:10261C00F7B50646446805695E48286004F006FA7A
:10262C00002800F0AD802868E16883681B68002BE7
:10263C0000F0AA8098470028C0F2A48001AA0021CB
:10264C00206A02F0D0FF0028C0F29C80019B00227F
:10265C0019791868FFF778FE0028C0F29380756826
:10266C0033692C685F68236823F001032360686872
:10267C0004F0DCF9002800F08380D5E901018368BF
:10268C00DB6803B1984754E8003F43F00C0344E87F
:10269C000032002AF7D13946304603F0A7F82B7DDB
:1026AC001BB1A36843F00803A3606B7D1BB1636887
:1026BC0043F400436360AB7D1BB1636843F4803328
:1026CC006360EB7D1BB1636843F4003363602B7E66
:1026DC00002B43D0304B9C4226D0A3F54C439C425C
:1026EC0022D003F580639C421ED003F580639C428C
:1026FC001AD003F580639C4216D003F544439C42E8
:10270C0012D0A3F51C439C420ED003F580639C426F
:10271C000AD003F51C439C4206D003F580639C420F
:10272C0002D01E4B9C4232D173681A68936843F4F2
:10273C008043936023686A7E23F0787343EA4253A4
:10274C0023602368AA7E23F4F81343EA0243236030
:10275C00EB7E1BB1A36843F40043A3602B7F1BB13A
:10276C00236843F000532360236843F00103236084
:10277C00E3699A02FCD5E3695B02FCD5002001E019
:10278C006FF0120003B0F0BD6FF05700FAE76FF076
:10279C001500F7E7046E000800100140000C00580B
:1027AC004FF0E0230F4910B59C691A6908689B69C2
:1027BC0002F480320C4934B993B903464AB90A6819
:1027CC001044C01A10BD002B08BF03460AB9A3421F
:1027DC00F5D90A6802440A604FF0E0221269EEE76C
:1027EC000446F3E794080024900800240A4B1022B6
:1027FC00002083F823204DF2D862084B1A604DF26A
:10280C00D762074B18604FF0E0235A6198611A6940
:10281C0042F007021A61704700ED00E094080024B2
:10282C0090080024684620F007018D4619B5FFF783
:10283C00B7FF1149114B0868D3E90042001942F166
:10284C000002C3E900020E4A00230B604DF2D8636C
:10285C00D2E90041001BB0FBF3F043431B1941F1DB
:10286C000001C2E9003101F009FEFEF7A9FCBDE848
:10287C0019408546704700BF90080024D000002402
:10288C00C80000242DE9F041DFF8E08099B1421C2A
:10289C000BD14FF0E022136923F0010313614FF0C9
:1028AC007F43C8F80030BDE8F081D8F800600128FB
:1028BC0007DC00270BE0431CD8F80060F7D14FF47D
:1028CC00987040F231139842A8BF1846471EEFF398
:1028DC001185102383F31288BFF36F8FFFF760FF0E
:1028EC00234C4FF0E0239969D4E9002380184FF072
:1028FC00000243F10003C4E900031E4B1A601E4B97
:10290C001A68831A2ED44DF2D86C0CFB073303F5DE
:10291C005643D733B3FBFCF7131A40F66D520CFB3E
:10292C000733934238BF1346144A934228BF1346C9
:10293C00C8F800304FF0E022013B9069536100234E
:10294C0081429361A1EB0003D4E9001238BF9B19BB
:10295C005B1842F10002C4E9003285F31188BFF321
:10296C006F8FA0E740F66D53E2E700BF9408002498
:10297C00D000002490080024C80000248020FF0010
:10298C0038B5EFF31185102383F31288BFF36F8FE3
:10299C00084B1C68084B1B68E41AFFF701FF85F312
:1029AC001188BFF36F8F4DF2D8632044B0FBF3F066
:1029BC0038BD00BFD0000024C8000024024610B56A
:1029CC0078B14F498B6913F440433FD14D484E4C7D
:1029DC001044A04207D28B6903F44043B3F5404F37
:1029EC0051D101207CE04948494C1044A04246D9C1
:1029FC0048481044A04244D947488242886900F4B0
:102A0C00404007D9B0F5404FEBD08969012001F463
:102A1C0040414CE0B0F5404F45D1404B1344404A47
:102A2C0093428CBF002301233E490A6822F00F0217
:102A3C001A430A600A6802F00F029A425ED00868D4
:102A4C0000F00F00C01A18BF012049E000232C48E9
:102A5C00816901F44041B1F5404F2BD132493348E3
:102A6C001144814246D92D49A0F574201144A0F59A
:102A7C001070814240D92E498A42D5D9B1E7022340
:102A8C00E5E70123E3E78B69002003F44043B3F54A
:102A9C00004F4FF0030319D02649274C1144A14293
:102AAC0026D9264918E08969184601F44041B1F548
:102ABC00004FF0E7816901F44041B1F5004F10D1AE
:102ACC001F4920481144814214D900201E491D4C35
:102ADC001144A1420CD91D498A4282D80028A3D0A6
:102AEC0010BD0C491A481144814203D30020D3E78E
:102AFC000123F3E7022397E7012395E71846A1E7A3
:102B0C00004802587FA77BF340D2DF03FFC4A7F72E
:102B1C007F1D2C047FE2D3FB801D2C043FA901FCFC
:102B2C007F14EF0300200052BF9412F8BF56FE032F
:102B3C00C056FE033FF1E9FDBF0E1602C00E160291
:102B4C00FF1E0AFA7FF0FA027F0F05FD80F0FA02F1
:102B5C00C0E1E400044B1B685840430840425B4210
:102B6C001843C017704700BF980800248842F0B57E
:102B7C0004D004380025084FAA4200D1F0BD3E68AD
:102B8C0050F8044F5E4024EA060451F825600135E4
:102B9C001E4034430460EFE7980800242DE9F04F01
:102BAC008DB01D4683468A46189B179FB3F12A3F6A
:102BBC001A9E059240F08D803946169802F013FF4C
:102BCC00012838BF0120470900F01F047B014FF09A
:102BDC0001094FEA85080598502B34BF4B46032357
:102BEC000A9309FA03F30B930A9B05FA03F306EB1A
:102BFC008303069303EB8503079303F0D0F8424657
:102C0C0000210890304604F058F8079BC6F8009055
:102C1C0006EB080903933146089B3046199ACDE917
:102C2C000153059B00932B4603F0CAF851464246CC
:102C3C00484604F034F80223494609930B9B099A41
:102C4C00934248D142463146584604F028F84FF09A
:102C5C000009CA46079B5A46594658460393089B97
:102C6C00CDE90153059B00932B4603F0A9F8002CEA
:102C7C0047D1013F1F24169B0AF1010A53F8273054
:102C8C00E34003F0010343EA49090A9B534503D08F
:102C9C00002CDFD1002FDDD1189BB3F12A3F32D1AC
:102CAC00424609FB0861069803F0F9FF079B594659
:102CBC00069A58460393089BCDE90153059B009354
:102CCC002B4603F07DF8002CC1D1BFB90DB0BDE887
:102CDC00F08F00247AE7079B01EB080A4A4603931E
:102CEC005046089BCDE90153059B00932B4603F0FE
:102CFC0067F8099B5146013309939FE7A146A24609
:102D0C00A8E7013CB7E731464FF0000A0A4B2A46C8
:102D1C0018681B68584080EA090080EA0A000AF12A
:102D2C00010AFFF717FFC3430698FFF71FFF099B24
:102D3C0041445345EAD1B9E798080024054B0131C9
:102D4C0001321B684340084022EA03020243501E32
:102D5C0000B27047980800242DE9F04F99B08346D3
:102D6C000F46184600211646039303F09AFA0028E2
:102D7C0000F08981784B002401250399149315AB3D
:102D8C0030461393CDE90B45CDE90D45CDE90F4503
:102D9C00CDE9114503F00EFAA04228DABBF1000F81
:102DAC0005D1E7B90024204619B0BDE8F08F2146C3
:102DBC00584603F087F904460028F2D00BA803F01C
:102DCC00CEF80DA803F0CBF80FA803F0C8F811A8A3
:102DDC0003F0C5F80C2115A800F016FBE3E731460B
:102DEC00384603F03AF904460028E7D1DAE73146D1
:102DFC000BA803F032F904460028DFD103990DA883
:102E0C0003F02BF904460028D8D1F1880FA8ADF8AF
:102E1C0038500231ADF8305003F0AFF804460028BA
:102E2C00CCD101460FA803F04DF904460028C5D1BA
:102E3C00F18811A8023103F0A0F804460028BDD196
:102E4C000DA803F06BF900F01F001F2873D0C0F120
:102E5C001F030BA81946019303F086F904460028BA
:102E6C00ACD101990DA803F07FF904460028A5D137
:102E7C00BDF832500DA8BDF83A80A5EB080A4FEA10
:102E8C004A19494603F070F90446002896D14FEAD6
:102E9C008A0A0DA90BA803F0BCF900284DDA4946A3
:102EAC000DA803F07EF90446002887D108F1FF3302
:102EBC0005F1FF3A05F1804505939B00013D069312
:102ECC0008F18043A5EB0805023B9B000893AB007F
:102EDC000293059B9A4541D8BBF1000F0DD00FA969
:102EEC00584603F0BAF8002840F0C980039AB3881A
:102EFC00928813FB02F3ABF80430002F3FF45EAF63
:102F0C0001990BA803F04DF9002840F0B880B38864
:102F1C000BA93846ADF8303003F09FF80146002875
:102F2C0040F0AF80384603F0BCF900287FF446AF80
:102F3C000123BB8042E701949AE70F9A0BA952F840
:102F4C000A300846013342F80A300DAA03F08EFA13
:102F5C00044600289DD031E7010003000D9B4FEA89
:102F6C008A08069A04931344DDF82C900F9D07935E
:102F7C00049B59F82A109A58A8F10403914209931A
:102F8C00029B1D4476D2A8F10400002359F80000DE
:102F9C00FDF796F9002914BF4FF0FF330346BAF141
:102FAC00010F2B6016BF09EB0803002353F8083CF4
:102FBC001593A8F1040359F80330169359F8083007
:102FCC00DDF8108017932B6801332B60089B984415
:102FDC002B68002111A8013B2B6003F073F800282B
:102FEC004DD1059B002B48D0D8F80020119B11A97E
:102FFC001A600846079A12685A602A6803F03AFA6F
:10300C0000283CD113A911A803F003F90028DFDC38
:10301C002A680DA911A803F02DFA80BB029B11A8F8
:10302C004FEAC308414603F09FF840BB0BA911AA15
:10303C00084603F01BFA014618BB0BA803F031F944
:10304C00002812DA0DA911A803F007F8B8B9414607
:10305C0011A803F089F890B90BA911AA084603F03E
:10306C0002FA60B92B68013B2B60029B0AF1FF3A14
:10307C00043B2DE74FF0FF3391E7059AB6E7044682
:10308C009CE60C469AE66FF00B048CE6F0B5114CFE
:10309C00002B14BF9C468C46059F0023246844409B
:1030AC00E44303F1040E774502D2BB4209D3F0BDD1
:1030BC00D5585CF80360054026403543CD50734627
:1030CC00EFE7D55C1CF80360054026403543CD5432
:1030DC000133EAE7980800240928024818BF0020A9
:1030EC00704700BF257F0008016803460D4A9142D6
:1030FC0015D1A2F11022C169A2F1EF1291420ED1A9
:10310C008268012A0BD8C26812B101698A4206D0C2
:10311C00586928B19B691B1A5842584170470120C5
:10312C00704700BF55AA00FF0D4B70B59E68A6B145
:10313C003046FFF7D9FF044678B9F3686BB93569A7
:10314C000DB9204670BD2846FFF7CEFF28B9EB68B5
:10315C00B34202D12E462D69F2E70124F1E700BFFC
:10316C009C0800242DE9F8433F4F3C68D4B1BC685F
:10317C00C4B100284AD0002948D001FB00F5B5FBAA
:10318C00F0F0884242D1281D40D8A9070DD025F077
:10319C0003060436FC6803E06368B34238D2A469C2
:1031AC00002CF9D12046BDE8F8832E46F2E7FB60EF
:1031BC0041E006F12001203A2C4863185A600022A5
:1031CC00C3E9022422691A6160502949D96102B10C
:1031DC00D36062695A61A1699961AAB193619A69D4
:1031EC0002B1536123614FF001090023C4E9016965
:1031FC00C4E905333B69DB072ED5FFF795FF58B3C0
:10320C001C4B48461B6826E0FB60E8E70024C9E736
:10321C00A3681BB1174B01201B689847626804F127
:10322C002008921B232AC4D80123A360D4E90523C8
:10323C00002ABCD09361A3690BB162695A61002367
:10324C00C4E905333B69DA0706D5FFF76DFF18B102
:10325C00084B01201B6898472A46002140464446EB
:10326C0003F02BFD9EE700BF9C08002455AA00FF2D
:10327C00669911EE6C00002470B50546002800F02C
:10328C008880444E3368002B00F08380B268002A9B
:10329C007FD0834203D872681344984203D33E4BC9
:1032AC0001201B689847A5F120042046FFF71CFF5E
:1032BC0018B1394B01201B68984755F8183C012B65
:1032CC0003D0354B01201B689847002345F8183C68
:1032DC0055F8143C3BB39A682ABB55F81C2C02F1E8
:1032EC0020015A680A445A6055E905321A6155F8AA
:1032FC00145C2B6903B1DD6020220021204603F011
:10330C00DCFC286910B18368002B2ED033699B0735
:10331C003FD5FFF709FF00283BD01F4B01201B684E
:10332C00BDE87040184755F8100C00282AD0836867
:10333C0043BB4268636813442033636003692361B1
:10334C00D4E905239AB9CBB9436963618269A26157
:10335C00B3B19C61A36903B15C61236903B1DC6007
:10336C002022002103F0A9FCD0E72C46E1E7936171
:10337C00A369002BE8D062695A61E5E7F360F7E7CF
:10338C00F460E7E7F36845F8083C03B15C61F4606E
:10339C00BCE770BD9C0800246C00002438B51422D6
:1033AC000C4605460021144803F087FC13491448C9
:1033BC0000F042F8232C1DD915F003034FF0000147
:1033CC001FBF043CE418C3F10403ED182246284641
:1033DC0003F073FC084B0B499D60C3E90054203C7F
:1033EC006C609A681160A1F110219A68A1F1EF113B
:1033FC00DA60D16138BD00BF9C080024853200081A
:10340C007131000855AA00FF10B50A46044619B1DF
:10341C00024B00211B68984710BD00BF68000024B8
:10342C00014B1B68184700BF74000024014B1B683C
:10343C00184700BF70000024024B18600020024B9C
:10344C00196070477400002470000024F8B500F176
:10345C000806476804460D46304602F063FE874274
:10346C004BD16368B3F5806F47D80021304602F02A
:10347C0018FF002841DD0021304602F03FFEE0B38A
:10348C0045B9294604F1100002F00BFF002834DD89
:10349C000020F8BD04F120050021284602F001FFB0
:1034AC0000282ADD0021284602F028FE28B304F16A
:1034BC0028050021284602F0F4FE00281DDD00211D
:1034CC00284602F01BFEC0B1002104F1100002F0EE
:1034DC00E8FE002811DD002104F1300002F0E1FECD
:1034EC0000280ADD002104F1380002F0DAFE002881
:1034FC0003DD002104F14000C6E70148C9E700BF25
:10350C0080BFFFFF012970B505460E46144601D950
:10351C00074870BD03D00020C5E91C64F9E7002AF8
:10352C00F9D01046FFF7D8FD0028F4D1F0E700BF22
:10353C0000BFFFFF70B500210446FFF787FF05466B
:10354C0010B10E4D284670BD04F10806304602F04D
:10355C00E5FD7F28F5D910342946204602F0CEFD32
:10356C000028EED0204602F0D9FD0128E9D93146D9
:10357C00204602F04EFE0028E4DBE2E700BEFFFF2F
:10358C00F0B50C4685B0002105461646FFF75EFFE8
:10359C00002839D102A802F0DDFC21466A6802A895
:1035AC0002F0C6FD044618B102A802F0D8FC0CE0EB
:1035BC0005F1080402A8214602F02BFE002807DBC7
:1035CC006FF0030402A802F0CAFCA4F5854418E0CD
:1035DC0005F1480302A96F6805F110020093084633
:1035EC00234603F097F804460028DDD13A463146CD
:1035FC0002A802F0B3FD044602A802F0B0FC002CB5
:10360C00E3D1204605B0F0BD004CFAE780BFFFFFC8
:10361C0003460846C1B90E4ADFF838C0C3E9101199
:10362C000D49C3E912120D4A0D49C3E914C20D4AE2
:10363C00C3E916120C4A1A6602F17452A2F523025F
:10364C00A2F692425A6670476FF07300704700BF43
:10365C0085AE67BB72F36E3C67E6096A3AF54FA517
:10366C007F520E518C68059BABD9831F2DE9F04F0F
:10367C00CFB0044600F1480300F1680646AD039153
:10368C001868083353F8041C2A46B34203C2154683
:10369C00F6D1DDF834B104AA4A984FF0000CDDE9FC
:1036AC004883DDE94B9601933D4BDDE946150293CA
:1036BC00BCF10F0F5CD8039B53F82C301BBA4FEAAC
:1036CC00F02E86EA0907DDF808A00CF1010C8EEA51
:1036DC00B01E07409360BCF1400F8EEA706E87EA13
:1036EC00060702F1040277445AF804EB774445EAE2
:1036FC00010ECDF808A005EA010A3B444FEA7137E8
:10370C000EEA080E87EAB1075B444EEA0A0EB3468E
:10371C0087EAB1577744DDF804E0CDF804809E4485
:10372C003B441ED1CDE94631CDE9043745A904F11E
:10373C0044036434CDE94C96CDE94AE0CDE94858D0
:10374C0053F8042F51F8040FA34202441A60F7D126
:10375C0004A84FF49471FFF757FE00204FB0BDE85A
:10376C00F08FA8464E460D468146194670469FE797
:10377C00136852F834AC4FEAF34E52F8387C8EEAA8
:10378C00734E8EEA932E52F8143C3B444FEABA47E0
:10379C0087EAFA17734487EADA073B448FE700BFDE
:1037AC00B0780008F0B5816889B00546103904AED0
:1037BC0021F01F0401F003FB10220146684603F0C0
:1037CC007CFA0B4B03F110071868083353F8041CF0
:1037DC003246BB4203C21646F6D120236A46214626
:1037EC00284601F0BBFA003818BF012009B0F0BD23
:1037FC00067A000830B50D4687B08168102302AAFE
:10380C000446103901F095FA002802DA012007B0BD
:10381C0030BD102202A9204603F0BEF800283AD190
:10382C0010221E4902A803F057FA00280CBF0123EE
:10383C0002232B70204603F09BF8012301460DF167
:10384C000702204601F075FA0028DFDB9DF80730EF
:10385C000DF10701204603F00F021B096A700122CB
:10386C002B7103F099F810B96B78042B03D9012351
:10387C006B7000232B71A268A91C2046303A22F0F1
:10388C001F02203A03F09BF80028BFD1E91C204608
:10389C0003F0B1F8BBE70323CBE700BF067A0008BF
:1038AC007FB54400244D694655F8240003F0A9F86F
:1038BC00002835D1013402A955F8240003F0A1F8F1
:1038CC0001282BD103238DF808308DF80B309DF88F
:1038DC00005000249DF80860184A2946107803F01F
:1038EC004DF818B33146507803F048F8F0B193789E
:1038FC00042B03D09DF80310994217D1D378042BD5
:10390C0003D09DF80B10994210D11379042B09D1D7
:10391C005079831E022B03D804B070BD0028D6D07A
:10392C00FF20F9E79DF802109942F1D001340632DC
:10393C00032CD2D10120EFE7B0790008287F0008D2
:10394C0038B5EFF31185102383F31288BFF36F8F13
:10395C00064B9C6803F07DF885F31188BFF36F8FDD
:10396C002046BDE83840FDF7C1BD00BFB0080024BB
:10397C0038B50A4B53F82040013053F82050A5427B
:10398C0000D838BD606830B1037FDB0701D403F089
:10399C0063F80834F3E723689847FAE7B879000826
:1039AC002A4B0122032070B5294C86B0294D1A7080
:1039BC00FFF7DEFFFDF7D2FB0420FFF7D9FF264609
:1039CC003034AE4210D3224C00F0D2FA224EAC422C
:1039DC0026D300F0E1FAFCF7DDFD204A137B23F03F
:1039EC000103137306B070BD54F80C3C059354F8E6
:1039FC00103C049354F8143C039354F8183C029371
:103A0C0054F81C3C019354F8203C009354E90A23CD
:103A1C0054E90C0100F030F954F8303C5E65CEE707
:103A2C00D4E90A23B3F1FF3F08BFB2F1FF3F05D041
:103A3C0052EA0301206803D100F0EAFA3034C6E7F9
:103A4C003146183000F08AFCF8E700BFDD21002475
:103A5C005C7500085C750008956B00085801002423
:103A6C0006480021064A08B5121A03F00CF805485E
:103A7C00054A0021121A03F006F808BDC8000024FC
:103A8C00E0210024000000200000002070B500237D
:103A9C0086B00122144E01930446144D06EBC01659
:103AAC001349CDE904230F22CDE9023214234FF43C
:103ABC00A07203FB00554FF4C0700E4B00FB0411B9
:103ACC003046009500F0D8F8737B0B4A23F00403C2
:103ADC00EE602C7473734FF4046304FB03331344D0
:103AEC006B6006B070BD00BFD8000024B008002485
:103AFC00402A00249B6A000800220024BFB5002045
:103B0C00FFF736FF274B83F30888274D0024F0235B
:103B1C00264F85F82230EC772C766C76AC7685F8CF
:103B2C0020406B6A43F4E0236B62FDF79DFCFDF7CC
:103B3C00CDFD4FF0FF33AB62EB62FDF78DFE1C4DFC
:103B4C00FDF7E8FD1B4800F0E5F802F06EFFFDF70D
:103B5C009BFA0120FFF70CFF0220FFF709FF00F092
:103B6C004FFA154B15494FF420525D612846144B02
:103B7C00009405930123CDE90144CDE903433B4671
:103B8C0000F07AF86A7B0646284622F004026A7333
:103B9C0002F0CEFF2046FFF779FF3A463146284621
:103BAC00FDF776FD402A002400ED00E0AD39000859
:103BBC0058010024D8010024B0080024C02B002494
:103BCC003A7F000870B5EFF31186102383F3128847
:103BDC00BFF36F8F0468A0421AD0CCB1002504F15A
:103BEC001800D4E9003213605A60637BA56023F09F
:103BFC000203C4E90055637302F0E1FF2046A56798
:103C0C0002F096FF31460848BDE8704000F08AB9D2
:103C1C00D0E902329A4218BF0133836086F31188CF
:103C2C00BFF36F8F70BD00BFDE21002413B5EFF31F
:103C3C001181102484F31288BFF36F8F846844B110
:103C4C00013C846081F31188BFF36F8F002002B0B8
:103C5C0010BD52EA030406D181F31188BFF36F8FB4
:103C6C006FF00F00F3E7CDE900230246014800F0A6
:103C7C0037F9ECE7DE21002407322DE9F04322F07E
:103C8C00070285B00E461F46109900F158037F328B
:103C9C0004460173042122F03F0206F140094173EE
:103CAC003F2AA2F14008C0E916334FF000038360AD
:103CBC000F98E373A073C4E9063305D883F3118816
:103CCC00BFF36F8F084602DFB51820462946FDF773
:103CDC0057FA07300E9B314620F00700C4E91898BC
:103CEC00A0662D1A029320460D9B2A4601930C9B2D
:103CFC0000933B46FDF7A0FC00236365044B9B68D7
:103D0C0003B1DB6E2846E36605B0BDE8F08300BF67
:103D1C00B008002440F2011383810023C0E918335A
:103D2C00C366014B98607047B0080024094A6FF0D5
:103D3C000A0193689967084958674B6843F08053A8
:103D4C004B60002383F31188BFF36F8F9368986FD8
:103D5C00704700BFB008002400ED00E070B590F98A
:103D6C000D20437B002A36DBD90634D11B4C63F083
:103D7C007F0322464373E16952F8183F934207D1FF
:103D8C00C0E900210860E06111E09942F8D01B689D
:103D9C00002BF5D090F90E5093F90E60B542F4D08B
:103DAC00AE42F2DD5968C0E9003108605860A5697F
:103DBC00954200D005B9E568A3685A7BD20604D1B8
:103DCC00DA897F2A01D9AA6932B1AB4202D02846DE
:103DDC0000F016FA656170BD6361FCE7B008002461
:103DEC0038B590F90D200146437B002A04DA03F024
:103DFC007F03437302F062FE0D4D2A46AB6852F806
:103E0C00184F944200D004B9EC688B4207D05A7B0F
:103E1C00D20604D1DA897F2A01D9A2692AB1A34238
:103E2C0002D0204600F0ECF923466B6138BD00BF90
:103E3C00B0080024B3F1FF3F08BFB2F1FF3F03D03D
:103E4C000249183000F08ABA704700BF956B000821
:103E5C0070B590F90D200146437B002A04DA03F07B
:103E6C007F03437302F02AFE4B7B1C4C63F07F03F1
:103E7C0022464B7352F8183FE069934207D1C1E9CF
:103E8C0000200160E16111E09842F8D01B68002B22
:103E9C00F5D091F90E5093F90E60B542F4D0AE42C4
:103EAC00F2DD5868C1E9003001605960A569A3686A
:103EBC00954200D005B9E5688B4207D05A7BD206F3
:103ECC0004D1DA897F2A01D9AA692AB1AB4202D07E
:103EDC00284600F095F92B46636170BDB0080024AC
:103EEC00F8B50E4B0C4611460D4A9868DDE906678D
:103EFC001060EFF31182102282F31288BFF36F8FE0
:103F0C009D68284602F0ECFD284632463B46FFF7FA
:103F1C0091FF2046BDE8F840FFF708BFB008002429
:103F2C00D008002449B9EFF3058030B9054B5A6924
:103F3C009B689A4201D0FFF7F9BE81F31188BFF359
:103F4C006F8F7047B0080024034648B9EFF3058221
:103F5C0032B9064A51699268914201D0FFF7E6BE28
:103F6C0083F31188BFF36F8F704700BFB008002434
:103F7C00EFF31181102383F31288BFF36F8F054B7E
:103F8C009A68D37B013BD37381F31188BFF36F8F96
:103F9C00704700BFB008002470B5EFF311861023F2
:103FAC0083F31288BFF36F8F144DAB68DA7B013249
:103FBC00DA732A4652F8184F944200D004B9EC68D0
:103FCC005A7BD20604D1DA897F2A01D9A2692AB197
:103FDC00A34202D0204600F013F923466B6186F30E
:103FEC001188BFF36F8FEFF31180102383F31288C6
:103FFC00BFF36F8FBDE87040FFF7A6BFB008002479
:10400C00024B03F11802C3E906227047B0080024E2
:10401C0038B50446EFF31185102383F31288BFF3F0
:10402C006F8F437B5B070FD5183002F0C8FD637BA5
:10403C00204623F004036373FFF790FE29460548DE
:10404C00BDE83840FFF76EBF85F31188BFF36F8F63
:10405C0038BD00BFDE210024014B9868704700BFBB
:10406C00B00800242DE9F8430446077BEFF31185D3
:10407C00102383F31288BFF36F8F437B190705D589
:10408C0085F31188BFF36F8FBDE8F883D90943F02E
:10409C0008025DD14273A36813B1204602F016FDED
:1040AC0004F1180004F1580802F089FDA66DB04522
:1040BC0011D04FF0000976B1304602F007FD06F141
:1040CC00180002F07CFD3046C6F87890FFF746FEEB
:1040DC00A66DB045EFD1DFF8C080D8F808309C420F
:1040EC003ED1EFF30589B9F1000918BF4FF0010972
:1040FC00D8F81860294A964200D00EB9D8F80C604E
:10410C00B34202D0304600F07BF82046C8F8146069
:10411C0000F0ACFEB9F1000F02D02148FFF7FAFD18
:10412C00D8F808309C4231D1EFF3058373BB227B66
:10413C00D20718D42846FFF7F9FDFB07A4D50023B6
:10414C0083F31188BFF36F8F0423184602DF9BE7BC
:10415C0003F07F0343F00803437302F0AFFC9AE7CC
:10416C004FF00009C4E785F31188BFF36F8F83F319
:10417C001188BFF36F8F0423184602DFEFF3118011
:10418C00102383F31288BFF36F8FD4E785F3118864
:10419C00BFF36F8FD1E700BFB0080024C80800241C
:1041AC00D8010024044B0122C01A044BC010584300
:1041BC00034B1A54704700BF58020024ABAAAAAA9A
:1041CC00DE210024C3897F2B12D80A4B1B6863B1F4
:1041DC00094B90F90E201B689A4209DB437BDB06E6
:1041EC0006D1064BC31A18BF012303F00100704718
:1041FC000023FAE778000024D4080024D800002417
:10420C000E4B70B51E7C05460D4C06EB460304EBBD
:10421C00C304204602F0D3FC0A4B002228469A55D0
:10422C00FFF7D0FF48B1084B204608491A68013AFD
:10423C00BDE87040D31700F091B870BDB0080024F1
:10424C0058020024DE21002478000024B14100082B
:10425C0038B5EFF31185102383F31288BFF36F8FFA
:10426C00104B114A9C681068A04206D1FFF7C8FF9A
:10427C0085F31188BFF36F8F38BD00211B7C116053
:10428C000A4AD35C002BF3D02046FFF79BFF002893
:10429C00EED0637BDB0602D12046FFF7D9FD20462A
:1042AC00E4E700BFB0080024D0080024DE2100247D
:1042BC000A480B4A0B49121A08B502F0E6FB0A48E9
:1042CC000A4A0B49121A02F0E0FB0A480A4A0B4947
:1042DC00121ABDE8084002F0D8BB00BF0000002451
:1042EC00C8000024487F00080000002400000024BF
:1042FC00487F00080000002000000020108000080B
:10430C00024B1868984208BF002070477C000024BC
:10431C00034B1B680BB9FEF733BB0020704700BF83
:10432C00D808002430B570B10B4B5B6898420AD0AA
:10433C00036843B1D3E90421D0E90445121941EBD8
:10434C000501C3E90421D0E9003213605A6000234F
:10435C00C0E9003330BD00BF7C000024B3F1FF3F47
:10436C0008BFB2F1FF3F2DE9F84F044699461546B8
:10437C001F467AD08160EFF31188102383F31288E3
:10438C00BFF36F8FB9F1000FDFF8E4A020DBFFF76C
:10439C00BFFF0135064649F100092D18DAE900275F
:1043AC0049EBE0734FF00109C4E90453AD1843EB3A
:1043BC000707FFF7A5FFDFF8BCE00346DEF804A013
:1043CC00EBB9C4E900EACAF80040CEF8044028E092
:1043DC00DAE900126FF001035B1A4FF0FF3161EB69
:1043EC0002025B1B62EB0902012B4FF0000972F118
:1043FC000001BCBF01230022C0E90432D9E7D3E994
:10440C00041CD4E904208A4270EB0C0B24DA891AC0
:10441C005A686CEB0000C3E90410C4E90032146064
:10442C005C60FFF76DFF84420ED1134B1B685BB9C8
:10443C00B9F1000F02D1FFF76BFF0646304602F0D0
:10444C00A7FB0021FEF71EFA88F31188BFF36F8FCC
:10445C0028463946BDE8F88F521A60EB0C009A4595
:10446C00C4E90420ADD01B68AAE700252F46EFE76E
:10447C00700200247C000024D80800242DE9F047A9
:10448C00EFF31185102383F31288BFF36F8FDFF8DE
:10449C00A4900026DFF8A0800027C9F80000FFF7E1
:1044AC002FFFD9F80030D8E900ECD91750B1D0E97A
:1044BC000442A34271EB020A1CDAE41A62EB010219
:1044CC00C0E9044213EB0E034FF000044CEB010166
:1044DC002046C9F80040C8E9003102F059FB2146DA
:1044EC00FEF7D0F985F31188BFF36F8FBDE8F04765
:1044FC00FFF7AEBE14EB0E024CEBE473C0E904679D
:10450C00C8E90023FFF70EFF85F31188BFF36F8F07
:10451C0083689847EFF31185102383F31288BFF358
:10452C006F8FD9F800301B1BC9F80030FFF7E8FE7D
:10453C00B7E700BFD80800247002002410B5EFF3D1
:10454C001184102383F31288BFF36F8FFFF7E0FE03
:10455C00054A0346D2E90001181841EBE37184F3D4
:10456C001188BFF36F8F10BD70020024F8B50E4B8D
:10457C001D68AB789B07064612D56F6816F8014B81
:10458C0029462CB90A20B847002805DB204609E04B
:10459C002046B8470028F1DAAB7843F00403AB703F
:1045AC004FF0FF30F8BD00BF9C7600082DE9F04FAE
:1045BC008378D0F8048015469A0785B0074640F1F9
:1045CC00B580002691F800B0BBF1000F00F0B08070
:1045DC00BBF1250F05D001F1010A013639465846C9
:1045EC0060E091F801B0BBF1250F01F1020AF4D0A3
:1045FC00002401211F2C26D8ABF12002102A10D93F
:10460C00ABF13002092A37D81AF801BBBBF1000F05
:10461C00F0D139462520C0470028C0F283800236ED
:10462C00DCE7854B01FA02F01842EDD1032A64D085
:10463C00ABF13002092AE7D9BBF12A0F11D10435AD
:10464C0044F02004E0E77F2C16D8ABF13002092AA5
:10465C00DAD9BBF12A0F0CD1630605F10405D3D4CA
:10466C00EEE7BBF12E0F0AD1600661D444F0400492
:10467C00CAE7BBF12E0FF7D0BBF16C0F2CD0BBF1FE
:10468C006C0F13D8BBF1680F2DD0BBF16A0F31D072
:10469C00BBF14C0F2ED0BBF1630F0DD115F8040BF1
:1046AC0001363946C047002836DA3BE0BBF1740FBF
:1046BC00AAD0BBF17A0FA7D0ABF16402112A00F299
:1046CC009080DFE802F0398E8E8E8E398E8E8E8E33
:1046DC008E98888E8E1C8E72220648BF44F400740D
:1046EC0044F0800490E7E30548BF44F4007444F4BC
:1046FC00807489E744F4207486E7102484E72C68DE
:10470C004E4B002C08BF1C46A1464B4619F8010B1A
:10471C0020B9341B1E190435514653E73946C0479E
:10472C000028F2DABB7843F00403BB704FF0FF367D
:10473C00304605B0BDE8F08F20062DD5A10545BF4C
:10474C00073525F0070555F8040B55F8080B00281C
:10475C00B8BF44F4806424F01004B8BF4042A4B243
:10476C000DF104090A22494602F0C6FAE206A0EB52
:10477C0009094DD539463020C0470028D2DBBBF1A2
:10478C00000F57D0023639465846C0470028C9DBBF
:10479C004C460DF1040B49E0E20555F8040BD6D557
:1047AC00A3054CBF40B200B2D1E724F01004A4B270
:1047BC000A22200623D5A10545BF073525F007059C
:1047CC0055F8040B55F8080B10B924F01004A4B2DA
:1047DC000DF10409C7E744F0100410224FF0780BD8
:1047EC00E7E74BF02002782A7FF413AFCBF1780285
:1047FC0042F01002DDE708224FF0000BD9E7E30589
:10480C0055F8040BE0D5A1054CBFC0B280B2DBE774
:10481C006305BDD5013639462D20B6E7013C394636
:10482C001BF80400C0470028FFF67CAF002CF5D124
:10483C004E4471E70136ABE7812801003F7F000849
:10484C0038B5044C044DAC4200D138BD54F8043D8D
:10485C009847F8E7000000000000000070470020B7
:10486C007047002930B5044685B0154611DB8368C6
:10487C008B420ED96368C068194401AA00F099FCF8
:10488C0028B96268019B9B1A2B60029B6B6005B078
:10489C0030BD6FF02100FAE72DE9F0479AB00C46D5
:1048AC00924699466846229EDDE9245701F0C8FFDE
:1048BC0000216846FEF7ACFE35B1002F04DD3A4608
:1048CC002946684601F0C5FF638900252289D4F882
:1048DC000C8013449844A84508D82399684601F0E5
:1048EC00F7FF6846002401F0AFFF0FE0A8EB0507C7
:1048FC004A4629465046B74228BF37463B4600F049
:10490C0018FA044630B1684601F09EFF20461AB0F2
:10491C00BDE8F0873A46494668463D4401F099FFA8
:10492C00D9E72DE9F7430E4617469946044628B9B0
:10493C004FF0FF38404603B0BDE8F0830029F7D0B4
:10494C00002AF5D0CB6838460D891D44042329462E
:10495C000DEB030200F0EDF980460028E8D1BDF81C
:10496C00041046F608127389914225D1BDF8061041
:10497C009942DDD10423294438460DEB030200F0A3
:10498C00D8F90028D4D1BDF8042046F607139A4272
:10499C00CED19DF82830A4F80890A372BDF806205B
:1049AC00C4E9006773892B44E360738913442B4477
:1049BC00043563612561BDE7002BE4D0B8E72DE930
:1049CC00F3410E4617461D46044620B94FF0FF3002
:1049DC0002B0BDE8F0810368002BF7D04368002BD0
:1049EC00F4D04FF6FF78D4E904239A4216D2236808
:1049FC005B8923B1E368934204BF0433236104232E
:104A0C00216960680DEB030200F093F90028DDD1F9
:104A1C00A37A2BB1D4E903329A4201D30120D7E710
:104A2C002389BDF80610434501F1040203D0BDF8FB
:104A3C0004C09C450BD115B1BDF804302B80236903
:104A4C00043333603980236913442361C0E723693D
:104A5C0013442361C7E748B103683BB143682BB1EA
:104A6C00C068884294BF0020012070474FF0FF308F
:104A7C00704702F031B900EBC000A0307047084617
:104A8C0001F076BF01292DE9F341174601D900F059
:104A9C0014FA2C2303FB0104D4F82080B8F1000F86
:104AAC00F5D0E368404626891E44042331460DEBBD
:104ABC00030200F03EF9054620B10125284602B05C
:104ACC00BDE8F081BDF8042046F6081364899A42CB
:104ADC001AD1BDF806309C4201D00325EEE7042321
:104AEC00A11940460DEB030200F023F90028E4D194
:104AFC00BDF8042046F607139A42EED1BDF8061015
:104B0C00214431443960D9E7002CF1D0E5E72DE997
:104B1C00F3411E46836805460C468B4290462FD9BE
:104B2C005B1A93422CD3EEB16A46FFF79AFE00282B
:104B3C0028DB013C009F44446A4621462846FFF787
:104B4C0090FE00281EDB2846DDE900842246414603
:104B5C0000F019F9002815DB6EB1474512D208F1A7
:104B6C00FF34E9E701396A464144FFF77AFE002831
:104B7C0008DB009FE0E74444A74203D30134DBE7A2
:104B8C004FF0FF3002B0BDE8F0810322012903464B
:104B9C0013B5084601920AD15A6A03F1280401A9F7
:104BAC0000F036F908B9019B236002B010BD022950
:104BBC0003D11A6D03F15404F1E70120F5E710B5A8
:104BCC0028B160220021BDE8104002F076B8FBF756
:104BDC0061FFF6E72C2310B503FB0104206A08B92A
:104BEC0000F06BF900F0EBF8631E033413F8012F9F
:104BFC00824204D1A342F9D10120013810BD00201A
:104C0C00FBE738B500230D4602460446194600F072
:104C1C0055F8034648B904F12C020121204600F056
:104C2C004DF810B1002D08BF002038BD01230360E2
:104C3C0003F1012343600023C0E902337047437939
:104C4C00012B07D10368012B04D10079431E584274
:104C5C00584170470020704710B412B110BCFFF7D8
:104C6C0056BF104610BC7047002382681946FFF7E8
:104C7C00F3BF002110B504460846FBF7DFFC04F136
:104C8C002001C0B2FCF72AFA40B90121FBF7D6FC8F
:104C9C0004F14C01C0B2FCF721FA08B100F00DF997
:104CAC0010BD10B50446C06C08B100F041F8206A84
:104CBC0018B1BDE8104000F03BB810BD08B52C236E
:104CCC0003FB0100006A08B900F0F7F8202300216B
:104CDC0000F02FF8003818BF012008BD00207047E5
:104CEC000FB407B504A951F8040B0191FCF73EF978
:104CFC0003B05DF804EB04B0704770470FB407B510
:104D0C0004A951F8040B0191FCF730F903B05DF8DC
:104D1C0004EB04B07047002908DB8068884205D991
:104D2C00401A904234BF0020012070470020704789
:104D3C00704770B516461A4605460C46FFF7EBFF52
:104D4C0048B16968E8682144826814683246A44610
:104D5C00BDE8704060476FF0150070BD70B5164629
:104D6C001A4605460C46FFF7D6FF48B16968E86855
:104D7C002144826854683246A446BDE870406047BE
:104D8C006FF0150070BD10B50B460446FFF7C3FF5E
:104D9C0040B16168E068194483689B682BB1BDE839
:104DAC00104018476FF0150010BD6FF05700FBE76F
:104DBC0008B5C0688368DB689847006808BD08B50B
:104DCC00C0688368DB689847407908BD70B54C684B
:104DDC000368A34201D2012070BD8A682244934229
:104DEC0001D30020F8E7D1E903254E69B54203D37E
:104DFC006FF00B038B61F4E71B1B42F835304368F3
:104E0C00086902EBC00253600B6901330B61E2E7E6
:104E1C0037B50C46C0B201A91546FCF75FF900285E
:104E2C000CDB019850B121462A46FCF77DF904466B
:104E3C000198FFF77DFF204603B030BD6FF01504DD
:104E4C00F9E7012801D1EFF30583FEF779BD01469F
:104E5C000068FFF7F6BF08B5FCF78EF9BDE808400F
:104E6C00FCF7AEB900210120FFF7EBBF6FF0850016
:104E7C00704761B662B680F31188BFF36F8F7047CD
:104E8C0072B6002383F31188BFF36F8FBFF34F8F7C
:104E9C0030BF62B6BFF36F8F7047202809D9B0F1CD
:104EAC00004F08D80138B0FA80F0C0F11F00400064
:104EBC007047082070473E20704708B5FCF79CFDF2
:104ECC0008B5FCF785FD002008BD704708B5062223
:104EDC0001210020FCF7AAFD002206201146FCF758
:104EEC006BFB012107220846FCF7A0FD00220720DE
:104EFC001146FCF761FB082201210220FCF796FD0C
:104F0C00002208201146FCF757FB0922012103203F
:104F1C00FCF78CFD002209201146FCF74DFB0A2200
:104F2C0001210420FCF782FD00220A201146FCF727
:104F3C0043FB052117220846FCF778FD00221720B9
:104F4C001146FCF739FB282206210A20FCF76EFDDE
:104F5C00002228201146FCF72FFB002008BD01F091
:104F6C001F010120884070474FF0B042D2F88030CA
:104F7C0023EA0003C2F880307047032925D8DFE804
:104F8C0001F0020D121C4FF0B0431A6822EA000225
:104F9C001A605A6822EA00025A6070474FF0B04318
:104FAC001A680243F4E74FF0B0435A6802435A6060
:104FBC001A6822EA00021A6070474FF0B0431A6870
:104FCC0002431A605A6810435860704700F003029D
:104FDC000F2304329200934043EA900000F0030345
:104FEC00020C92FAA2F29B00B2FA82F203F1B043E5
:104FFC0002F01F0210B5D3F80844914024EA104087
:10500C000143C3F8081410BD5F2817D800F01F0225
:10501C0001231F2803FA02F34FF0B04206D8D2F84E
:10502C00882093430CBF0120002070473F2802D8F2
:10503C00D2F89820F5E7D2F8A820F2E700207047C4
:10504C0000F01F0201235F2803FA02F30FD81F2878
:10505C004FF0B04203D8C2F88830002070473F2888
:10506C0002D8C2F89830F8E7C2F8A830F5E76FF02C
:10507C00150070470B8882B0C3F30B0303F62C7238
:10508C00C2F30B02202A14D803F1B043486803F58D
:10509C0011331A68024300201A600B88C3F30B0308
:1050AC0003F1B04303F511331B680193019B02B06C
:1050BC0070476FF08500FAE70B88C3F30B0303F618
:1050CC002C72C2F30B02202A0AD803F1B0434968B0
:1050DC00002003F511331A6822EA01021A607047A6
:1050EC006FF085007047431E042B06D9083805283D
:1050FC008CBF6FF08500002070470020704710B502
:10510C000888C0F30B00FFF7EEFF00281FDB4A688E
:10511C00FF2A1BD093B2C2F38454C2F3054203F1AD
:10512C00B04304FA02F203F51133186820EA0202C4
:10513C001A6049688BB2CA0EC1F3054103F1B04342
:10514C008A4003F51133186802431A60002010BD21
:10515C00F7B51C461646002382680D466946236047
:10516C00A360536901AA9847019B5A1E01921BB96F
:10517C006FF0150003B0F0BD0098A2684768216875
:10518C00676085B9B31AD0F800C0634528BF634681
:10519C001A4403FB0711A260216002689A4206D8E8
:1051AC0008300090E0E76B1AB3FBF7F3EBE7002055
:1051BC00E0E713460022FFF7CBBF2DE9F0470024B0
:1051CC0086B083688846A246254691465B6902AA4A
:1051DC0001A99847029BAB4202D806B0BDE8F08704
:1051EC00019F002607EBC5077B6804933A680AEB1E
:1051FC000603B24202D801359A46EBE7494603A8AA
:10520C0003940593C0470028E7D0049B01361C4447
:10521C00ECE708B5006904300122114601F042FCAC
:10522C00002008BD4FF0FF324FF0FF330430FEF783
:10523C00FDBC7FB505460E46144601AAFFF7B9FF23
:10524C0050B9013C01AA2846A119FFF7B2FFB0FAE8
:10525C0080F0400904B070BD0020FBE70BB1CB0619
:10526C0001D1FFF7E6BF002070472DE9F047B1F5FB
:10527C00801F036907460D4690461E684DD2F468A0
:10528C0014F0010403D06FF00400BDE8F087FCF7C4
:10529C00E7FE0028F9DB05F1006505F120022B463D
:1052AC00D3E90001B1F1FF3F08BFB0F1FF3FEAD1F4
:1052BC0008339A42F4D1F36843F00203F360BFF36E
:1052CC004F8F08EB040158F804204B682919C1E9E9
:1052DC000023BFF34F8F01F09AFC0A220023FAF748
:1052EC00EFFF10F1640941F1000A33695B0709D53E
:1052FC0001F08DFC0A220023FAF7E2FF81457AEBDC
:10530C000101F2DA0834202CDBD13846FCF7A8FE78
:10531C00F36823F00203F360B7E76FF01500B4E70E
:10532C002DE9F0430024074689B00D4690461E46F1
:10533C002046B44213D204F12009B14512D92022DF
:10534C00FF21684601F0B9FC321B08EB04016846EA
:10535C0001F0A5FC6A4629463846FFF786FF09B0DE
:10536C00BDE8F08324F007042946384608EB040214
:10537C00FFF77BFF0028F2DB20354C46D9E743686A
:10538C0000205B681B690B60704743685B68586959
:10539C0042400A40424000205A6170474368002056
:1053AC005B68996170474368090400205B689961E8
:1053BC007047436800205A6853694B4053617047EB
:1053CC0010B503699868F8B1884219D1DC6808688F
:1053DC00A142986000D1D860002008602AB19A6878
:1053EC000A60DA68996002B9D960002010E0814245
:1053FC0006D108682060D8688142EDD1DC60EBE70B
:10540C00044600680028F2D1002AE8D16FF015009C
:10541C0010BD2DE9F04144680120C2F38016C2F39F
:10542C00C11C676888408E4002F0300527EA0007EF
:10543C00C2F34122202D46EA070600FA01F7666006
:10544C0007EB470ED4F8088007FB0CFC07FB02F2B5
:10545C006FEA0E0628EA0E084CEA080CC4F808C0DD
:10546C00D4F80CC02CEA0E0C42EA0C02E2600CD10F
:10547C00072912D807FA01F2206A8A40C2EB0211FE
:10548C005A4320EA01010A43226223682D091E4077
:10549C007D4335432560BDE8F081020A616A5243C1
:1054AC005243C2EB0210534321EA00010B436362E7
:1054BC00EBE712F4003CF8B505460C4613461DD03C
:1054CC00960714D550075DD55022D90611D542F454
:1054DC00007203F4C061B1F5806F42D0B1F5C06FBA
:1054EC0019D0B1F5007F18D142F0800215E01022DE
:1054FC00EBE79F06EDD542F48062EAE7D60305D5CB
:10550C00D00605D4C2F340129202E2E73022E0E763
:10551C004FF40072DDE742F4C07213F440372E6989
:10552C0008D0306920FA04F1C9075FBF0121A140FE
:10553C0001433161BCF1000F06D0180314D5696822
:10554C0001234968A3408B61002321466868FFF75B
:10555C0060FF27B9336923FA04F2D2070CD4002078
:10556C00F8BD42F48072D8E75903EDD501212846E5
:10557C00A140FFF718FFE7E70122A24023EA02034C
:10558C003361ECE76FF08500EAE770B50B4689688C
:10559C00054611B15E680C6801B970BD8A682A4075
:1055AC0002D04B68304698471CB1236821461C46F4
:1055BC00F2E72346FAE7F8B51F46044640680E4664
:1055CC001546FFF726FF112F07D101212B0501FAF4
:1055DC0006F104D563685B6899610020F8BD20462C
:1055EC00FFF7E1FEF9E730B503681360057904684D
:1055FC0004EBC504A34202D36FF0010030BD5C790B
:10560C008C4201D00833F0E70020F7E74368C1F380
:10561C004B1001F01F011B68C05801238B40034243
:10562C004FF0000014BF012300231370704710B516
:10563C004368C1F34B1001F01F011A680123845811
:10564C008B4023438350002010BD10B54368C1F339
:10565C004B14012201F01F0118688A40235823EAD9
:10566C0002032350002010BD38B504460D46FFF749
:10567C00DEFF29462046FFF7E8FF002038BDB0F5D5
:10568C00805F07D0B0F1805F09D1002914BF0120E1
:10569C0002207047002914BF032004207047002902
:1056AC0014BF02200320704743681B68D869DA696D
:1056BC00C0F3C000D107DA6948BF40F0020092077E
:1056CC00DA6948BF40F004005107DA6948BF40F07E
:1056DC002000D20504D54FF4807240F008001A6205
:1056EC00C10701D508221A62820701D501221A626C
:1056FC00410701D502221A62820601D504221A62E0
:10570C00704710B5436810201B68DA691206FCD587
:10571C00EFF3118280F31288BFF36F8FDC692406DC
:10572C0004D482F31188BFF36F8FEEE7996282F392
:10573C001188BFF36F8F10BD43681B68DA691007BF
:10574C0001D508221A62DA69920603D55B6A002039
:10575C000B7070474FF0FF30704710B5026904466C
:10576C000B46526812680A6042681268126802F4AA
:10577C00C062B2F5806F33D0A2F5C06042424241A4
:10578C001A7162681268526802F44052B2F5805F76
:10579C0028D0B2F5405F27D0002A0CBF012203228B
:1057AC005A71626812681068116800F0102001F4D8
:1057BC00C061FFF764FF98716268002012689268FC
:1057CC0002F44072A2F540714A424A41DA716168B2
:1057DC000968896811F4804F18BF0322DA7110BD73
:1057EC000222CDE70022DBE70222D9E72DE9F041C6
:1057FC000A79044603690D46012AD0F804805E68D4
:10580C0011D0901E47424741BF0269794046FCF7D0
:10581C00DDFDAB79022B09D0042B31D0131E18BF40
:10582C0001231B0306E04FF4C067EEE7B2FA82F3E4
:10583C005B091B07EA79D8F80010012A14BF4FF056
:10584C00000C4FF4407CAE421DD10A6822F080520D
:10585C0022F4B0523A431A430A604B6823F4405383
:10586C00034320464B6063681A68936823F44073C3
:10587C0043EA0C0393603168BDE8F041FCF7DABDF4
:10588C004FF48053D6E7D1F800E00EF4C06E7745A4
:10589C0006D0D1F800E02EF4C06E4EEA07070F6078
:1058AC0061680F68796801F44051884204D07968C6
:1058BC0021F440510143796061680868016801F086
:1058CC0010218B4204D0016821F010210B4303609E
:1058DC00636819688B6803F440739C4505D08B682A
:1058EC0023F4407343EA0C038B6063681B6899686C
:1058FC00490405D5032A09D09A6822F4804204E0B1
:10590C00032A03D19A6842F480429A60296833686A
:10591C00994204D02046FCF78DFD2B683360BDE81E
:10592C00F0814FF0E022136923F0010313617047FB
:10593C0070B504680D1B002D02DC6FF05F0070BDAC
:10594C0094F900602378002E0ADB631C0360237833
:10595C0013600368C91A13688B42EED80020EEE777
:10596C0003F07F035C1E032C13D89D42E5DD00245D
:10597C0014600468013404600468013B15682478E1
:10598C0044EA05241460046804F101040460F3D1B2
:10599C00DFE76FF06300D2E770B404680E1B002ED3
:1059AC0007DD26789E4208D10134046070BCFFF7F5
:1059BC00BFBF6FF05F0070BC70476FF06100FAE71B
:1059CC0073B50223154601AA0446FFF7E5FF40B95B
:1059DC00019E28462168324600F0AAFB2368334416
:1059EC00236002B070BD0139002901DA0020704734
:1059FC0050F82130002BF6D0B3FA83F00131C0EB14
:105A0C004110704739B101F18041013900EB81013E
:105A1C008142034600D270471B680A681BBA12BA4F
:105A2C0040F8042B41F80439F2E72DE9F0411C460B
:105A3C0013F0030306460D4618BF0123904603EBF3
:105A4C0094038B4213D879B18F0000213A4601F0B0
:105A5C0034F92CB1381B22464146304401F01FF971
:105A6C0029463046FFF7CEFF0020BDE8F0816FF0ED
:105A7C000700FAE7B3EB810F70B504464FEA8105D6
:105A8C00104619D95A1B0021861801F016F92B461D
:105A9C003046C21800218B4210D1002070BD22F07C
:105AAC00030102F003066158F600F140C9B281B956
:105ABC000132AA42F3D1ECE71A46FAE721F00300CF
:105ACC0001F0030501312058ED00E84002F8010D0A
:105ADC00E1E76FF00700E1E7F8B5054650090C4621
:105AEC0002F01F06884201D80AD136B1A20028461E
:105AFC000021BDE8F84001F0E0B81F2A02D8F8BD3B
:105B0C001F2A10D98200291F05EB800305EB84079F
:105B1C00BB421BD1201A4FF0000138BF002205EB0D
:105B2C00800001F0CAF8002EE9D005EB84040022B5
:105B3C00C6F12000AC42E2D054F8041C21FA06F362
:105B4C00134301FA00F244F8043DF3E753F804CB95
:105B5C0041F804CFDCE71F2AF8B503460D464FEA9F
:105B6C00521402F01F0613D96FF003000A4600FB13
:105B7C000430944202F1FF3113D3621B184600210A
:105B8C00AC4288BF00222A44920001F096F80346EA
:105B9C0036B103EB84030021C6F12007AC4206D3D7
:105BAC00F8BD50F8212043F821200A46E1E7186897
:105BBC00013400FA06F20A4320FA07F143F8042BE9
:105BCC00ECE7F0B50024844620469C4200D1F0BDA1
:105BDC0051F8245052F824702E182CBF01250025A2
:105BEC00BF194CF8247045F100000134EDE7F0B515
:105BFC000024064620469C4200D1F0BD51F824C03A
:105C0C0052F82470ACEB0005AF42A5EB070594BF2E
:105C1C004FF0000E4FF0010E46F82450013484452D
:105C2C002CBF70460EF10100E5E78B4228BF0B46F6
:105C3C002DE9F0479646DE080446C91A03F007081A
:105C4C00089A03467546B44600200CF1FF3C2033FD
:105C5C002035BCF1FF3F11D104EB46140EEB461678
:105C6C004FEA880C254606EB880E764540F081807D
:105C7C006444013980F08B80BDE8F08755F8207CB6
:105C8C00A2FB079710EB090953F8200C47F100070A
:105C9C0010EB090043F8200C47F1000755F81C0CD9
:105CAC00A2FB00093F1853F81C0C49F10009C0195C
:105CBC0043F81C0C49F1000955F8180CA2FB00071D
:105CCC0019EB000953F8180C47F1000710EB090009
:105CDC0043F8180C47F1000755F8140CA2FB000907
:105CEC003F1853F8140C49F10009C01943F8140C6F
:105CFC0049F1000955F8100CA2FB000719EB00093B
:105D0C0053F8100C47F1000710EB090043F8100C86
:105D1C0047F1000755F80C0CA2FB00093F1853F88B
